{
    "contractName": "Movies",
    "abi": [
        {
            "inputs": [
                {
                    "components": [
                        {
                            "internalType": "uint256",
                            "name": "Id",
                            "type": "uint256"
                        },
                        {
                            "internalType": "string",
                            "name": "Name",
                            "type": "string"
                        },
                        {
                            "internalType": "string",
                            "name": "Director",
                            "type": "string"
                        },
                        {
                            "components": [
                                {
                                    "internalType": "uint256",
                                    "name": "Id",
                                    "type": "uint256"
                                },
                                {
                                    "internalType": "string",
                                    "name": "Name",
                                    "type": "string"
                                }
                            ],
                            "internalType": "struct Movies.ActorsStruct[]",
                            "name": "Actors",
                            "type": "tuple[]"
                        }
                    ],
                    "internalType": "struct Movies.MoviesStructure",
                    "name": "_movie",
                    "type": "tuple"
                }
            ],
            "name": "AddMovie",
            "outputs": [],
            "stateMutability": "nonpayable",
            "type": "function"
        },
        {
            "inputs": [],
            "name": "GetMovies",
            "outputs": [
                {
                    "components": [
                        {
                            "internalType": "uint256",
                            "name": "Id",
                            "type": "uint256"
                        },
                        {
                            "internalType": "string",
                            "name": "Name",
                            "type": "string"
                        },
                        {
                            "internalType": "string",
                            "name": "Director",
                            "type": "string"
                        },
                        {
                            "components": [
                                {
                                    "internalType": "uint256",
                                    "name": "Id",
                                    "type": "uint256"
                                },
                                {
                                    "internalType": "string",
                                    "name": "Name",
                                    "type": "string"
                                }
                            ],
                            "internalType": "struct Movies.ActorsStruct[]",
                            "name": "Actors",
                            "type": "tuple[]"
                        }
                    ],
                    "internalType": "struct Movies.MoviesStructure[]",
                    "name": "",
                    "type": "tuple[]"
                }
            ],
            "stateMutability": "view",
            "type": "function"
        },
        {
            "inputs": [
                {
                    "internalType": "uint256",
                    "name": "",
                    "type": "uint256"
                }
            ],
            "name": "mapMovie",
            "outputs": [
                {
                    "internalType": "uint256",
                    "name": "Id",
                    "type": "uint256"
                },
                {
                    "internalType": "string",
                    "name": "Name",
                    "type": "string"
                },
                {
                    "internalType": "string",
                    "name": "Director",
                    "type": "string"
                }
            ],
            "stateMutability": "view",
            "type": "function"
        }
    ],
    "bytecode": "608060405234801561001057600080fd5b50610d0f806100206000396000f3fe608060405234801561001057600080fd5b50600436106100415760003560e01c8063c19769a914610046578063d2421ff61461005b578063f6addbb814610079575b600080fd5b610059610054366004610927565b61009b565b005b610063610265565b6040516100709190610af2565b60405180910390f35b61008c610087366004610bf1565b6104ed565b60405161007093929190610c0a565b6000600260006100ab6000610620565b8152602001908152602001600020905081604001518160020190805190602001906100d7929190610638565b5060208083015180516100f09260018501920190610638565b5060005b8260600151518110156101ae578160030160405180604001604052808560600151848151811061012657610126610c3f565b60200260200101516000015181526020018560600151848151811061014d5761014d610c3f565b60209081029190910181015181015190915282546001818101855560009485529382902083516002909202019081558282015180519394919361019893928501929190910190610638565b50505080806101a690610c6b565b9150506100f4565b506001805480820182556000829052825460049091027fb10e2d527612073b26eecdfd717e6a320cf44b4afac2b0732d9fcbe2b7fa0cf68101918255918301805484937fb10e2d527612073b26eecdfd717e6a320cf44b4afac2b0732d9fcbe2b7fa0cf701919061021e90610c86565b6102299291906106bc565b50600282018160020190805461023e90610c86565b6102499291906106bc565b506003828101805461025e9284019190610737565b5050505050565b60606001805480602002602001604051908101604052809291908181526020016000905b828210156104e45783829060005260206000209060040201604051806080016040529081600082015481526020016001820180546102c690610c86565b80601f01602080910402602001604051908101604052809291908181526020018280546102f290610c86565b801561033f5780601f106103145761010080835404028352916020019161033f565b820191906000526020600020905b81548152906001019060200180831161032257829003601f168201915b5050505050815260200160028201805461035890610c86565b80601f016020809104026020016040519081016040528092919081815260200182805461038490610c86565b80156103d15780601f106103a6576101008083540402835291602001916103d1565b820191906000526020600020905b8154815290600101906020018083116103b457829003601f168201915b5050505050815260200160038201805480602002602001604051908101604052809291908181526020016000905b828210156104cd57838290600052602060002090600202016040518060400160405290816000820154815260200160018201805461043c90610c86565b80601f016020809104026020016040519081016040528092919081815260200182805461046890610c86565b80156104b55780601f1061048a576101008083540402835291602001916104b5565b820191906000526020600020905b81548152906001019060200180831161049857829003601f168201915b505050505081525050815260200190600101906103ff565b505050508152505081526020019060010190610289565b50505050905090565b6002602052600090815260409020805460018201805491929161050f90610c86565b80601f016020809104026020016040519081016040528092919081815260200182805461053b90610c86565b80156105885780601f1061055d57610100808354040283529160200191610588565b820191906000526020600020905b81548152906001019060200180831161056b57829003601f168201915b50505050509080600201805461059d90610c86565b80601f01602080910402602001604051908101604052809291908181526020018280546105c990610c86565b80156106165780601f106105eb57610100808354040283529160200191610616565b820191906000526020600020905b8154815290600101906020018083116105f957829003601f168201915b5050505050905083565b8054600090610630906001610cc1565b918290555090565b82805461064490610c86565b90600052602060002090601f01602090048101928261066657600085556106ac565b82601f1061067f57805160ff19168380011785556106ac565b828001600101855582156106ac579182015b828111156106ac578251825591602001919060010190610691565b506106b89291506107af565b5090565b8280546106c890610c86565b90600052602060002090601f0160209004810192826106ea57600085556106ac565b82601f106106fb57805485556106ac565b828001600101855582156106ac57600052602060002091601f016020900482015b828111156106ac57825482559160010191906001019061071c565b8280548282559060005260206000209060020281019282156107a35760005260206000209160020282015b828111156107a3578254825560018084018054859285929083019161078690610c86565b6107919291906106bc565b50505091600201919060020190610762565b506106b89291506107c4565b5b808211156106b857600081556001016107b0565b808211156106b85760008082556107de60018301826107e7565b506002016107c4565b5080546107f390610c86565b6000825580601f10610803575050565b601f01602090049060005260206000209081019061082191906107af565b50565b634e487b7160e01b600052604160045260246000fd5b6040516080810167ffffffffffffffff8111828210171561085d5761085d610824565b60405290565b6040805190810167ffffffffffffffff8111828210171561085d5761085d610824565b604051601f8201601f1916810167ffffffffffffffff811182821017156108af576108af610824565b604052919050565b600082601f8301126108c857600080fd5b813567ffffffffffffffff8111156108e2576108e2610824565b6108f5601f8201601f1916602001610886565b81815284602083860101111561090a57600080fd5b816020850160208301376000918101602001919091529392505050565b6000602080838503121561093a57600080fd5b823567ffffffffffffffff8082111561095257600080fd5b908401906080828703121561096657600080fd5b61096e61083a565b82358152838301358281111561098357600080fd5b61098f888286016108b7565b8583015250604080840135838111156109a757600080fd5b6109b3898287016108b7565b82840152506060840135838111156109ca57600080fd5b80850194505087601f8501126109df57600080fd5b8335838111156109f1576109f1610824565b8060051b610a00878201610886565b918252858101870191878101908b841115610a1a57600080fd5b88880192505b83831015610a9157823587811115610a385760008081fd5b8801808d03601f1901861315610a4e5760008081fd5b610a56610863565b8a82013581528682013589811115610a6e5760008081fd5b610a7c8f8d838601016108b7565b828d0152508352509188019190880190610a20565b606086015250929998505050505050505050565b6000815180845260005b81811015610acb57602081850181015186830182015201610aaf565b81811115610add576000602083870101525b50601f01601f19169290920160200192915050565b60006020808301818452808551808352604092508286019150828160051b8701018488016000805b84811015610be257603f198a8503018652825160808151865289820151818b880152610b4882880182610aa5565b915050888201518682038a880152610b608282610aa5565b606093840151888203948901949094528351808252938c01939092508b83019150600581901b83018c01865b82811015610bcb57848203601f190184528551805183528e01518e83018e9052610bb88e840182610aa5565b968f0196948f0194925050600101610b8c565b50998c019997505050938901935050600101610b1a565b50919998505050505050505050565b600060208284031215610c0357600080fd5b5035919050565b838152606060208201526000610c236060830185610aa5565b8281036040840152610c358185610aa5565b9695505050505050565b634e487b7160e01b600052603260045260246000fd5b634e487b7160e01b600052601160045260246000fd5b6000600019821415610c7f57610c7f610c55565b5060010190565b600181811c90821680610c9a57607f821691505b60208210811415610cbb57634e487b7160e01b600052602260045260246000fd5b50919050565b60008219821115610cd457610cd4610c55565b50019056fea264697066735822122059d89ee588282993ddc35f85c19ae65623e60f56343de31b66a689a7dc8fc27d64736f6c634300080c0033",
    "sourcePath": "c:/Users/skott/Desktop/Projects/_Blockchain/Projects/MoviesFE/contracts/Movies.sol",
    "compiler": {
        "name": "solc",
        "version": "0.8.12+commit.f00d7308"
    },
    "functionHashes": {
        "AddMovie((uint256,string,string,(uint256,string)[]))": "c19769a9",
        "GetMovies()": "d2421ff6",
        "mapMovie(uint256)": "f6addbb8"
    },
    "gasEstimates": {
        "creation": {
            "codeDepositCost": "668600",
            "executionCost": "702",
            "totalCost": "669302"
        },
        "external": {
            "AddMovie((uint256,string,string,(uint256,string)[]))": "infinite",
            "GetMovies()": "infinite",
            "mapMovie(uint256)": "infinite"
        },
        "internal": {
            "NextMovieId(struct Movies.MovieIdStruct storage pointer)": "24302"
        }
    }
}