{
    "contractName": "Movies",
    "abi": [
        {
            "inputs": [
                {
                    "internalType": "uint256",
                    "name": "_Id",
                    "type": "uint256"
                },
                {
                    "internalType": "string",
                    "name": "_Name",
                    "type": "string"
                },
                {
                    "internalType": "string",
                    "name": "_Director",
                    "type": "string"
                }
            ],
            "name": "AddMovie",
            "outputs": [],
            "stateMutability": "nonpayable",
            "type": "function"
        },
        {
            "inputs": [],
            "name": "GetMovies",
            "outputs": [
                {
                    "components": [
                        {
                            "internalType": "uint256",
                            "name": "Id",
                            "type": "uint256"
                        },
                        {
                            "internalType": "string",
                            "name": "Name",
                            "type": "string"
                        },
                        {
                            "internalType": "string",
                            "name": "Director",
                            "type": "string"
                        }
                    ],
                    "internalType": "struct Movies.MoviesStructure[]",
                    "name": "",
                    "type": "tuple[]"
                }
            ],
            "stateMutability": "view",
            "type": "function"
        }
    ],
    "bytecode": "608060405234801561001057600080fd5b506105a7806100206000396000f3fe608060405234801561001057600080fd5b50600436106100365760003560e01c8063d2421ff61461003b578063f5e4176a14610059575b600080fd5b61004361006e565b6040516100509190610395565b60405180910390f35b61006c6100673660046104c9565b6101fb565b005b60606000805480602002602001604051908101604052809291908181526020016000905b828210156101f25783829060005260206000209060030201604051806060016040529081600082015481526020016001820180546100cf90610536565b80601f01602080910402602001604051908101604052809291908181526020018280546100fb90610536565b80156101485780601f1061011d57610100808354040283529160200191610148565b820191906000526020600020905b81548152906001019060200180831161012b57829003601f168201915b5050505050815260200160028201805461016190610536565b80601f016020809104026020016040519081016040528092919081815260200182805461018d90610536565b80156101da5780601f106101af576101008083540402835291602001916101da565b820191906000526020600020905b8154815290600101906020018083116101bd57829003601f168201915b50505050508152505081526020019060010190610092565b50505050905090565b60408051606081018252848152602080820185815292820184905260008054600181018255908052825160039091027f290decd9548b62a8d60345a988386fc84ba6bc95484008f6362f93160ef3e5638101918255935180519394919361028b937f290decd9548b62a8d60345a988386fc84ba6bc95484008f6362f93160ef3e5649093019291909101906102af565b50604082015180516102a79160028401916020909101906102af565b505050505050565b8280546102bb90610536565b90600052602060002090601f0160209004810192826102dd5760008555610323565b82601f106102f657805160ff1916838001178555610323565b82800160010185558215610323579182015b82811115610323578251825591602001919060010190610308565b5061032f929150610333565b5090565b5b8082111561032f5760008155600101610334565b6000815180845260005b8181101561036e57602081850181015186830182015201610352565b81811115610380576000602083870101525b50601f01601f19169290920160200192915050565b60006020808301818452808551808352604092508286019150828160051b87010184880160005b8381101561041857603f19898403018552815160608151855288820151818a8701526103ea82870182610348565b915050878201519150848103888601526104048183610348565b9689019694505050908601906001016103bc565b509098975050505050505050565b634e487b7160e01b600052604160045260246000fd5b600082601f83011261044d57600080fd5b813567ffffffffffffffff8082111561046857610468610426565b604051601f8301601f19908116603f0116810190828211818310171561049057610490610426565b816040528381528660208588010111156104a957600080fd5b836020870160208301376000602085830101528094505050505092915050565b6000806000606084860312156104de57600080fd5b83359250602084013567ffffffffffffffff808211156104fd57600080fd5b6105098783880161043c565b9350604086013591508082111561051f57600080fd5b5061052c8682870161043c565b9150509250925092565b600181811c9082168061054a57607f821691505b6020821081141561056b57634e487b7160e01b600052602260045260246000fd5b5091905056fea26469706673582212207064227e6187953635c38910dd5ee1f975921e8bba0023af61ce166b2bc2efa564736f6c634300080c0033",
    "sourcePath": "c:/Users/skott/Desktop/Projects/_Blockchain/Projects/MoviesFE/contracts/Movies.sol",
    "compiler": {
        "name": "solc",
        "version": "0.8.12+commit.f00d7308"
    },
    "functionHashes": {
        "AddMovie(uint256,string,string)": "f5e4176a",
        "GetMovies()": "d2421ff6"
    },
    "gasEstimates": {
        "creation": {
            "codeDepositCost": "289400",
            "executionCost": "331",
            "totalCost": "289731"
        },
        "external": {
            "AddMovie(uint256,string,string)": "infinite",
            "GetMovies()": "infinite"
        }
    }
}