{
    "contractName": "Tickets",
    "abi": [
        {
            "inputs": [
                {
                    "internalType": "address",
                    "name": "token",
                    "type": "address"
                },
                {
                    "internalType": "uint256",
                    "name": "dateOfPurchase",
                    "type": "uint256"
                },
                {
                    "internalType": "string",
                    "name": "name",
                    "type": "string"
                }
            ],
            "name": "AddTicket",
            "outputs": [],
            "stateMutability": "nonpayable",
            "type": "function"
        },
        {
            "inputs": [
                {
                    "internalType": "address",
                    "name": "token",
                    "type": "address"
                }
            ],
            "name": "GetCustomerTickets",
            "outputs": [
                {
                    "components": [
                        {
                            "internalType": "address",
                            "name": "token",
                            "type": "address"
                        },
                        {
                            "internalType": "uint256",
                            "name": "dateOfPurchase",
                            "type": "uint256"
                        }
                    ],
                    "internalType": "struct Tickets.TicketStruct[]",
                    "name": "tickets",
                    "type": "tuple[]"
                }
            ],
            "stateMutability": "view",
            "type": "function"
        }
    ],
    "bytecode": "608060405234801561001057600080fd5b5061041d806100206000396000f3fe608060405234801561001057600080fd5b50600436106100365760003560e01c8063250716121461003b5780639efa2e9e14610064575b600080fd5b61004e610049366004610251565b610079565b60405161005b9190610273565b60405180910390f35b6100776100723660046102e1565b610107565b005b6001600160a01b03811660009081526020818152604080832060028101805483518186028101860190945280845260609592949192909184015b828210156100fb576000848152602090819020604080518082019091526002850290910180546001600160a01b031682526001908101548284015290835290920191016100b3565b50505050915050919050565b6001600160a01b03831660009081526020818152604090912082516101349260019092019184019061019c565b50506001600160a01b03918216600081815260208181526040808320815180830190925293815280820194855260029384018054600180820183559185529290932090519190930290920180546001600160a01b031916929094169190911783559051910155565b8280546101a8906103ac565b90600052602060002090601f0160209004810192826101ca5760008555610210565b82601f106101e357805160ff1916838001178555610210565b82800160010185558215610210579182015b828111156102105782518255916020019190600101906101f5565b5061021c929150610220565b5090565b5b8082111561021c5760008155600101610221565b80356001600160a01b038116811461024c57600080fd5b919050565b60006020828403121561026357600080fd5b61026c82610235565b9392505050565b602080825282518282018190526000919060409081850190868401855b828110156102be57815180516001600160a01b03168552860151868501529284019290850190600101610290565b5091979650505050505050565b634e487b7160e01b600052604160045260246000fd5b6000806000606084860312156102f657600080fd5b6102ff84610235565b925060208401359150604084013567ffffffffffffffff8082111561032357600080fd5b818601915086601f83011261033757600080fd5b813581811115610349576103496102cb565b604051601f8201601f19908116603f01168101908382118183101715610371576103716102cb565b8160405282815289602084870101111561038a57600080fd5b8260208601602083013760006020848301015280955050505050509250925092565b600181811c908216806103c057607f821691505b602082108114156103e157634e487b7160e01b600052602260045260246000fd5b5091905056fea26469706673582212204fc29e272f3df1601cdb9e7ae5bd4b6ee0003e8e3024784e7ff063ddcb61dccf64736f6c634300080c0033",
    "sourcePath": "c:/Users/skott/Desktop/Projects/_Blockchain/Projects/MoviesFE/contracts/Tickets.sol",
    "compiler": {
        "name": "solc",
        "version": "0.8.12+commit.f00d7308"
    },
    "functionHashes": {
        "AddTicket(address,uint256,string)": "9efa2e9e",
        "GetCustomerTickets(address)": "25071612"
    },
    "gasEstimates": {
        "creation": {
            "codeDepositCost": "210600",
            "executionCost": "251",
            "totalCost": "210851"
        },
        "external": {
            "AddTicket(address,uint256,string)": "infinite",
            "GetCustomerTickets(address)": "infinite"
        }
    }
}