{
  "contractName": "Actor",
  "abi": [
    {
      "constant": true,
      "inputs": [],
      "name": "getActors",
      "outputs": [
        {
          "components": [
            {
              "name": "token",
              "type": "string"
            },
            {
              "name": "name",
              "type": "string"
            },
            {
              "components": [
                {
                  "name": "token",
                  "type": "string"
                },
                {
                  "name": "name",
                  "type": "string"
                }
              ],
              "name": "movies",
              "type": "tuple[]"
            }
          ],
          "name": "",
          "type": "tuple[]"
        }
      ],
      "payable": false,
      "stateMutability": "view",
      "type": "function"
    },
    {
      "constant": true,
      "inputs": [
        {
          "name": "token",
          "type": "string"
        }
      ],
      "name": "getActorByToken",
      "outputs": [
        {
          "components": [
            {
              "name": "token",
              "type": "string"
            },
            {
              "name": "name",
              "type": "string"
            },
            {
              "components": [
                {
                  "name": "token",
                  "type": "string"
                },
                {
                  "name": "name",
                  "type": "string"
                }
              ],
              "name": "movies",
              "type": "tuple[]"
            }
          ],
          "name": "",
          "type": "tuple"
        }
      ],
      "payable": false,
      "stateMutability": "view",
      "type": "function"
    },
    {
      "constant": false,
      "inputs": [
        {
          "components": [
            {
              "name": "token",
              "type": "string"
            },
            {
              "name": "name",
              "type": "string"
            },
            {
              "components": [
                {
                  "name": "token",
                  "type": "string"
                },
                {
                  "name": "name",
                  "type": "string"
                }
              ],
              "name": "movies",
              "type": "tuple[]"
            }
          ],
          "name": "actorToAdd",
          "type": "tuple"
        }
      ],
      "name": "addActor",
      "outputs": [
        {
          "name": "",
          "type": "bool"
        }
      ],
      "payable": false,
      "stateMutability": "nonpayable",
      "type": "function"
    }
  ],
  "bytecode": "0x608060405234801561001057600080fd5b506114d2806100206000396000f3fe608060405260043610610057576000357c0100000000000000000000000000000000000000000000000000000000900463ffffffff168063137e7a7d1461005c5780636d16aef914610087578063eacef26d146100c4575b600080fd5b34801561006857600080fd5b50610071610101565b60405161007e91906112d8565b60405180910390f35b34801561009357600080fd5b506100ae60048036036100a99190810190611035565b610448565b6040516100bb9190611315565b60405180910390f35b3480156100d057600080fd5b506100eb60048036036100e69190810190611076565b6107bb565b6040516100f891906112fa565b60405180910390f35b60606000805480602002602001604051908101604052809291908181526020016000905b8282101561043f578382906000526020600020906003020160606040519081016040529081600082018054600181600116156101000203166002900480601f0160208091040260200160405190810160405280929190818152602001828054600181600116156101000203166002900480156101e25780601f106101b7576101008083540402835291602001916101e2565b820191906000526020600020905b8154815290600101906020018083116101c557829003601f168201915b50505050508152602001600182018054600181600116156101000203166002900480601f0160208091040260200160405190810160405280929190818152602001828054600181600116156101000203166002900480156102845780601f1061025957610100808354040283529160200191610284565b820191906000526020600020905b81548152906001019060200180831161026757829003601f168201915b5050505050815260200160028201805480602002602001604051908101604052809291908181526020016000905b828210156104285783829060005260206000209060020201604080519081016040529081600082018054600181600116156101000203166002900480601f01602080910402602001604051908101604052809291908181526020018280546001816001161561010002031660029004801561036e5780601f106103435761010080835404028352916020019161036e565b820191906000526020600020905b81548152906001019060200180831161035157829003601f168201915b50505050508152602001600182018054600181600116156101000203166002900480601f0160208091040260200160405190810160405280929190818152602001828054600181600116156101000203166002900480156104105780601f106103e557610100808354040283529160200191610410565b820191906000526020600020905b8154815290600101906020018083116103f357829003601f168201915b505050505081525050815260200190600101906102b2565b505050508152505081526020019060010190610125565b50505050905090565b610450610af2565b60006001836040518082805190602001908083835b60208310151561048a5780518252602082019150602081019050602083039250610465565b6001836020036101000a038019825116818451168082178552505050505050905001915050908152602001604051809103902090508060606040519081016040529081600082018054600181600116156101000203166002900480601f0160208091040260200160405190810160405280929190818152602001828054600181600116156101000203166002900480156105655780601f1061053a57610100808354040283529160200191610565565b820191906000526020600020905b81548152906001019060200180831161054857829003601f168201915b50505050508152602001600182018054600181600116156101000203166002900480601f0160208091040260200160405190810160405280929190818152602001828054600181600116156101000203166002900480156106075780601f106105dc57610100808354040283529160200191610607565b820191906000526020600020905b8154815290600101906020018083116105ea57829003601f168201915b5050505050815260200160028201805480602002602001604051908101604052809291908181526020016000905b828210156107ab5783829060005260206000209060020201604080519081016040529081600082018054600181600116156101000203166002900480601f0160208091040260200160405190810160405280929190818152602001828054600181600116156101000203166002900480156106f15780601f106106c6576101008083540402835291602001916106f1565b820191906000526020600020905b8154815290600101906020018083116106d457829003601f168201915b50505050508152602001600182018054600181600116156101000203166002900480601f0160208091040260200160405190810160405280929190818152602001828054600181600116156101000203166002900480156107935780601f1061076857610100808354040283529160200191610793565b820191906000526020600020905b81548152906001019060200180831161077657829003601f168201915b50505050508152505081526020019060010190610635565b5050505081525050915050919050565b60006107ca82600001516109e8565b156107d457600080fd5b6000600183600001516040518082805190602001908083835b60208310151561081257805182526020820191506020810190506020830392506107ed565b6001836020036101000a038019825116818451168082178552505050505050905001915050908152602001604051809103902090508260200151816001019080519060200190610863929190610b14565b508260000151816000019080519060200190610880929190610b14565b5060008090505b83604001515181101561094557816002016040805190810160405280866000015181526020018660400151848151811015156108bf57fe5b9060200190602002015160200151815250908060018154018082558091505090600182039060005260206000209060020201600090919290919091506000820151816000019080519060200190610917929190610b94565b506020820151816001019080519060200190610934929190610b94565b505050508080600101915050610887565b50600081908060018154018082558091505090600182039060005260206000209060030201600090919290919091506000820181600001908054600181600116156101000203166002900461099b929190610c14565b50600182018160010190805460018160011615610100020316600290046109c3929190610c14565b5060028201816002019080546109da929190610c9b565b505050506001915050919050565b60006109f2610af2565b6109fb83610448565b9050826040516020018082805190602001908083835b602083101515610a365780518252602082019150602081019050602083039250610a11565b6001836020036101000a0380198251168184511680821785525050505050509050019150506040516020818303038152906040528051906020012081600001516040516020018082805190602001908083835b602083101515610aae5780518252602082019150602081019050602083039250610a89565b6001836020036101000a0380198251168184511680821785525050505050509050019150506040516020818303038152906040528051906020012014915050919050565b6060604051908101604052806060815260200160608152602001606081525090565b828054600181600116156101000203166002900490600052602060002090601f016020900481019282601f10610b5557805160ff1916838001178555610b83565b82800160010185558215610b83579182015b82811115610b82578251825591602001919060010190610b67565b5b509050610b909190610d43565b5090565b828054600181600116156101000203166002900490600052602060002090601f016020900481019282601f10610bd557805160ff1916838001178555610c03565b82800160010185558215610c03579182015b82811115610c02578251825591602001919060010190610be7565b5b509050610c109190610d43565b5090565b828054600181600116156101000203166002900490600052602060002090601f016020900481019282601f10610c4d5780548555610c8a565b82800160010185558215610c8a57600052602060002091601f016020900482015b82811115610c89578254825591600101919060010190610c6e565b5b509050610c979190610d43565b5090565b828054828255906000526020600020906002028101928215610d325760005260206000209160020282015b82811115610d3157828260008201816000019080546001816001161561010002031660029004610cf7929190610c14565b5060018201816001019080546001816001161561010002031660029004610d1f929190610c14565b50505091600201919060020190610cc6565b5b509050610d3f9190610d68565b5090565b610d6591905b80821115610d61576000816000905550600101610d49565b5090565b90565b610da491905b80821115610da05760008082016000610d879190610da7565b600182016000610d979190610da7565b50600201610d6e565b5090565b90565b50805460018160011615610100020316600290046000825580601f10610dcd5750610dec565b601f016020900490600052602060002090810190610deb9190610d43565b5b50565b600082601f8301121515610e0257600080fd5b8135610e15610e1082611364565b611337565b9150818183526020840193506020810190508360005b83811015610e5b5781358601610e418882610fb9565b845260208401935060208301925050600181019050610e2b565b5050505092915050565b600082601f8301121515610e7857600080fd5b8135610e8b610e868261138c565b611337565b91508082526020830160208301858383011115610ea757600080fd5b610eb2838284611445565b50505092915050565b600082601f8301121515610ece57600080fd5b8135610ee1610edc826113b8565b611337565b91508082526020830160208301858383011115610efd57600080fd5b610f08838284611445565b50505092915050565b600060608284031215610f2357600080fd5b610f2d6060611337565b9050600082013567ffffffffffffffff811115610f4957600080fd5b610f5584828501610e65565b600083015250602082013567ffffffffffffffff811115610f7557600080fd5b610f8184828501610e65565b602083015250604082013567ffffffffffffffff811115610fa157600080fd5b610fad84828501610def565b60408301525092915050565b600060408284031215610fcb57600080fd5b610fd56040611337565b9050600082013567ffffffffffffffff811115610ff157600080fd5b610ffd84828501610e65565b600083015250602082013567ffffffffffffffff81111561101d57600080fd5b61102984828501610e65565b60208301525092915050565b60006020828403121561104757600080fd5b600082013567ffffffffffffffff81111561106157600080fd5b61106d84828501610ebb565b91505092915050565b60006020828403121561108857600080fd5b600082013567ffffffffffffffff8111156110a257600080fd5b6110ae84828501610f11565b91505092915050565b60006110c2826113fe565b808452602084019350836020820285016110db856113e4565b60005b848110156111145783830388526110f6838351611236565b92506111018261141f565b91506020880197506001810190506110de565b508196508694505050505092915050565b600061113082611409565b80845260208401935083602082028501611149856113f1565b60005b84811015611182578383038852611164838351611294565b925061116f8261142c565b915060208801975060018101905061114c565b508196508694505050505092915050565b61119c81611439565b82525050565b60006111ad82611414565b8084526111c1816020860160208601611454565b6111ca81611487565b602085010191505092915050565b600060608301600083015184820360008601526111f582826111a2565b9150506020830151848203602086015261120f82826111a2565b915050604083015184820360408601526112298282611125565b9150508091505092915050565b6000606083016000830151848203600086015261125382826111a2565b9150506020830151848203602086015261126d82826111a2565b915050604083015184820360408601526112878282611125565b9150508091505092915050565b600060408301600083015184820360008601526112b182826111a2565b915050602083015184820360208601526112cb82826111a2565b9150508091505092915050565b600060208201905081810360008301526112f281846110b7565b905092915050565b600060208201905061130f6000830184611193565b92915050565b6000602082019050818103600083015261132f81846111d8565b905092915050565b6000604051905081810181811067ffffffffffffffff8211171561135a57600080fd5b8060405250919050565b600067ffffffffffffffff82111561137b57600080fd5b602082029050602081019050919050565b600067ffffffffffffffff8211156113a357600080fd5b601f19601f8301169050602081019050919050565b600067ffffffffffffffff8211156113cf57600080fd5b601f19601f8301169050602081019050919050565b6000602082019050919050565b6000602082019050919050565b600081519050919050565b600081519050919050565b600081519050919050565b6000602082019050919050565b6000602082019050919050565b60008115159050919050565b82818337600083830152505050565b60005b83811015611472578082015181840152602081019050611457565b83811115611481576000848401525b50505050565b6000601f19601f830116905091905056fea265627a7a72305820554af3f8a6d4c7da07f752bd9504cc5b0e362bd812dac6d49bdcda9cc133105f6c6578706572696d656e74616cf50037",
  "source": "// SPDX-License-Identifier: MIT\r\npragma solidity >=0.4.22 <0.9.0;\r\npragma experimental ABIEncoderV2;\r\n\r\ncontract Actor {\r\n    // [\"0xA27eEfe6b5180F085CE6Aa5D6DaA81d1c35153C0\", \"Christian Bale\", [[\"0xA27eEfe6b5180F085CE6Aa5D6DaA81d1c35153C0\",\"The Dark Knight\"], [\"0xA27eEfe6b5180F085CE6Aa5D6DaA81d1c35153C0\",\"The Dark Knight Rises\"]]]\r\n\r\n    struct ActorStruct {\r\n        string token;\r\n        string name;\r\n        MovieStruct[] movies;\r\n    }\r\n\r\n    struct MovieStruct {\r\n        string token;\r\n        string name;\r\n    }\r\n\r\n    ActorStruct[] Actors;\r\n    mapping(string => ActorStruct) internal mapActor;\r\n\r\n    function getActors() public view returns (ActorStruct[] memory) {\r\n        return Actors;\r\n    }\r\n\r\n    function getActorByToken(string memory token)\r\n        public\r\n        view\r\n        returns (ActorStruct memory)\r\n    {\r\n        ActorStruct storage actor = mapActor[token];\r\n        return actor;\r\n    }\r\n\r\n    function addActor(ActorStruct memory actorToAdd) public returns (bool) {\r\n        if (actorExists(actorToAdd.token)) {\r\n            revert();\r\n        }\r\n\r\n        ActorStruct storage actor = mapActor[actorToAdd.token];\r\n        actor.name = actorToAdd.name;\r\n        actor.token = actorToAdd.token;\r\n\r\n        for (uint256 i = 0; i < actorToAdd.movies.length; i++) {\r\n            actor.movies.push(\r\n                MovieStruct(actorToAdd.token, actorToAdd.movies[i].name)\r\n            );\r\n        }\r\n\r\n        Actors.push(actor);\r\n\r\n        return true;\r\n    }\r\n\r\n    function actorExists(string memory token) private view returns (bool) {\r\n        ActorStruct memory testStruct = getActorByToken(token);\r\n\r\n        return\r\n            keccak256(abi.encodePacked(testStruct.token)) ==\r\n            keccak256(abi.encodePacked(token));\r\n    }\r\n}\r\n",
  "sourcePath": "C:/Users/skott/Desktop/Projects/_Blockchain/Projects/MoviesFE/contracts/Actor.sol",
  "compiler": {
    "name": "solc",
    "version": "0.5.0+commit.1d4f565a.Emscripten.clang"
  },
  "schemaVersion": "3.0.1",
  "updatedAt": "2022-03-14T05:01:52.338Z",
  "devdoc": {
    "methods": {}
  },
  "userdoc": {
    "methods": {}
  }
}