{
  "contractName": "Counter",
  "abi": [
    {
      "constant": true,
      "inputs": [],
      "name": "count",
      "outputs": [
        {
          "name": "",
          "type": "uint256"
        }
      ],
      "payable": false,
      "stateMutability": "view",
      "type": "function",
      "signature": "0x06661abd"
    },
    {
      "anonymous": false,
      "inputs": [
        {
          "indexed": false,
          "name": "count",
          "type": "uint256"
        }
      ],
      "name": "LogCount",
      "type": "event",
      "signature": "0x9c8a9abacf5f9deed30e0ad87ebb3e6f102921670dd2f0c19560e9561eb62af6"
    },
    {
      "constant": false,
      "inputs": [],
      "name": "increment",
      "outputs": [],
      "payable": false,
      "stateMutability": "nonpayable",
      "type": "function",
      "signature": "0xd09de08a"
    },
    {
      "constant": true,
      "inputs": [],
      "name": "counts",
      "outputs": [
        {
          "name": "",
          "type": "uint256"
        }
      ],
      "payable": false,
      "stateMutability": "view",
      "type": "function",
      "signature": "0x817cc1ea"
    },
    {
      "constant": true,
      "inputs": [],
      "name": "testString",
      "outputs": [
        {
          "name": "",
          "type": "string"
        }
      ],
      "payable": false,
      "stateMutability": "pure",
      "type": "function",
      "signature": "0xfb8f0f59"
    }
  ],
  "bytecode": "0x608060405234801561001057600080fd5b506101f1806100206000396000f3fe6080604052600436106100615763ffffffff7c010000000000000000000000000000000000000000000000000000000060003504166306661abd8114610066578063817cc1ea1461008d578063d09de08a146100a2578063fb8f0f59146100b9575b600080fd5b34801561007257600080fd5b5061007b610143565b60408051918252519081900360200190f35b34801561009957600080fd5b5061007b610149565b3480156100ae57600080fd5b506100b761014f565b005b3480156100c557600080fd5b506100ce61018e565b6040805160208082528351818301528351919283929083019185019080838360005b838110156101085781810151838201526020016100f0565b50505050905090810190601f1680156101355780820380516001836020036101000a031916815260200191505b509250505060405180910390f35b60005481565b60005490565b600080546001019081905560408051918252517f9c8a9abacf5f9deed30e0ad87ebb3e6f102921670dd2f0c19560e9561eb62af69181900360200190a1565b60408051808201909152600b81527f7465737420737472696e6700000000000000000000000000000000000000000060208201529056fea165627a7a7230582017b16c1f52408de84956eaab168154504b23f7554c6cb31fce6188f8e83a68c00029",
  "source": "// SPDX-License-Identifier: MIT\r\npragma solidity >=0.4.22 <0.9.0;\r\n\r\ncontract Counter {\r\n    uint256 public count;\r\n\r\n    event LogCount(uint256 count);\r\n\r\n    function increment() public {\r\n        count += 1;\r\n\r\n        emit LogCount(count);\r\n    }\r\n\r\n    function counts() public view returns (uint256) {\r\n        return count;\r\n    }\r\n\r\n    function testString() public pure returns (string memory) {\r\n        return \"test string\";\r\n    }\r\n}\r\n",
  "sourcePath": "C:/Users/skott/Desktop/Projects/_Blockchain/Projects/MoviesFE/contracts/Counter.sol",
  "compiler": {
    "name": "solc",
    "version": "0.5.0+commit.1d4f565a.Emscripten.clang"
  },
  "schemaVersion": "3.0.1",
  "updatedAt": "2022-03-18T09:25:33.908Z",
  "devdoc": {
    "methods": {}
  },
  "userdoc": {
    "methods": {}
  }
}