{
  "contractName": "HandleFloatContract",
  "abi": [
    {
      "constant": false,
      "inputs": [
        {
          "components": [
            {
              "name": "token",
              "type": "string"
            },
            {
              "name": "number",
              "type": "uint256"
            }
          ],
          "name": "testStructToAdd",
          "type": "tuple"
        }
      ],
      "name": "handleFloat",
      "outputs": [
        {
          "name": "",
          "type": "bool"
        }
      ],
      "payable": false,
      "stateMutability": "nonpayable",
      "type": "function"
    },
    {
      "constant": true,
      "inputs": [],
      "name": "getTestStructs",
      "outputs": [
        {
          "components": [
            {
              "name": "token",
              "type": "string"
            },
            {
              "name": "number",
              "type": "uint256"
            }
          ],
          "name": "",
          "type": "tuple[]"
        }
      ],
      "payable": false,
      "stateMutability": "view",
      "type": "function"
    },
    {
      "constant": true,
      "inputs": [
        {
          "name": "number",
          "type": "uint256"
        }
      ],
      "name": "powNumber",
      "outputs": [
        {
          "name": "",
          "type": "uint256"
        }
      ],
      "payable": false,
      "stateMutability": "pure",
      "type": "function"
    },
    {
      "constant": true,
      "inputs": [
        {
          "name": "number",
          "type": "uint256"
        }
      ],
      "name": "divideByTen",
      "outputs": [
        {
          "name": "",
          "type": "uint256"
        }
      ],
      "payable": false,
      "stateMutability": "pure",
      "type": "function"
    }
  ],
  "bytecode": "0x608060405234801561001057600080fd5b50610735806100206000396000f3fe6080604052600436106100615763ffffffff7c01000000000000000000000000000000000000000000000000000000006000350416632fe328b181146100665780637ca3e4df1461009c5780638f120c9a146100bc578063da48369a146100e9575b600080fd5b34801561007257600080fd5b5061008661008136600461051d565b61010b565b6040516100939190610649565b60405180910390f35b3480156100a857600080fd5b506100866100b736600461051d565b610116565b3480156100c857600080fd5b506100dc6100d73660046104e0565b61011d565b6040516100939190610635565b3480156100f557600080fd5b506100fe61021a565b6040516100939190610624565b6402540be400900490565b600a900a90565b600080600183600001516040518082805190602001908083835b602083106101565780518252601f199092019160209182019101610137565b51815160209384036101000a6000190180199092169116179052920194855250604051938490038101909320865180519195506101989486945001915061030e565b5060208301516402540be400026001808301919091556000805480830180835591805283549192849260029283027f290decd9548b62a8d60345a988386fc84ba6bc95484008f6362f93160ef3e56301926102079284928692610100928216159290920260001901160461038c565b5060019182015490820155949350505050565b60606000805480602002602001604051908101604052809291908181526020016000905b828210156103045760008481526020908190206040805160028681029093018054600181161561010002600019011693909304601f8101859004909402810160609081018352918101848152909384928491908401828280156102e25780601f106102b7576101008083540402835291602001916102e2565b820191906000526020600020905b8154815290600101906020018083116102c557829003601f168201915b505050505081526020016001820154815250508152602001906001019061023e565b5050505090505b90565b828054600181600116156101000203166002900490600052602060002090601f016020900481019282601f1061034f57805160ff191683800117855561037c565b8280016001018555821561037c579182015b8281111561037c578251825591602001919060010190610361565b50610388929150610401565b5090565b828054600181600116156101000203166002900490600052602060002090601f016020900481019282601f106103c5578054855561037c565b8280016001018555821561037c57600052602060002091601f016020900482015b8281111561037c5782548255916001019190600101906103e6565b61030b91905b808211156103885760008155600101610407565b6000601f8201831361042c57600080fd5b813561043f61043a8261067e565b610657565b9150808252602083016020830185838301111561045b57600080fd5b6104668382846106b5565b50505092915050565b60006040828403121561048157600080fd5b61048b6040610657565b9050813567ffffffffffffffff8111156104a457600080fd5b6104b08482850161041b565b82525060206104c1848483016104cd565b60208301525092915050565b60006104d9823561030b565b9392505050565b6000602082840312156104f257600080fd5b813567ffffffffffffffff81111561050957600080fd5b6105158482850161046f565b949350505050565b60006020828403121561052f57600080fd5b600061051584846104cd565b6000610546826106ac565b8084526020840193508360208202850161055f856106a6565b60005b8481101561059657838303885261057a8383516105e6565b9250610585826106a6565b602098909801979150600101610562565b50909695505050505050565b6105ab816106b0565b82525050565b60006105bc826106ac565b8084526105d08160208601602086016106c1565b6105d9816106f1565b9093016020019392505050565b80516040808452600091908401906105fe82826105b1565b9150506020830151610613602086018261061b565b509392505050565b6105ab8161030b565b602080825281016104d9818461053b565b6020810161064382846105a2565b92915050565b60208101610643828461061b565b60405181810167ffffffffffffffff8111828210171561067657600080fd5b604052919050565b600067ffffffffffffffff82111561069557600080fd5b506020601f91909101601f19160190565b60200190565b5190565b151590565b82818337506000910152565b60005b838110156106dc5781810151838201526020016106c4565b838111156106eb576000848401525b50505050565b601f01601f19169056fea265627a7a723058204d70009d10dbd5c468018c9cbbf6f16a8a43c3d7be3c7746ee81979c4235e92b6c6578706572696d656e74616cf50037",
  "source": "// SPDX-License-Identifier: MIT\r\npragma solidity >=0.4.22 <0.9.0;\r\npragma experimental ABIEncoderV2;\r\n\r\ncontract TestContract {\r\n    struct TestStruct {\r\n        string token;\r\n        string name;\r\n        TestStructArgument Argument;\r\n        bool isBlocked;\r\n    }\r\n\r\n    struct TestStructArgument {\r\n        string token;\r\n        string[] arrayElements;\r\n        string field1;\r\n        string field2;\r\n        string field3;\r\n        Array array;\r\n    }\r\n\r\n    struct Array {\r\n        string token;\r\n        string comment;\r\n    }\r\n\r\n    //[\"0xA27eEfe6b5180F085CE6Aa5D6DaA81d1c35153C0\", \"Test\", [\"0xA27eEfe6b5180F085CE6Aa5D6DaA81d1c35153C0\",[\"Array element 1\", \"array element 2\"], \"Field1\",\"Field2\",\"Field3\",[\"0xA27eEfe6b5180F085CE6Aa5D6DaA81d1c35153C0\", \"Comment\"]], true]\r\n    TestStruct[] testStructs;\r\n    mapping(string => TestStruct) internal mapTestStruct;\r\n\r\n    function addTestStruct(TestStruct memory testStructToAdd) public {\r\n        TestStruct storage testStruct = mapTestStruct[testStructToAdd.token];\r\n\r\n        testStruct.token = testStructToAdd.token;\r\n        testStruct.name = testStructToAdd.name;\r\n        testStruct.isBlocked = testStructToAdd.isBlocked;\r\n        testStruct.Argument = testStructToAdd.Argument;\r\n        for (\r\n            uint256 i = 0;\r\n            i < testStructToAdd.Argument.arrayElements.length;\r\n            i++\r\n        ) {\r\n            testStruct.Argument.arrayElements.push(\r\n                testStructToAdd.Argument.arrayElements[i]\r\n            );\r\n        }\r\n\r\n        testStructs.push(testStruct);\r\n    }\r\n\r\n    function getTestStructs() public view returns (TestStruct[] memory) {\r\n        return testStructs;\r\n    }\r\n\r\n    function getTestStructLength() public view returns (uint256) {\r\n        return testStructs.length;\r\n    }\r\n}\r\n\r\ncontract HandleFloatContract {\r\n    struct TestStruct {\r\n        string token;\r\n        uint256 number;\r\n    }\r\n\r\n    TestStruct[] testStructs;\r\n    mapping(string => TestStruct) internal mapTestStruct;\r\n    uint256 constant tenTh = 10**10;\r\n\r\n    function handleFloat(TestStruct memory testStructToAdd)\r\n        public\r\n        returns (bool)\r\n    {\r\n        TestStruct storage testStruct = mapTestStruct[testStructToAdd.token];\r\n\r\n        testStruct.token = testStructToAdd.token;\r\n        testStruct.number = tenTh * testStructToAdd.number;\r\n        testStructs.push(testStruct);\r\n\r\n        return true;\r\n    }\r\n\r\n    function getTestStructs() public view returns (TestStruct[] memory) {\r\n        return testStructs;\r\n    }\r\n\r\n    function powNumber(uint256 number) public pure returns (uint256) {\r\n        return number**10;\r\n    }\r\n\r\n    function divideByTen(uint256 number) public pure returns (uint256) {\r\n        return number / tenTh;\r\n    }\r\n}\r\n",
  "sourcePath": "C:/Users/skott/Desktop/Projects/_Blockchain/Projects/MoviesFE/contracts/Test.sol",
  "compiler": {
    "name": "solc",
    "version": "0.5.0+commit.1d4f565a.Emscripten.clang"
  },
  "schemaVersion": "3.0.1",
  "updatedAt": "2022-03-18T04:46:19.822Z",
  "devdoc": {
    "methods": {}
  },
  "userdoc": {
    "methods": {}
  }
}