{
  "contractName": "Interaction",
  "abi": [
    {
      "constant": false,
      "inputs": [
        {
          "name": "_counter",
          "type": "address"
        }
      ],
      "name": "setCounterAddr",
      "outputs": [],
      "payable": true,
      "stateMutability": "payable",
      "type": "function"
    },
    {
      "constant": true,
      "inputs": [],
      "name": "getCount",
      "outputs": [
        {
          "name": "",
          "type": "uint256"
        }
      ],
      "payable": false,
      "stateMutability": "view",
      "type": "function"
    }
  ],
  "bytecode": "0x608060405234801561001057600080fd5b506101f4806100206000396000f3fe60806040526004361061004c576000357c0100000000000000000000000000000000000000000000000000000000900463ffffffff168063a87d942c14610051578063ec39b4291461007c575b600080fd5b34801561005d57600080fd5b506100666100c0565b6040518082815260200191505060405180910390f35b6100be6004803603602081101561009257600080fd5b81019080803573ffffffffffffffffffffffffffffffffffffffff169060200190929190505050610185565b005b60008060009054906101000a900473ffffffffffffffffffffffffffffffffffffffff1673ffffffffffffffffffffffffffffffffffffffff166306661abd6040518163ffffffff167c010000000000000000000000000000000000000000000000000000000002815260040160206040518083038186803b15801561014557600080fd5b505afa158015610159573d6000803e3d6000fd5b505050506040513d602081101561016f57600080fd5b8101908080519060200190929190505050905090565b806000806101000a81548173ffffffffffffffffffffffffffffffffffffffff021916908373ffffffffffffffffffffffffffffffffffffffff1602179055505056fea165627a7a723058208e18686447acf6e56977346fb86ec7eb66534111149e9705038f62f75d95e2460029",
  "source": "// SPDX-License-Identifier: MIT\r\npragma solidity >=0.4.22 <0.9.0;\r\n\r\ninterface ICounter {\r\n    function count() external view returns (uint256);\r\n\r\n    function increment() external;\r\n}\r\n\r\ncontract Interaction {\r\n    address counterAddr;\r\n\r\n    function setCounterAddr(address _counter) public payable {\r\n        counterAddr = _counter;\r\n    }\r\n\r\n    function getCount() external view returns (uint256) {\r\n        return ICounter(counterAddr).count();\r\n    }\r\n}\r\n",
  "sourcePath": "C:/Users/skott/Desktop/Projects/_Blockchain/Projects/MoviesFE/contracts/Interaction.sol",
  "compiler": {
    "name": "solc",
    "version": "0.5.0+commit.1d4f565a.Emscripten.clang"
  },
  "schemaVersion": "3.0.1",
  "updatedAt": "2022-03-14T05:01:52.339Z",
  "devdoc": {
    "methods": {}
  },
  "userdoc": {
    "methods": {}
  }
}