{
  "contractName": "MockedTest",
  "abi": [
    {
      "constant": true,
      "inputs": [
        {
          "name": "token",
          "type": "string"
        }
      ],
      "name": "getTestStructByToken",
      "outputs": [
        {
          "components": [
            {
              "name": "token",
              "type": "string"
            },
            {
              "name": "name",
              "type": "string"
            },
            {
              "components": [
                {
                  "name": "token",
                  "type": "string"
                },
                {
                  "name": "arrayElements",
                  "type": "string[]"
                },
                {
                  "name": "field1",
                  "type": "string"
                },
                {
                  "name": "field2",
                  "type": "string"
                },
                {
                  "name": "field3",
                  "type": "string"
                },
                {
                  "components": [
                    {
                      "name": "token",
                      "type": "string"
                    },
                    {
                      "name": "comment",
                      "type": "string"
                    }
                  ],
                  "name": "array",
                  "type": "tuple"
                }
              ],
              "name": "Argument",
              "type": "tuple"
            },
            {
              "name": "isBlocked",
              "type": "bool"
            }
          ],
          "name": "",
          "type": "tuple"
        }
      ],
      "payable": false,
      "stateMutability": "view",
      "type": "function"
    },
    {
      "constant": true,
      "inputs": [],
      "name": "getTestStructLength",
      "outputs": [
        {
          "name": "",
          "type": "uint256"
        }
      ],
      "payable": false,
      "stateMutability": "view",
      "type": "function"
    },
    {
      "constant": true,
      "inputs": [],
      "name": "getTestStructs",
      "outputs": [
        {
          "components": [
            {
              "name": "token",
              "type": "string"
            },
            {
              "name": "name",
              "type": "string"
            },
            {
              "components": [
                {
                  "name": "token",
                  "type": "string"
                },
                {
                  "name": "arrayElements",
                  "type": "string[]"
                },
                {
                  "name": "field1",
                  "type": "string"
                },
                {
                  "name": "field2",
                  "type": "string"
                },
                {
                  "name": "field3",
                  "type": "string"
                },
                {
                  "components": [
                    {
                      "name": "token",
                      "type": "string"
                    },
                    {
                      "name": "comment",
                      "type": "string"
                    }
                  ],
                  "name": "array",
                  "type": "tuple"
                }
              ],
              "name": "Argument",
              "type": "tuple"
            },
            {
              "name": "isBlocked",
              "type": "bool"
            }
          ],
          "name": "",
          "type": "tuple[]"
        }
      ],
      "payable": false,
      "stateMutability": "view",
      "type": "function"
    },
    {
      "constant": false,
      "inputs": [
        {
          "components": [
            {
              "name": "token",
              "type": "string"
            },
            {
              "name": "name",
              "type": "string"
            },
            {
              "components": [
                {
                  "name": "token",
                  "type": "string"
                },
                {
                  "name": "arrayElements",
                  "type": "string[]"
                },
                {
                  "name": "field1",
                  "type": "string"
                },
                {
                  "name": "field2",
                  "type": "string"
                },
                {
                  "name": "field3",
                  "type": "string"
                },
                {
                  "components": [
                    {
                      "name": "token",
                      "type": "string"
                    },
                    {
                      "name": "comment",
                      "type": "string"
                    }
                  ],
                  "name": "array",
                  "type": "tuple"
                }
              ],
              "name": "Argument",
              "type": "tuple"
            },
            {
              "name": "isBlocked",
              "type": "bool"
            }
          ],
          "name": "testStructToAdd",
          "type": "tuple"
        }
      ],
      "name": "addTestStruct",
      "outputs": [],
      "payable": false,
      "stateMutability": "nonpayable",
      "type": "function"
    },
    {
      "constant": true,
      "inputs": [
        {
          "name": "token",
          "type": "string"
        }
      ],
      "name": "mock_getTestStructByToken",
      "outputs": [
        {
          "components": [
            {
              "name": "token",
              "type": "string"
            },
            {
              "name": "name",
              "type": "string"
            },
            {
              "components": [
                {
                  "name": "token",
                  "type": "string"
                },
                {
                  "name": "arrayElements",
                  "type": "string[]"
                },
                {
                  "name": "field1",
                  "type": "string"
                },
                {
                  "name": "field2",
                  "type": "string"
                },
                {
                  "name": "field3",
                  "type": "string"
                },
                {
                  "components": [
                    {
                      "name": "token",
                      "type": "string"
                    },
                    {
                      "name": "comment",
                      "type": "string"
                    }
                  ],
                  "name": "array",
                  "type": "tuple"
                }
              ],
              "name": "Argument",
              "type": "tuple"
            },
            {
              "name": "isBlocked",
              "type": "bool"
            }
          ],
          "name": "",
          "type": "tuple"
        }
      ],
      "payable": false,
      "stateMutability": "view",
      "type": "function"
    },
    {
      "constant": true,
      "inputs": [
        {
          "name": "token",
          "type": "string"
        }
      ],
      "name": "mock_testStructExists",
      "outputs": [
        {
          "name": "",
          "type": "bool"
        }
      ],
      "payable": false,
      "stateMutability": "view",
      "type": "function"
    }
  ],
  "bytecode": "0x608060405234801561001057600080fd5b506122b3806100206000396000f3fe6080604052600436106100775763ffffffff7c01000000000000000000000000000000000000000000000000000000006000350416631069437a811461007c5780637ba64233146100b2578063add3c450146100d4578063d7f9f0ee146100f4578063da48369a14610121578063f44b3df314610143575b600080fd5b34801561008857600080fd5b5061009c610097366004611eb1565b610165565b6040516100a99190612195565b60405180910390f35b3480156100be57600080fd5b506100c76107a7565b6040516100a991906121a6565b3480156100e057600080fd5b5061009c6100ef366004611eb1565b6107ae565b34801561010057600080fd5b5061011461010f366004611eb1565b610e32565b6040516100a99190612181565b34801561012d57600080fd5b50610136610f30565b6040516100a99190612170565b34801561014f57600080fd5b5061016361015e366004611eee565b611551565b005b61016d6118e0565b60006001836040518082805190602001908083835b602083106101a15780518252601f199092019160209182019101610182565b518151600019602094850361010090810a82019283169219939093169190911790925294909201968752604080519788900382018820805460a0601f600260018416159099029096019091169690960493840183900490920288018501905260808701828152909750879550869450928592508401828280156102655780601f1061023a57610100808354040283529160200191610265565b820191906000526020600020905b81548152906001019060200180831161024857829003601f168201915b50505050508152602001600182018054600181600116156101000203166002900480601f0160208091040260200160405190810160405280929190818152602001828054600181600116156101000203166002900480156103075780601f106102dc57610100808354040283529160200191610307565b820191906000526020600020905b8154815290600101906020018083116102ea57829003601f168201915b5050509183525050604080516002848101805460e06020601f600019610100600186161502019093169490940491820184900484028501810190955260c084018181529290950194929390928492918491908401828280156103aa5780601f1061037f576101008083540402835291602001916103aa565b820191906000526020600020905b81548152906001019060200180831161038d57829003601f168201915b5050505050815260200160018201805480602002602001604051908101604052809291908181526020016000905b828210156104835760008481526020908190208301805460408051601f600260001961010060018716150201909416939093049283018590048502810185019091528181529283018282801561046f5780601f106104445761010080835404028352916020019161046f565b820191906000526020600020905b81548152906001019060200180831161045257829003601f168201915b5050505050815260200190600101906103d8565b50505090825250600282810180546040805160206001841615610100026000190190931694909404601f810183900483028501830190915280845293810193908301828280156105145780601f106104e957610100808354040283529160200191610514565b820191906000526020600020905b8154815290600101906020018083116104f757829003601f168201915b505050918352505060038201805460408051602060026001851615610100026000190190941693909304601f81018490048402820184019092528181529382019392918301828280156105a85780601f1061057d576101008083540402835291602001916105a8565b820191906000526020600020905b81548152906001019060200180831161058b57829003601f168201915b505050918352505060048201805460408051602060026001851615610100026000190190941693909304601f810184900484028201840190925281815293820193929183018282801561063c5780601f106106115761010080835404028352916020019161063c565b820191906000526020600020905b81548152906001019060200180831161061f57829003601f168201915b50505091835250506040805160058401805460606020601f60026000196101006001871615020190941693909304928301819004810285018201865294840182815294909501949293919284929184918401828280156106dd5780601f106106b2576101008083540402835291602001916106dd565b820191906000526020600020905b8154815290600101906020018083116106c057829003601f168201915b50505050508152602001600182018054600181600116156101000203166002900480601f01602080910402602001604051908101604052809291908181526020018280546001816001161561010002031660029004801561077f5780601f106107545761010080835404028352916020019161077f565b820191906000526020600020905b81548152906001019060200180831161076257829003601f168201915b5050509190925250505090525081526009919091015460ff1615156020909101529392505050565b6000545b90565b6107b66118e0565b6107be6118e0565b6001836040518082805190602001908083835b602083106107f05780518252601f1990920191602091820191016107d1565b518151600019602094850361010090810a82019283169219939093169190911790925294909201968752604080519788900382018820805460a0601f600260018416159099029096019091169690960493840183900490920288018501905260808701828152909550869450928592508401828280156108b15780601f10610886576101008083540402835291602001916108b1565b820191906000526020600020905b81548152906001019060200180831161089457829003601f168201915b50505050508152602001600182018054600181600116156101000203166002900480601f0160208091040260200160405190810160405280929190818152602001828054600181600116156101000203166002900480156109535780601f1061092857610100808354040283529160200191610953565b820191906000526020600020905b81548152906001019060200180831161093657829003601f168201915b5050509183525050604080516002848101805460e06020601f600019610100600186161502019093169490940491820184900484028501810190955260c084018181529290950194929390928492918491908401828280156109f65780601f106109cb576101008083540402835291602001916109f6565b820191906000526020600020905b8154815290600101906020018083116109d957829003601f168201915b5050505050815260200160018201805480602002602001604051908101604052809291908181526020016000905b82821015610acf5760008481526020908190208301805460408051601f6002600019610100600187161502019094169390930492830185900485028101850190915281815292830182828015610abb5780601f10610a9057610100808354040283529160200191610abb565b820191906000526020600020905b815481529060010190602001808311610a9e57829003601f168201915b505050505081526020019060010190610a24565b50505090825250600282810180546040805160206001841615610100026000190190931694909404601f81018390048302850183019091528084529381019390830182828015610b605780601f10610b3557610100808354040283529160200191610b60565b820191906000526020600020905b815481529060010190602001808311610b4357829003601f168201915b505050918352505060038201805460408051602060026001851615610100026000190190941693909304601f8101849004840282018401909252818152938201939291830182828015610bf45780601f10610bc957610100808354040283529160200191610bf4565b820191906000526020600020905b815481529060010190602001808311610bd757829003601f168201915b505050918352505060048201805460408051602060026001851615610100026000190190941693909304601f8101849004840282018401909252818152938201939291830182828015610c885780601f10610c5d57610100808354040283529160200191610c88565b820191906000526020600020905b815481529060010190602001808311610c6b57829003601f168201915b50505091835250506040805160058401805460606020601f6002600019610100600187161502019094169390930492830181900481028501820186529484018281529490950194929391928492918491840182828015610d295780601f10610cfe57610100808354040283529160200191610d29565b820191906000526020600020905b815481529060010190602001808311610d0c57829003601f168201915b50505050508152602001600182018054600181600116156101000203166002900480601f016020809104026020016040519081016040528092919081815260200182805460018160011615610100020316600290048015610dcb5780601f10610da057610100808354040283529160200191610dcb565b820191906000526020600020905b815481529060010190602001808311610dae57829003601f168201915b50505091909252505050905250815260099182015460ff161515602091820152858352604080518082019091529182527f4d6f636b206e616d6500000000000000000000000000000000000000000000008282015282015260016060820152915050919050565b6000610e3c6118e0565b610e45836107ae565b9050826040516020018082805190602001908083835b60208310610e7a5780518252601f199092019160209182019101610e5b565b6001836020036101000a0380198251168184511680821785525050505050509050019150506040516020818303038152906040528051906020012081600001516040516020018082805190602001908083835b60208310610eec5780518252601f199092019160209182019101610ecd565b6001836020036101000a0380198251168184511680821785525050505050509050019150506040516020818303038152906040528051906020012014915050919050565b60606000805480602002602001604051908101604052809291908181526020016000905b8282101561154857600084815260209081902060408051600a8602909201805460026001821615610100026000190190911604601f8101859004909402830160a09081019092526080830184815292939092849290918491840182828015610ffd5780601f10610fd257610100808354040283529160200191610ffd565b820191906000526020600020905b815481529060010190602001808311610fe057829003601f168201915b50505050508152602001600182018054600181600116156101000203166002900480601f01602080910402602001604051908101604052809291908181526020018280546001816001161561010002031660029004801561109f5780601f106110745761010080835404028352916020019161109f565b820191906000526020600020905b81548152906001019060200180831161108257829003601f168201915b5050509183525050604080516002848101805460e06020601f600019610100600186161502019093169490940491820184900484028501810190955260c084018181529290950194929390928492918491908401828280156111425780601f1061111757610100808354040283529160200191611142565b820191906000526020600020905b81548152906001019060200180831161112557829003601f168201915b5050505050815260200160018201805480602002602001604051908101604052809291908181526020016000905b8282101561121b5760008481526020908190208301805460408051601f60026000196101006001871615020190941693909304928301859004850281018501909152818152928301828280156112075780601f106111dc57610100808354040283529160200191611207565b820191906000526020600020905b8154815290600101906020018083116111ea57829003601f168201915b505050505081526020019060010190611170565b50505090825250600282810180546040805160206001841615610100026000190190931694909404601f810183900483028501830190915280845293810193908301828280156112ac5780601f10611281576101008083540402835291602001916112ac565b820191906000526020600020905b81548152906001019060200180831161128f57829003601f168201915b505050918352505060038201805460408051602060026001851615610100026000190190941693909304601f81018490048402820184019092528181529382019392918301828280156113405780601f1061131557610100808354040283529160200191611340565b820191906000526020600020905b81548152906001019060200180831161132357829003601f168201915b505050918352505060048201805460408051602060026001851615610100026000190190941693909304601f81018490048402820184019092528181529382019392918301828280156113d45780601f106113a9576101008083540402835291602001916113d4565b820191906000526020600020905b8154815290600101906020018083116113b757829003601f168201915b50505091835250506040805160058401805460606020601f60026000196101006001871615020190941693909304928301819004810285018201865294840182815294909501949293919284929184918401828280156114755780601f1061144a57610100808354040283529160200191611475565b820191906000526020600020905b81548152906001019060200180831161145857829003601f168201915b50505050508152602001600182018054600181600116156101000203166002900480601f0160208091040260200160405190810160405280929190818152602001828054600181600116156101000203166002900480156115175780601f106114ec57610100808354040283529160200191611517565b820191906000526020600020905b8154815290600101906020018083116114fa57829003601f168201915b5050509190925250505090525081526009919091015460ff1615156020918201529082526001929092019101610f54565b50505050905090565b6000600182600001516040518082805190602001908083835b602083106115895780518252601f19909201916020918201910161156a565b51815160209384036101000a6000190180199092169116179052920194855250604051938490038101909320855180519195506115cb94869450019150611910565b5060208083015180516115e49260018501920190611910565b50606082015160098201805460ff1916911515919091179055604082015180518051600284019161161a91839160200190611910565b506020828101518051611633926001850192019061198e565b506040820151805161164f916002840191602090910190611910565b506060820151805161166b916003840191602090910190611910565b5060808201518051611687916004840191602090910190611910565b5060a08201518051805160058401916116a591839160200190611910565b5060208281015180516116be9260018501920190611910565b50600093505050505b8260400151602001515181101561172c576040830151602001518051600384019190839081106116f357fe5b602090810290910181015182546001810180855560009485529383902082516117229491909201920190611910565b50506001016116c7565b5060008054600181810180845592805283548492600a027f290decd9548b62a8d60345a988386fc84ba6bc95484008f6362f93160ef3e56301916117869183918591600261010092821615929092026000190116046119e7565b50600182018160010190805460018160011615610100020316600290046117ae9291906119e7565b50600282810180549091838101916117da918391859160001961010060018416150201909116046119e7565b50600182810180546117ef9284019190611a5c565b50600282810180546118149284810192916000196101006001831615020116046119e7565b506003820181600301908054600181600116156101000203166002900461183c9291906119e7565b50600482018160040190805460018160011615610100020316600290046118649291906119e7565b506005828101805490918301906118919082908490600260001961010060018416150201909116046119e7565b50600182018160010190805460018160011615610100020316600290046118b99291906119e7565b5050505060099283015491909201805460ff191660ff909216151591909117905550505050565b610140604051908101604052806060815260200160608152602001611903611aba565b8152600060209091015290565b828054600181600116156101000203166002900490600052602060002090601f016020900481019282601f1061195157805160ff191683800117855561197e565b8280016001018555821561197e579182015b8281111561197e578251825591602001919060010190611963565b5061198a929150611af6565b5090565b8280548282559060005260206000209081019282156119db579160200282015b828111156119db57825180516119cb918491602090910190611910565b50916020019190600101906119ae565b5061198a929150611b10565b828054600181600116156101000203166002900490600052602060002090601f016020900481019282601f10611a20578054855561197e565b8280016001018555821561197e57600052602060002091601f016020900482015b8281111561197e578254825591600101919060010190611a41565b8280548282559060005260206000209081019282156119db5760005260206000209182015b828111156119db5782829080546001816001161561010002031660029004611aaa9291906119e7565b5091600101919060010190611a81565b60e0604051908101604052806060815260200160608152602001606081526020016060815260200160608152602001611af1611b33565b905290565b6107ab91905b8082111561198a5760008155600101611afc565b6107ab91905b8082111561198a576000611b2a8282611b4a565b50600101611b16565b604080518082019091526060808252602082015290565b50805460018160011615610100020316600290046000825580601f10611b705750611b8e565b601f016020900490600052602060002090810190611b8e9190611af6565b50565b6000601f82018313611ba257600080fd5b8135611bb5611bb0826121db565b6121b4565b81815260209384019390925082018360005b83811015611bf35781358601611bdd8882611c10565b8452506020928301929190910190600101611bc7565b5050505092915050565b6000611c09823561222e565b9392505050565b6000601f82018313611c2157600080fd5b8135611c2f611bb0826121fc565b91508082526020830160208301858383011115611c4b57600080fd5b611c56838284612233565b50505092915050565b600060408284031215611c7157600080fd5b611c7b60406121b4565b9050813567ffffffffffffffff811115611c9457600080fd5b611ca084828501611c10565b825250602082013567ffffffffffffffff811115611cbd57600080fd5b611cc984828501611c10565b60208301525092915050565b600060c08284031215611ce757600080fd5b611cf160c06121b4565b9050813567ffffffffffffffff811115611d0a57600080fd5b611d1684828501611c10565b825250602082013567ffffffffffffffff811115611d3357600080fd5b611d3f84828501611b91565b602083015250604082013567ffffffffffffffff811115611d5f57600080fd5b611d6b84828501611c10565b604083015250606082013567ffffffffffffffff811115611d8b57600080fd5b611d9784828501611c10565b606083015250608082013567ffffffffffffffff811115611db757600080fd5b611dc384828501611c10565b60808301525060a082013567ffffffffffffffff811115611de357600080fd5b611def84828501611c5f565b60a08301525092915050565b600060808284031215611e0d57600080fd5b611e1760806121b4565b9050813567ffffffffffffffff811115611e3057600080fd5b611e3c84828501611c10565b825250602082013567ffffffffffffffff811115611e5957600080fd5b611e6584828501611c10565b602083015250604082013567ffffffffffffffff811115611e8557600080fd5b611e9184828501611cd5565b6040830152506060611ea584828501611bfd565b60608301525092915050565b600060208284031215611ec357600080fd5b813567ffffffffffffffff811115611eda57600080fd5b611ee684828501611c10565b949350505050565b600060208284031215611f0057600080fd5b813567ffffffffffffffff811115611f1757600080fd5b611ee684828501611dfb565b6000611f2e8261222a565b80845260208401935083602082028501611f4785612224565b60005b84811015611f7e578383038852611f62838351611ff4565b9250611f6d82612224565b602098909801979150600101611f4a565b50909695505050505050565b6000611f958261222a565b80845260208401935083602082028501611fae85612224565b60005b84811015611f7e578383038852611fc98383516120fe565b9250611fd482612224565b602098909801979150600101611fb1565b611fee8161222e565b82525050565b6000611fff8261222a565b80845261201381602086016020860161223f565b61201c8161226f565b9093016020019392505050565b80516040808452600091908401906120418282611ff4565b9150506020830151848203602086015261205b8282611ff4565b95945050505050565b805160c08084526000919084019061207c8282611ff4565b915050602083015184820360208601526120968282611f23565b915050604083015184820360408601526120b08282611ff4565b915050606083015184820360608601526120ca8282611ff4565b915050608083015184820360808601526120e48282611ff4565b91505060a083015184820360a086015261205b8282612029565b80516080808452600091908401906121168282611ff4565b915050602083015184820360208601526121308282611ff4565b9150506040830151848203604086015261214a8282612064565b915050606083015161215f6060860182611fe5565b509392505050565b611fee816107ab565b60208082528101611c098184611f8a565b6020810161218f8284611fe5565b92915050565b60208082528101611c0981846120fe565b6020810161218f8284612167565b60405181810167ffffffffffffffff811182821017156121d357600080fd5b604052919050565b600067ffffffffffffffff8211156121f257600080fd5b5060209081020190565b600067ffffffffffffffff82111561221357600080fd5b506020601f91909101601f19160190565b60200190565b5190565b151590565b82818337506000910152565b60005b8381101561225a578181015183820152602001612242565b83811115612269576000848401525b50505050565b601f01601f19169056fea265627a7a7230582027dfa9cb4e95adcc59c92ce980b0ba22f030f693d35217ff0f4f4b270108b3d56c6578706572696d656e74616cf50037",
  "source": "// SPDX-License-Identifier: MIT\r\npragma solidity >=0.4.22 <0.9.0;\r\npragma experimental ABIEncoderV2;\r\n\r\nimport \"../Test.sol\";\r\n\r\ncontract MockedTest is Test {\r\n    function mock_getTestStructByToken(string memory token)\r\n        public\r\n        view\r\n        returns (TestStruct memory)\r\n    {\r\n        TestStruct memory testStruct = mapTestStruct[token];\r\n        testStruct.token = token;\r\n        testStruct.name = \"Mock name\";\r\n        testStruct.isBlocked = true;\r\n\r\n        return testStruct;\r\n    }\r\n\r\n    function mock_testStructExists(string memory token)\r\n        public\r\n        view\r\n        returns (bool)\r\n    {\r\n        TestStruct memory testStruct = mock_getTestStructByToken(token);\r\n\r\n        return\r\n            keccak256(abi.encodePacked(testStruct.token)) ==\r\n            keccak256(abi.encodePacked(token));\r\n    }\r\n}\r\n",
  "sourcePath": "C:/Users/skott/Desktop/Projects/_Blockchain/Projects/MoviesFE/contracts/mocks/MockedTest.sol",
  "compiler": {
    "name": "solc",
    "version": "0.5.0+commit.1d4f565a.Emscripten.clang"
  },
  "schemaVersion": "3.0.1",
  "updatedAt": "2022-03-21T18:50:35.297Z",
  "devdoc": {
    "methods": {}
  },
  "userdoc": {
    "methods": {}
  }
}