{
  "contractName": "MockedTest",
  "abi": [
    {
      "constant": true,
      "inputs": [
        {
          "name": "token",
          "type": "string"
        }
      ],
      "name": "getTestStructByToken",
      "outputs": [
        {
          "components": [
            {
              "name": "token",
              "type": "string"
            },
            {
              "name": "name",
              "type": "string"
            },
            {
              "components": [
                {
                  "name": "token",
                  "type": "string"
                },
                {
                  "name": "arrayElements",
                  "type": "string[]"
                },
                {
                  "name": "field1",
                  "type": "string"
                },
                {
                  "name": "field2",
                  "type": "string"
                },
                {
                  "name": "field3",
                  "type": "string"
                },
                {
                  "components": [
                    {
                      "name": "token",
                      "type": "string"
                    },
                    {
                      "name": "comment",
                      "type": "string"
                    }
                  ],
                  "name": "array",
                  "type": "tuple"
                }
              ],
              "name": "Argument",
              "type": "tuple"
            },
            {
              "name": "isBlocked",
              "type": "bool"
            }
          ],
          "name": "",
          "type": "tuple"
        }
      ],
      "payable": false,
      "stateMutability": "view",
      "type": "function"
    },
    {
      "constant": true,
      "inputs": [],
      "name": "getTestStructLength",
      "outputs": [
        {
          "name": "",
          "type": "uint256"
        }
      ],
      "payable": false,
      "stateMutability": "view",
      "type": "function"
    },
    {
      "constant": true,
      "inputs": [],
      "name": "getTestStructs",
      "outputs": [
        {
          "components": [
            {
              "name": "token",
              "type": "string"
            },
            {
              "name": "name",
              "type": "string"
            },
            {
              "components": [
                {
                  "name": "token",
                  "type": "string"
                },
                {
                  "name": "arrayElements",
                  "type": "string[]"
                },
                {
                  "name": "field1",
                  "type": "string"
                },
                {
                  "name": "field2",
                  "type": "string"
                },
                {
                  "name": "field3",
                  "type": "string"
                },
                {
                  "components": [
                    {
                      "name": "token",
                      "type": "string"
                    },
                    {
                      "name": "comment",
                      "type": "string"
                    }
                  ],
                  "name": "array",
                  "type": "tuple"
                }
              ],
              "name": "Argument",
              "type": "tuple"
            },
            {
              "name": "isBlocked",
              "type": "bool"
            }
          ],
          "name": "",
          "type": "tuple[]"
        }
      ],
      "payable": false,
      "stateMutability": "view",
      "type": "function"
    },
    {
      "constant": false,
      "inputs": [
        {
          "components": [
            {
              "name": "token",
              "type": "string"
            },
            {
              "name": "name",
              "type": "string"
            },
            {
              "components": [
                {
                  "name": "token",
                  "type": "string"
                },
                {
                  "name": "arrayElements",
                  "type": "string[]"
                },
                {
                  "name": "field1",
                  "type": "string"
                },
                {
                  "name": "field2",
                  "type": "string"
                },
                {
                  "name": "field3",
                  "type": "string"
                },
                {
                  "components": [
                    {
                      "name": "token",
                      "type": "string"
                    },
                    {
                      "name": "comment",
                      "type": "string"
                    }
                  ],
                  "name": "array",
                  "type": "tuple"
                }
              ],
              "name": "Argument",
              "type": "tuple"
            },
            {
              "name": "isBlocked",
              "type": "bool"
            }
          ],
          "name": "testStructToAdd",
          "type": "tuple"
        }
      ],
      "name": "addTestStruct",
      "outputs": [],
      "payable": false,
      "stateMutability": "nonpayable",
      "type": "function"
    },
    {
      "constant": true,
      "inputs": [
        {
          "name": "token",
          "type": "string"
        }
      ],
      "name": "mock_getTestStructByToken",
      "outputs": [
        {
          "components": [
            {
              "name": "token",
              "type": "string"
            },
            {
              "name": "name",
              "type": "string"
            },
            {
              "components": [
                {
                  "name": "token",
                  "type": "string"
                },
                {
                  "name": "arrayElements",
                  "type": "string[]"
                },
                {
                  "name": "field1",
                  "type": "string"
                },
                {
                  "name": "field2",
                  "type": "string"
                },
                {
                  "name": "field3",
                  "type": "string"
                },
                {
                  "components": [
                    {
                      "name": "token",
                      "type": "string"
                    },
                    {
                      "name": "comment",
                      "type": "string"
                    }
                  ],
                  "name": "array",
                  "type": "tuple"
                }
              ],
              "name": "Argument",
              "type": "tuple"
            },
            {
              "name": "isBlocked",
              "type": "bool"
            }
          ],
          "name": "",
          "type": "tuple"
        }
      ],
      "payable": false,
      "stateMutability": "view",
      "type": "function"
    }
  ],
  "bytecode": "0x608060405234801561001057600080fd5b5061216f806100206000396000f3fe60806040526004361061006c5763ffffffff7c01000000000000000000000000000000000000000000000000000000006000350416631069437a81146100715780637ba64233146100a7578063add3c450146100c9578063da48369a146100e9578063f44b3df31461010b575b600080fd5b34801561007d57600080fd5b5061009161008c366004611d7b565b61012d565b60405161009e919061204b565b60405180910390f35b3480156100b357600080fd5b506100bc61076f565b60405161009e919061205c565b3480156100d557600080fd5b506100916100e4366004611d7b565b610776565b3480156100f557600080fd5b506100fe610dfa565b60405161009e919061203a565b34801561011757600080fd5b5061012b610126366004611db8565b61141b565b005b6101356117aa565b60006001836040518082805190602001908083835b602083106101695780518252601f19909201916020918201910161014a565b518151600019602094850361010090810a82019283169219939093169190911790925294909201968752604080519788900382018820805460a0601f6002600184161590990290960190911696909604938401839004909202880185019052608087018281529097508795508694509285925084018282801561022d5780601f106102025761010080835404028352916020019161022d565b820191906000526020600020905b81548152906001019060200180831161021057829003601f168201915b50505050508152602001600182018054600181600116156101000203166002900480601f0160208091040260200160405190810160405280929190818152602001828054600181600116156101000203166002900480156102cf5780601f106102a4576101008083540402835291602001916102cf565b820191906000526020600020905b8154815290600101906020018083116102b257829003601f168201915b5050509183525050604080516002848101805460e06020601f600019610100600186161502019093169490940491820184900484028501810190955260c084018181529290950194929390928492918491908401828280156103725780601f1061034757610100808354040283529160200191610372565b820191906000526020600020905b81548152906001019060200180831161035557829003601f168201915b5050505050815260200160018201805480602002602001604051908101604052809291908181526020016000905b8282101561044b5760008481526020908190208301805460408051601f60026000196101006001871615020190941693909304928301859004850281018501909152818152928301828280156104375780601f1061040c57610100808354040283529160200191610437565b820191906000526020600020905b81548152906001019060200180831161041a57829003601f168201915b5050505050815260200190600101906103a0565b50505090825250600282810180546040805160206001841615610100026000190190931694909404601f810183900483028501830190915280845293810193908301828280156104dc5780601f106104b1576101008083540402835291602001916104dc565b820191906000526020600020905b8154815290600101906020018083116104bf57829003601f168201915b505050918352505060038201805460408051602060026001851615610100026000190190941693909304601f81018490048402820184019092528181529382019392918301828280156105705780601f1061054557610100808354040283529160200191610570565b820191906000526020600020905b81548152906001019060200180831161055357829003601f168201915b505050918352505060048201805460408051602060026001851615610100026000190190941693909304601f81018490048402820184019092528181529382019392918301828280156106045780601f106105d957610100808354040283529160200191610604565b820191906000526020600020905b8154815290600101906020018083116105e757829003601f168201915b50505091835250506040805160058401805460606020601f60026000196101006001871615020190941693909304928301819004810285018201865294840182815294909501949293919284929184918401828280156106a55780601f1061067a576101008083540402835291602001916106a5565b820191906000526020600020905b81548152906001019060200180831161068857829003601f168201915b50505050508152602001600182018054600181600116156101000203166002900480601f0160208091040260200160405190810160405280929190818152602001828054600181600116156101000203166002900480156107475780601f1061071c57610100808354040283529160200191610747565b820191906000526020600020905b81548152906001019060200180831161072a57829003601f168201915b5050509190925250505090525081526009919091015460ff1615156020909101529392505050565b6000545b90565b61077e6117aa565b6107866117aa565b6001836040518082805190602001908083835b602083106107b85780518252601f199092019160209182019101610799565b518151600019602094850361010090810a82019283169219939093169190911790925294909201968752604080519788900382018820805460a0601f600260018416159099029096019091169690960493840183900490920288018501905260808701828152909550869450928592508401828280156108795780601f1061084e57610100808354040283529160200191610879565b820191906000526020600020905b81548152906001019060200180831161085c57829003601f168201915b50505050508152602001600182018054600181600116156101000203166002900480601f01602080910402602001604051908101604052809291908181526020018280546001816001161561010002031660029004801561091b5780601f106108f05761010080835404028352916020019161091b565b820191906000526020600020905b8154815290600101906020018083116108fe57829003601f168201915b5050509183525050604080516002848101805460e06020601f600019610100600186161502019093169490940491820184900484028501810190955260c084018181529290950194929390928492918491908401828280156109be5780601f10610993576101008083540402835291602001916109be565b820191906000526020600020905b8154815290600101906020018083116109a157829003601f168201915b5050505050815260200160018201805480602002602001604051908101604052809291908181526020016000905b82821015610a975760008481526020908190208301805460408051601f6002600019610100600187161502019094169390930492830185900485028101850190915281815292830182828015610a835780601f10610a5857610100808354040283529160200191610a83565b820191906000526020600020905b815481529060010190602001808311610a6657829003601f168201915b5050505050815260200190600101906109ec565b50505090825250600282810180546040805160206001841615610100026000190190931694909404601f81018390048302850183019091528084529381019390830182828015610b285780601f10610afd57610100808354040283529160200191610b28565b820191906000526020600020905b815481529060010190602001808311610b0b57829003601f168201915b505050918352505060038201805460408051602060026001851615610100026000190190941693909304601f8101849004840282018401909252818152938201939291830182828015610bbc5780601f10610b9157610100808354040283529160200191610bbc565b820191906000526020600020905b815481529060010190602001808311610b9f57829003601f168201915b505050918352505060048201805460408051602060026001851615610100026000190190941693909304601f8101849004840282018401909252818152938201939291830182828015610c505780601f10610c2557610100808354040283529160200191610c50565b820191906000526020600020905b815481529060010190602001808311610c3357829003601f168201915b50505091835250506040805160058401805460606020601f6002600019610100600187161502019094169390930492830181900481028501820186529484018281529490950194929391928492918491840182828015610cf15780601f10610cc657610100808354040283529160200191610cf1565b820191906000526020600020905b815481529060010190602001808311610cd457829003601f168201915b50505050508152602001600182018054600181600116156101000203166002900480601f016020809104026020016040519081016040528092919081815260200182805460018160011615610100020316600290048015610d935780601f10610d6857610100808354040283529160200191610d93565b820191906000526020600020905b815481529060010190602001808311610d7657829003601f168201915b50505091909252505050905250815260099182015460ff161515602091820152858352604080518082019091529182527f4d6f636b206e616d6500000000000000000000000000000000000000000000008282015282015260016060820152915050919050565b60606000805480602002602001604051908101604052809291908181526020016000905b8282101561141257600084815260209081902060408051600a8602909201805460026001821615610100026000190190911604601f8101859004909402830160a09081019092526080830184815292939092849290918491840182828015610ec75780601f10610e9c57610100808354040283529160200191610ec7565b820191906000526020600020905b815481529060010190602001808311610eaa57829003601f168201915b50505050508152602001600182018054600181600116156101000203166002900480601f016020809104026020016040519081016040528092919081815260200182805460018160011615610100020316600290048015610f695780601f10610f3e57610100808354040283529160200191610f69565b820191906000526020600020905b815481529060010190602001808311610f4c57829003601f168201915b5050509183525050604080516002848101805460e06020601f600019610100600186161502019093169490940491820184900484028501810190955260c0840181815292909501949293909284929184919084018282801561100c5780601f10610fe15761010080835404028352916020019161100c565b820191906000526020600020905b815481529060010190602001808311610fef57829003601f168201915b5050505050815260200160018201805480602002602001604051908101604052809291908181526020016000905b828210156110e55760008481526020908190208301805460408051601f60026000196101006001871615020190941693909304928301859004850281018501909152818152928301828280156110d15780601f106110a6576101008083540402835291602001916110d1565b820191906000526020600020905b8154815290600101906020018083116110b457829003601f168201915b50505050508152602001906001019061103a565b50505090825250600282810180546040805160206001841615610100026000190190931694909404601f810183900483028501830190915280845293810193908301828280156111765780601f1061114b57610100808354040283529160200191611176565b820191906000526020600020905b81548152906001019060200180831161115957829003601f168201915b505050918352505060038201805460408051602060026001851615610100026000190190941693909304601f810184900484028201840190925281815293820193929183018282801561120a5780601f106111df5761010080835404028352916020019161120a565b820191906000526020600020905b8154815290600101906020018083116111ed57829003601f168201915b505050918352505060048201805460408051602060026001851615610100026000190190941693909304601f810184900484028201840190925281815293820193929183018282801561129e5780601f106112735761010080835404028352916020019161129e565b820191906000526020600020905b81548152906001019060200180831161128157829003601f168201915b50505091835250506040805160058401805460606020601f600260001961010060018716150201909416939093049283018190048102850182018652948401828152949095019492939192849291849184018282801561133f5780601f106113145761010080835404028352916020019161133f565b820191906000526020600020905b81548152906001019060200180831161132257829003601f168201915b50505050508152602001600182018054600181600116156101000203166002900480601f0160208091040260200160405190810160405280929190818152602001828054600181600116156101000203166002900480156113e15780601f106113b6576101008083540402835291602001916113e1565b820191906000526020600020905b8154815290600101906020018083116113c457829003601f168201915b5050509190925250505090525081526009919091015460ff1615156020918201529082526001929092019101610e1e565b50505050905090565b6000600182600001516040518082805190602001908083835b602083106114535780518252601f199092019160209182019101611434565b51815160209384036101000a600019018019909216911617905292019485525060405193849003810190932085518051919550611495948694500191506117da565b5060208083015180516114ae92600185019201906117da565b50606082015160098201805460ff191691151591909117905560408201518051805160028401916114e4918391602001906117da565b5060208281015180516114fd9260018501920190611858565b50604082015180516115199160028401916020909101906117da565b50606082015180516115359160038401916020909101906117da565b50608082015180516115519160048401916020909101906117da565b5060a082015180518051600584019161156f918391602001906117da565b50602082810151805161158892600185019201906117da565b50600093505050505b826040015160200151518110156115f6576040830151602001518051600384019190839081106115bd57fe5b602090810290910181015182546001810180855560009485529383902082516115ec94919092019201906117da565b5050600101611591565b5060008054600181810180845592805283548492600a027f290decd9548b62a8d60345a988386fc84ba6bc95484008f6362f93160ef3e56301916116509183918591600261010092821615929092026000190116046118b1565b50600182018160010190805460018160011615610100020316600290046116789291906118b1565b50600282810180549091838101916116a4918391859160001961010060018416150201909116046118b1565b50600182810180546116b99284019190611926565b50600282810180546116de9284810192916000196101006001831615020116046118b1565b50600382018160030190805460018160011615610100020316600290046117069291906118b1565b506004820181600401908054600181600116156101000203166002900461172e9291906118b1565b5060058281018054909183019061175b9082908490600260001961010060018416150201909116046118b1565b50600182018160010190805460018160011615610100020316600290046117839291906118b1565b5050505060099283015491909201805460ff191660ff909216151591909117905550505050565b6101406040519081016040528060608152602001606081526020016117cd611984565b8152600060209091015290565b828054600181600116156101000203166002900490600052602060002090601f016020900481019282601f1061181b57805160ff1916838001178555611848565b82800160010185558215611848579182015b8281111561184857825182559160200191906001019061182d565b506118549291506119c0565b5090565b8280548282559060005260206000209081019282156118a5579160200282015b828111156118a557825180516118959184916020909101906117da565b5091602001919060010190611878565b506118549291506119da565b828054600181600116156101000203166002900490600052602060002090601f016020900481019282601f106118ea5780548555611848565b8280016001018555821561184857600052602060002091601f016020900482015b8281111561184857825482559160010191906001019061190b565b8280548282559060005260206000209081019282156118a55760005260206000209182015b828111156118a557828290805460018160011615610100020316600290046119749291906118b1565b509160010191906001019061194b565b60e06040519081016040528060608152602001606081526020016060815260200160608152602001606081526020016119bb6119fd565b905290565b61077391905b8082111561185457600081556001016119c6565b61077391905b808211156118545760006119f48282611a14565b506001016119e0565b604080518082019091526060808252602082015290565b50805460018160011615610100020316600290046000825580601f10611a3a5750611a58565b601f016020900490600052602060002090810190611a5891906119c0565b50565b6000601f82018313611a6c57600080fd5b8135611a7f611a7a82612097565b612070565b81815260209384019390925082018360005b83811015611abd5781358601611aa78882611ada565b8452506020928301929190910190600101611a91565b5050505092915050565b6000611ad382356120ea565b9392505050565b6000601f82018313611aeb57600080fd5b8135611af9611a7a826120b8565b91508082526020830160208301858383011115611b1557600080fd5b611b208382846120ef565b50505092915050565b600060408284031215611b3b57600080fd5b611b456040612070565b9050813567ffffffffffffffff811115611b5e57600080fd5b611b6a84828501611ada565b825250602082013567ffffffffffffffff811115611b8757600080fd5b611b9384828501611ada565b60208301525092915050565b600060c08284031215611bb157600080fd5b611bbb60c0612070565b9050813567ffffffffffffffff811115611bd457600080fd5b611be084828501611ada565b825250602082013567ffffffffffffffff811115611bfd57600080fd5b611c0984828501611a5b565b602083015250604082013567ffffffffffffffff811115611c2957600080fd5b611c3584828501611ada565b604083015250606082013567ffffffffffffffff811115611c5557600080fd5b611c6184828501611ada565b606083015250608082013567ffffffffffffffff811115611c8157600080fd5b611c8d84828501611ada565b60808301525060a082013567ffffffffffffffff811115611cad57600080fd5b611cb984828501611b29565b60a08301525092915050565b600060808284031215611cd757600080fd5b611ce16080612070565b9050813567ffffffffffffffff811115611cfa57600080fd5b611d0684828501611ada565b825250602082013567ffffffffffffffff811115611d2357600080fd5b611d2f84828501611ada565b602083015250604082013567ffffffffffffffff811115611d4f57600080fd5b611d5b84828501611b9f565b6040830152506060611d6f84828501611ac7565b60608301525092915050565b600060208284031215611d8d57600080fd5b813567ffffffffffffffff811115611da457600080fd5b611db084828501611ada565b949350505050565b600060208284031215611dca57600080fd5b813567ffffffffffffffff811115611de157600080fd5b611db084828501611cc5565b6000611df8826120e6565b80845260208401935083602082028501611e11856120e0565b60005b84811015611e48578383038852611e2c838351611ebe565b9250611e37826120e0565b602098909801979150600101611e14565b50909695505050505050565b6000611e5f826120e6565b80845260208401935083602082028501611e78856120e0565b60005b84811015611e48578383038852611e93838351611fc8565b9250611e9e826120e0565b602098909801979150600101611e7b565b611eb8816120ea565b82525050565b6000611ec9826120e6565b808452611edd8160208601602086016120fb565b611ee68161212b565b9093016020019392505050565b8051604080845260009190840190611f0b8282611ebe565b91505060208301518482036020860152611f258282611ebe565b95945050505050565b805160c080845260009190840190611f468282611ebe565b91505060208301518482036020860152611f608282611ded565b91505060408301518482036040860152611f7a8282611ebe565b91505060608301518482036060860152611f948282611ebe565b91505060808301518482036080860152611fae8282611ebe565b91505060a083015184820360a0860152611f258282611ef3565b8051608080845260009190840190611fe08282611ebe565b91505060208301518482036020860152611ffa8282611ebe565b915050604083015184820360408601526120148282611f2e565b91505060608301516120296060860182611eaf565b509392505050565b611eb881610773565b60208082528101611ad38184611e54565b60208082528101611ad38184611fc8565b6020810161206a8284612031565b92915050565b60405181810167ffffffffffffffff8111828210171561208f57600080fd5b604052919050565b600067ffffffffffffffff8211156120ae57600080fd5b5060209081020190565b600067ffffffffffffffff8211156120cf57600080fd5b506020601f91909101601f19160190565b60200190565b5190565b151590565b82818337506000910152565b60005b838110156121165781810151838201526020016120fe565b83811115612125576000848401525b50505050565b601f01601f19169056fea265627a7a72305820e073ef40f0ae844092a7bc2c896d2d894b5997f5174b4d2fe0e0c2911371c7106c6578706572696d656e74616cf50037",
  "source": "// SPDX-License-Identifier: MIT\r\npragma solidity >=0.4.22 <0.9.0;\r\npragma experimental ABIEncoderV2;\r\n\r\nimport \"../Test.sol\";\r\n\r\ncontract MockedTest is Test {\r\n    function mock_getTestStructByToken(string memory token)\r\n        public\r\n        view\r\n        returns (TestStruct memory)\r\n    {\r\n        TestStruct memory testStruct = mapTestStruct[token];\r\n        testStruct.token = token;\r\n        testStruct.name = \"Mock name\";\r\n        testStruct.isBlocked = true;\r\n\r\n        return testStruct;\r\n    }\r\n}\r\n",
  "sourcePath": "C:/Users/skott/Desktop/Projects/_Blockchain/Projects/MoviesFE/contracts/mocks/MockedTest.sol",
  "compiler": {
    "name": "solc",
    "version": "0.5.0+commit.1d4f565a.Emscripten.clang"
  },
  "schemaVersion": "3.0.1",
  "updatedAt": "2022-03-21T12:29:16.979Z",
  "devdoc": {
    "methods": {}
  },
  "userdoc": {
    "methods": {}
  }
}