{
  "contractName": "Movies",
  "abi": [
    {
      "constant": false,
      "inputs": [
        {
          "name": "_Id",
          "type": "uint256"
        },
        {
          "name": "_Name",
          "type": "string"
        },
        {
          "name": "_Director",
          "type": "string"
        }
      ],
      "name": "AddMovie",
      "outputs": [],
      "payable": false,
      "stateMutability": "nonpayable",
      "type": "function"
    },
    {
      "constant": true,
      "inputs": [],
      "name": "GetMovies",
      "outputs": [
        {
          "components": [
            {
              "name": "Id",
              "type": "uint256"
            },
            {
              "name": "Name",
              "type": "string"
            },
            {
              "name": "Director",
              "type": "string"
            }
          ],
          "name": "",
          "type": "tuple[]"
        }
      ],
      "payable": false,
      "stateMutability": "view",
      "type": "function"
    }
  ],
  "bytecode": "0x608060405234801561001057600080fd5b506106cc806100206000396000f3fe60806040526004361061004c576000357c0100000000000000000000000000000000000000000000000000000000900463ffffffff168063d2421ff614610051578063f5e4176a1461007c575b600080fd5b34801561005d57600080fd5b506100666100a5565b6040516100739190610580565b60405180910390f35b34801561008857600080fd5b506100a3600480360361009e91908101906103f7565b610253565b005b60606000805480602002602001604051908101604052809291908181526020016000905b8282101561024a57838290600052602060002090600302016060604051908101604052908160008201548152602001600182018054600181600116156101000203166002900480601f0160208091040260200160405190810160405280929190818152602001828054600181600116156101000203166002900480156101905780601f1061016557610100808354040283529160200191610190565b820191906000526020600020905b81548152906001019060200180831161017357829003601f168201915b50505050508152602001600282018054600181600116156101000203166002900480601f0160208091040260200160405190810160405280929190818152602001828054600181600116156101000203166002900480156102325780601f1061020757610100808354040283529160200191610232565b820191906000526020600020905b81548152906001019060200180831161021557829003601f168201915b505050505081525050815260200190600101906100c9565b50505050905090565b600060606040519081016040528085815260200184815260200183815250908060018154018082558091505090600182039060005260206000209060030201600090919290919091506000820151816000015560208201518160010190805190602001906102c29291906102e8565b5060408201518160020190805190602001906102df9291906102e8565b50505050505050565b828054600181600116156101000203166002900490600052602060002090601f016020900481019282601f1061032957805160ff1916838001178555610357565b82800160010185558215610357579182015b8281111561035657825182559160200191906001019061033b565b5b5090506103649190610368565b5090565b61038a91905b8082111561038657600081600090555060010161036e565b5090565b90565b600082601f83011215156103a057600080fd5b81356103b36103ae826105cf565b6105a2565b915080825260208301602083018583830111156103cf57600080fd5b6103da83828461063f565b50505092915050565b60006103ef8235610635565b905092915050565b60008060006060848603121561040c57600080fd5b600061041a868287016103e3565b935050602084013567ffffffffffffffff81111561043757600080fd5b6104438682870161038d565b925050604084013567ffffffffffffffff81111561046057600080fd5b61046c8682870161038d565b9150509250925092565b600061048182610608565b8084526020840193508360208202850161049a856105fb565b60005b848110156104d35783830388526104b583835161051a565b92506104c08261061e565b915060208801975060018101905061049d565b508196508694505050505092915050565b60006104ef82610613565b80845261050381602086016020860161064e565b61050c81610681565b602085010191505092915050565b60006060830160008301516105326000860182610571565b506020830151848203602086015261054a82826104e4565b9150506040830151848203604086015261056482826104e4565b9150508091505092915050565b61057a8161062b565b82525050565b6000602082019050818103600083015261059a8184610476565b905092915050565b6000604051905081810181811067ffffffffffffffff821117156105c557600080fd5b8060405250919050565b600067ffffffffffffffff8211156105e657600080fd5b601f19601f8301169050602081019050919050565b6000602082019050919050565b600081519050919050565b600081519050919050565b6000602082019050919050565b6000819050919050565b6000819050919050565b82818337600083830152505050565b60005b8381101561066c578082015181840152602081019050610651565b8381111561067b576000848401525b50505050565b6000601f19601f830116905091905056fea265627a7a72305820dde9694c30f6c69385d1bd7f7eef9b4fab0602efbf475adf3833cb88161c2b5a6c6578706572696d656e74616cf50037",
  "source": "// SPDX-License-Identifier: MIT\r\npragma solidity >=0.4.22 <0.9.0;\r\npragma experimental ABIEncoderV2;\r\n\r\ncontract Movies {\r\n    struct MoviesStructure {\r\n        uint256 Id;\r\n        string Name;\r\n        string Director;\r\n    }\r\n\r\n    MoviesStructure[] MoviesArray;\r\n\r\n    function AddMovie(\r\n        uint256 _Id,\r\n        string memory _Name,\r\n        string memory _Director\r\n    ) public {\r\n        MoviesArray.push(MoviesStructure(_Id, _Name, _Director));\r\n    }\r\n\r\n    function GetMovies() public view returns (MoviesStructure[] memory) {\r\n        return MoviesArray;\r\n    }\r\n}\r\n",
  "sourcePath": "C:/Users/skott/Desktop/Projects/_Blockchain/Projects/MoviesFE/contracts/Movies.sol",
  "compiler": {
    "name": "solc",
    "version": "0.5.0+commit.1d4f565a.Emscripten.clang"
  },
  "schemaVersion": "3.0.1",
  "updatedAt": "2022-02-28T04:08:43.996Z",
  "devdoc": {
    "methods": {}
  },
  "userdoc": {
    "methods": {}
  }
}