{
  "contractName": "Movies",
  "abi": [
    {
      "constant": false,
      "inputs": [
        {
          "name": "_Id",
          "type": "uint256"
        },
        {
          "name": "_Name",
          "type": "string"
        },
        {
          "name": "_Director",
          "type": "string"
        },
        {
          "name": "_ReleaseDate",
          "type": "uint256"
        }
      ],
      "name": "AddMovie",
      "outputs": [],
      "payable": false,
      "stateMutability": "nonpayable",
      "type": "function",
      "signature": "0x2322ff47"
    },
    {
      "constant": true,
      "inputs": [],
      "name": "GetHotelBooking",
      "outputs": [
        {
          "components": [
            {
              "name": "Id",
              "type": "uint256"
            },
            {
              "name": "Name",
              "type": "string"
            },
            {
              "name": "Director",
              "type": "string"
            },
            {
              "name": "ReleaseDate",
              "type": "uint256"
            }
          ],
          "name": "",
          "type": "tuple[]"
        }
      ],
      "payable": false,
      "stateMutability": "view",
      "type": "function",
      "signature": "0xf313d967"
    }
  ],
  "bytecode": "0x608060405234801561001057600080fd5b5061070e806100206000396000f3fe60806040526004361061004c576000357c0100000000000000000000000000000000000000000000000000000000900463ffffffff1680632322ff4714610051578063f313d9671461007a575b600080fd5b34801561005d57600080fd5b5061007860048036036100739190810190610412565b6100a5565b005b34801561008657600080fd5b5061008f61014b565b60405161009c91906105c2565b60405180910390f35b6000608060405190810160405280868152602001858152602001848152602001838152509080600181540180825580915050906001820390600052602060002090600402016000909192909190915060008201518160000155602082015181600101908051906020019061011a929190610303565b506040820151816002019080519060200190610137929190610303565b506060820151816003015550505050505050565b60606000805480602002602001604051908101604052809291908181526020016000905b828210156102fa57838290600052602060002090600402016080604051908101604052908160008201548152602001600182018054600181600116156101000203166002900480601f0160208091040260200160405190810160405280929190818152602001828054600181600116156101000203166002900480156102365780601f1061020b57610100808354040283529160200191610236565b820191906000526020600020905b81548152906001019060200180831161021957829003601f168201915b50505050508152602001600282018054600181600116156101000203166002900480601f0160208091040260200160405190810160405280929190818152602001828054600181600116156101000203166002900480156102d85780601f106102ad576101008083540402835291602001916102d8565b820191906000526020600020905b8154815290600101906020018083116102bb57829003601f168201915b505050505081526020016003820154815250508152602001906001019061016f565b50505050905090565b828054600181600116156101000203166002900490600052602060002090601f016020900481019282601f1061034457805160ff1916838001178555610372565b82800160010185558215610372579182015b82811115610371578251825591602001919060010190610356565b5b50905061037f9190610383565b5090565b6103a591905b808211156103a1576000816000905550600101610389565b5090565b90565b600082601f83011215156103bb57600080fd5b81356103ce6103c982610611565b6105e4565b915080825260208301602083018583830111156103ea57600080fd5b6103f5838284610681565b50505092915050565b600061040a8235610677565b905092915050565b6000806000806080858703121561042857600080fd5b6000610436878288016103fe565b945050602085013567ffffffffffffffff81111561045357600080fd5b61045f878288016103a8565b935050604085013567ffffffffffffffff81111561047c57600080fd5b610488878288016103a8565b9250506060610499878288016103fe565b91505092959194509250565b60006104b08261064a565b808452602084019350836020820285016104c98561063d565b60005b848110156105025783830388526104e4838351610549565b92506104ef82610660565b91506020880197506001810190506104cc565b508196508694505050505092915050565b600061051e82610655565b808452610532816020860160208601610690565b61053b816106c3565b602085010191505092915050565b600060808301600083015161056160008601826105b3565b50602083015184820360208601526105798282610513565b915050604083015184820360408601526105938282610513565b91505060608301516105a860608601826105b3565b508091505092915050565b6105bc8161066d565b82525050565b600060208201905081810360008301526105dc81846104a5565b905092915050565b6000604051905081810181811067ffffffffffffffff8211171561060757600080fd5b8060405250919050565b600067ffffffffffffffff82111561062857600080fd5b601f19601f8301169050602081019050919050565b6000602082019050919050565b600081519050919050565b600081519050919050565b6000602082019050919050565b6000819050919050565b6000819050919050565b82818337600083830152505050565b60005b838110156106ae578082015181840152602081019050610693565b838111156106bd576000848401525b50505050565b6000601f19601f830116905091905056fea265627a7a7230582009b48147466d04f8756aba9268fa0e0a68e6541c88c3dd143ec4bd7388ad4c806c6578706572696d656e74616cf50037",
  "source": "// SPDX-License-Identifier: MIT\r\npragma solidity >=0.4.22 <0.9.0;\r\npragma experimental ABIEncoderV2;\r\n\r\ncontract Movies {\r\n    struct MoviesStructure {\r\n        uint256 Id;\r\n        string Name;\r\n        string Director;\r\n        uint256 ReleaseDate;\r\n    }\r\n\r\n    MoviesStructure[] MoviesArray;\r\n\r\n    function AddMovie(\r\n        uint256 _Id,\r\n        string memory _Name,\r\n        string memory _Director,\r\n        uint256 _ReleaseDate\r\n    ) public {\r\n        MoviesArray.push(MoviesStructure(_Id, _Name, _Director, _ReleaseDate));\r\n    }\r\n\r\n    function GetHotelBooking() public view returns (MoviesStructure[] memory) {\r\n        return MoviesArray;\r\n    }\r\n}\r\n",
  "sourcePath": "C:/Users/skott/Desktop/Projects/_Blockchain/Projects/MoviesFE/contracts/Movies.sol",
  "compiler": {
    "name": "solc",
    "version": "0.5.0+commit.1d4f565a.Emscripten.clang"
  },
  "schemaVersion": "3.0.1",
  "updatedAt": "2022-02-28T03:58:39.881Z",
  "devdoc": {
    "methods": {}
  },
  "userdoc": {
    "methods": {}
  }
}