{
  "contractName": "Movies",
  "abi": [
    {
      "constant": true,
      "inputs": [
        {
          "name": "",
          "type": "uint256"
        }
      ],
      "name": "mapMovie",
      "outputs": [
        {
          "name": "Id",
          "type": "uint256"
        },
        {
          "name": "Name",
          "type": "string"
        },
        {
          "name": "Director",
          "type": "string"
        }
      ],
      "payable": false,
      "stateMutability": "view",
      "type": "function",
      "signature": "0xf6addbb8"
    },
    {
      "constant": false,
      "inputs": [
        {
          "components": [
            {
              "name": "Id",
              "type": "uint256"
            },
            {
              "name": "Name",
              "type": "string"
            },
            {
              "name": "Director",
              "type": "string"
            },
            {
              "components": [
                {
                  "name": "Id",
                  "type": "uint256"
                },
                {
                  "name": "Name",
                  "type": "string"
                }
              ],
              "name": "Actors",
              "type": "tuple[]"
            }
          ],
          "name": "_movie",
          "type": "tuple"
        }
      ],
      "name": "AddMovie",
      "outputs": [],
      "payable": false,
      "stateMutability": "nonpayable",
      "type": "function",
      "signature": "0xc19769a9"
    },
    {
      "constant": true,
      "inputs": [],
      "name": "GetMovies",
      "outputs": [
        {
          "components": [
            {
              "name": "Id",
              "type": "uint256"
            },
            {
              "name": "Name",
              "type": "string"
            },
            {
              "name": "Director",
              "type": "string"
            },
            {
              "components": [
                {
                  "name": "Id",
                  "type": "uint256"
                },
                {
                  "name": "Name",
                  "type": "string"
                }
              ],
              "name": "Actors",
              "type": "tuple[]"
            }
          ],
          "name": "",
          "type": "tuple[]"
        }
      ],
      "payable": false,
      "stateMutability": "view",
      "type": "function",
      "signature": "0xd2421ff6"
    }
  ],
  "bytecode": "0x608060405234801561001057600080fd5b50610fd0806100206000396000f3fe608060405260043610610057576000357c0100000000000000000000000000000000000000000000000000000000900463ffffffff168063c19769a91461005c578063d2421ff614610085578063f6addbb8146100b0575b600080fd5b34801561006857600080fd5b50610083600480360361007e9190810190610bb9565b6100ef565b005b34801561009157600080fd5b5061009a6102b5565b6040516100a79190610df2565b60405180910390f35b3480156100bc57600080fd5b506100d760048036036100d29190810190610bfa565b61056e565b6040516100e693929190610e14565b60405180910390f35b60006100fb60006106c8565b905060006003600083815260200190815260200160002090508181600001819055508260400151816002019080519060200190610139929190610704565b508260200151816001019080519060200190610156929190610704565b5060008090505b83606001515181101561020d5781600301604080519081016040528061018360016106e6565b815260200186606001518481518110151561019a57fe5b9060200190602002015160200151815250908060018154018082558091505090600182039060005260206000209060020201600090919290919091506000820151816000015560208201518160010190805190602001906101fc929190610784565b50505050808060010191505061015d565b5060028190806001815401808255809150509060018203906000526020600020906004020160009091929091909150600082015481600001556001820181600101908054600181600116156101000203166002900461026d929190610804565b5060028201816002019080546001816001161561010002031660029004610295929190610804565b5060038201816003019080546102ac92919061088b565b50505050505050565b60606002805480602002602001604051908101604052809291908181526020016000905b8282101561056557838290600052602060002090600402016080604051908101604052908160008201548152602001600182018054600181600116156101000203166002900480601f0160208091040260200160405190810160405280929190818152602001828054600181600116156101000203166002900480156103a05780601f10610375576101008083540402835291602001916103a0565b820191906000526020600020905b81548152906001019060200180831161038357829003601f168201915b50505050508152602001600282018054600181600116156101000203166002900480601f0160208091040260200160405190810160405280929190818152602001828054600181600116156101000203166002900480156104425780601f1061041757610100808354040283529160200191610442565b820191906000526020600020905b81548152906001019060200180831161042557829003601f168201915b5050505050815260200160038201805480602002602001604051908101604052809291908181526020016000905b8282101561054e578382906000526020600020906002020160408051908101604052908160008201548152602001600182018054600181600116156101000203166002900480601f0160208091040260200160405190810160405280929190818152602001828054600181600116156101000203166002900480156105365780601f1061050b57610100808354040283529160200191610536565b820191906000526020600020905b81548152906001019060200180831161051957829003601f168201915b50505050508152505081526020019060010190610470565b5050505081525050815260200190600101906102d9565b50505050905090565b6003602052806000526040600020600091509050806000015490806001018054600181600116156101000203166002900480601f0160208091040260200160405190810160405280929190818152602001828054600181600116156101000203166002900480156106205780601f106105f557610100808354040283529160200191610620565b820191906000526020600020905b81548152906001019060200180831161060357829003601f168201915b505050505090806002018054600181600116156101000203166002900480601f0160208091040260200160405190810160405280929190818152602001828054600181600116156101000203166002900480156106be5780601f10610693576101008083540402835291602001916106be565b820191906000526020600020905b8154815290600101906020018083116106a157829003601f168201915b5050505050905083565b60006001826000015401826000018190555081600001549050919050565b60006001826000015401826000018190555081600001549050919050565b828054600181600116156101000203166002900490600052602060002090601f016020900481019282601f1061074557805160ff1916838001178555610773565b82800160010185558215610773579182015b82811115610772578251825591602001919060010190610757565b5b5090506107809190610915565b5090565b828054600181600116156101000203166002900490600052602060002090601f016020900481019282601f106107c557805160ff19168380011785556107f3565b828001600101855582156107f3579182015b828111156107f25782518255916020019190600101906107d7565b5b5090506108009190610915565b5090565b828054600181600116156101000203166002900490600052602060002090601f016020900481019282601f1061083d578054855561087a565b8280016001018555821561087a57600052602060002091601f016020900482015b8281111561087957825482559160010191906001019061085e565b5b5090506108879190610915565b5090565b8280548282559060005260206000209060020281019282156109045760005260206000209160020282015b8281111561090357828260008201548160000155600182018160010190805460018160011615610100020316600290046108f1929190610804565b505050916002019190600201906108b6565b5b509050610911919061093a565b5090565b61093791905b8082111561093357600081600090555060010161091b565b5090565b90565b61096e91905b8082111561096a576000808201600090556001820160006109619190610971565b50600201610940565b5090565b90565b50805460018160011615610100020316600290046000825580601f1061099757506109b6565b601f0160209004906000526020600020908101906109b59190610915565b5b50565b600082601f83011215156109cc57600080fd5b81356109df6109da82610e86565b610e59565b9150818183526020840193506020810190508360005b83811015610a255781358601610a0b8882610a85565b8452602084019350602083019250506001810190506109f5565b5050505092915050565b600082601f8301121515610a4257600080fd5b8135610a55610a5082610eae565b610e59565b91508082526020830160208301858383011115610a7157600080fd5b610a7c838284610f43565b50505092915050565b600060408284031215610a9757600080fd5b610aa16040610e59565b90506000610ab184828501610ba5565b600083015250602082013567ffffffffffffffff811115610ad157600080fd5b610add84828501610a2f565b60208301525092915050565b600060808284031215610afb57600080fd5b610b056080610e59565b90506000610b1584828501610ba5565b600083015250602082013567ffffffffffffffff811115610b3557600080fd5b610b4184828501610a2f565b602083015250604082013567ffffffffffffffff811115610b6157600080fd5b610b6d84828501610a2f565b604083015250606082013567ffffffffffffffff811115610b8d57600080fd5b610b99848285016109b9565b60608301525092915050565b6000610bb18235610f39565b905092915050565b600060208284031215610bcb57600080fd5b600082013567ffffffffffffffff811115610be557600080fd5b610bf184828501610ae9565b91505092915050565b600060208284031215610c0c57600080fd5b6000610c1a84828501610ba5565b91505092915050565b6000610c2e82610ef4565b80845260208401935083602082028501610c4785610eda565b60005b84811015610c80578383038852610c62838351610d35565b9250610c6d82610f15565b9150602088019750600181019050610c4a565b508196508694505050505092915050565b6000610c9c82610eff565b80845260208401935083602082028501610cb585610ee7565b60005b84811015610cee578383038852610cd0838351610d72565b9250610cdb82610f22565b9150602088019750600181019050610cb8565b508196508694505050505092915050565b6000610d0a82610f0a565b808452610d1e816020860160208601610f52565b610d2781610f85565b602085010191505092915050565b6000604083016000830151610d4d6000860182610de3565b5060208301518482036020860152610d658282610cff565b9150508091505092915050565b6000608083016000830151610d8a6000860182610de3565b5060208301518482036020860152610da28282610cff565b91505060408301518482036040860152610dbc8282610cff565b91505060608301518482036060860152610dd68282610c23565b9150508091505092915050565b610dec81610f2f565b82525050565b60006020820190508181036000830152610e0c8184610c91565b905092915050565b6000606082019050610e296000830186610de3565b8181036020830152610e3b8185610cff565b90508181036040830152610e4f8184610cff565b9050949350505050565b6000604051905081810181811067ffffffffffffffff82111715610e7c57600080fd5b8060405250919050565b600067ffffffffffffffff821115610e9d57600080fd5b602082029050602081019050919050565b600067ffffffffffffffff821115610ec557600080fd5b601f19601f8301169050602081019050919050565b6000602082019050919050565b6000602082019050919050565b600081519050919050565b600081519050919050565b600081519050919050565b6000602082019050919050565b6000602082019050919050565b6000819050919050565b6000819050919050565b82818337600083830152505050565b60005b83811015610f70578082015181840152602081019050610f55565b83811115610f7f576000848401525b50505050565b6000601f19601f830116905091905056fea265627a7a72305820b6e2c55ea01c6838682fa7a689d783614ceb8d80311f4aaf25ad4f51afe4a9d76c6578706572696d656e74616cf50037",
  "source": "// SPDX-License-Identifier: MIT\r\npragma solidity >=0.4.22 <0.9.0;\r\npragma experimental ABIEncoderV2;\r\n\r\ncontract Movies {\r\n    struct MoviesStructure {\r\n        uint256 Id;\r\n        string Name;\r\n        string Director;\r\n        ActorsStruct[] Actors;\r\n    }\r\n\r\n    struct ActorsStruct {\r\n        uint256 Id;\r\n        string Name;\r\n    }\r\n\r\n    struct MovieIdStruct {\r\n        uint256 movieId;\r\n    }\r\n\r\n    struct ActorIdStruct {\r\n        uint256 actorId;\r\n    }\r\n\r\n    MovieIdStruct movieCounter;\r\n    ActorIdStruct actorCounter;\r\n    MoviesStructure[] MoviesArray;\r\n    mapping(uint256 => MoviesStructure) public mapMovie;\r\n\r\n    function NextMovieId(MovieIdStruct storage _counter)\r\n        internal\r\n        returns (uint256)\r\n    {\r\n        _counter.movieId = _counter.movieId + 1;\r\n        return _counter.movieId;\r\n    }\r\n\r\n    function NextActorId(ActorIdStruct storage _counter)\r\n        internal\r\n        returns (uint256)\r\n    {\r\n        _counter.actorId = _counter.actorId + 1;\r\n        return _counter.actorId;\r\n    }\r\n\r\n    function AddMovie(MoviesStructure memory _movie) public {\r\n        uint256 _movieId = NextMovieId(movieCounter);\r\n\r\n        MoviesStructure storage movie = mapMovie[_movieId];\r\n        movie.Id = _movieId;\r\n        movie.Director = _movie.Director;\r\n        movie.Name = _movie.Name;\r\n\r\n        for (uint256 i = 0; i < _movie.Actors.length; i++) {\r\n            movie.Actors.push(\r\n                ActorsStruct(NextActorId(actorCounter), _movie.Actors[i].Name)\r\n            );\r\n        }\r\n\r\n        MoviesArray.push(movie);\r\n    }\r\n\r\n    function GetMovies() public view returns (MoviesStructure[] memory) {\r\n        return MoviesArray;\r\n    }\r\n}\r\n",
  "sourcePath": "C:/Users/skott/Desktop/Projects/_Blockchain/Projects/MoviesFE/contracts/Movies.sol",
  "compiler": {
    "name": "solc",
    "version": "0.5.0+commit.1d4f565a.Emscripten.clang"
  },
  "schemaVersion": "3.0.1",
  "updatedAt": "2022-03-18T09:25:32.430Z",
  "devdoc": {
    "methods": {}
  },
  "userdoc": {
    "methods": {}
  }
}