{
  "contractName": "TestContract",
  "abi": [
    {
      "constant": false,
      "inputs": [
        {
          "components": [
            {
              "name": "token",
              "type": "string"
            },
            {
              "name": "name",
              "type": "string"
            },
            {
              "components": [
                {
                  "name": "token",
                  "type": "string"
                },
                {
                  "name": "arrayElements",
                  "type": "string[]"
                },
                {
                  "name": "field1",
                  "type": "string"
                },
                {
                  "name": "field2",
                  "type": "string"
                },
                {
                  "name": "field3",
                  "type": "string"
                },
                {
                  "components": [
                    {
                      "name": "token",
                      "type": "string"
                    },
                    {
                      "name": "comment",
                      "type": "string"
                    }
                  ],
                  "name": "array",
                  "type": "tuple"
                }
              ],
              "name": "Argument",
              "type": "tuple"
            },
            {
              "name": "isBlocked",
              "type": "bool"
            }
          ],
          "name": "testStructToAdd",
          "type": "tuple"
        }
      ],
      "name": "addTestStruct",
      "outputs": [],
      "payable": false,
      "stateMutability": "nonpayable",
      "type": "function",
      "signature": "0xf44b3df3"
    },
    {
      "constant": true,
      "inputs": [],
      "name": "getTestStructs",
      "outputs": [
        {
          "components": [
            {
              "name": "token",
              "type": "string"
            },
            {
              "name": "name",
              "type": "string"
            },
            {
              "components": [
                {
                  "name": "token",
                  "type": "string"
                },
                {
                  "name": "arrayElements",
                  "type": "string[]"
                },
                {
                  "name": "field1",
                  "type": "string"
                },
                {
                  "name": "field2",
                  "type": "string"
                },
                {
                  "name": "field3",
                  "type": "string"
                },
                {
                  "components": [
                    {
                      "name": "token",
                      "type": "string"
                    },
                    {
                      "name": "comment",
                      "type": "string"
                    }
                  ],
                  "name": "array",
                  "type": "tuple"
                }
              ],
              "name": "Argument",
              "type": "tuple"
            },
            {
              "name": "isBlocked",
              "type": "bool"
            }
          ],
          "name": "",
          "type": "tuple[]"
        }
      ],
      "payable": false,
      "stateMutability": "view",
      "type": "function",
      "signature": "0xda48369a"
    },
    {
      "constant": true,
      "inputs": [],
      "name": "getTestStructLength",
      "outputs": [
        {
          "name": "",
          "type": "uint256"
        }
      ],
      "payable": false,
      "stateMutability": "view",
      "type": "function",
      "signature": "0x7ba64233"
    }
  ],
  "bytecode": "0x608060405234801561001057600080fd5b5061137d806100206000396000f3fe6080604052600436106100565763ffffffff7c01000000000000000000000000000000000000000000000000000000006000350416637ba64233811461005b578063da48369a14610086578063f44b3df3146100a8575b600080fd5b34801561006757600080fd5b506100706100ca565b60405161007d919061126a565b60405180910390f35b34801561009257600080fd5b5061009b6100d1565b60405161007d9190611259565b3480156100b457600080fd5b506100c86100c3366004610fcf565b6106f2565b005b6000545b90565b60606000805480602002602001604051908101604052809291908181526020016000905b828210156106e957600084815260209081902060408051600a8602909201805460026001821615610100026000190190911604601f8101859004909402830160a0908101909252608083018481529293909284929091849184018282801561019e5780601f106101735761010080835404028352916020019161019e565b820191906000526020600020905b81548152906001019060200180831161018157829003601f168201915b50505050508152602001600182018054600181600116156101000203166002900480601f0160208091040260200160405190810160405280929190818152602001828054600181600116156101000203166002900480156102405780601f1061021557610100808354040283529160200191610240565b820191906000526020600020905b81548152906001019060200180831161022357829003601f168201915b5050509183525050604080516002848101805460e06020601f600019610100600186161502019093169490940491820184900484028501810190955260c084018181529290950194929390928492918491908401828280156102e35780601f106102b8576101008083540402835291602001916102e3565b820191906000526020600020905b8154815290600101906020018083116102c657829003601f168201915b5050505050815260200160018201805480602002602001604051908101604052809291908181526020016000905b828210156103bc5760008481526020908190208301805460408051601f60026000196101006001871615020190941693909304928301859004850281018501909152818152928301828280156103a85780601f1061037d576101008083540402835291602001916103a8565b820191906000526020600020905b81548152906001019060200180831161038b57829003601f168201915b505050505081526020019060010190610311565b50505090825250600282810180546040805160206001841615610100026000190190931694909404601f8101839004830285018301909152808452938101939083018282801561044d5780601f106104225761010080835404028352916020019161044d565b820191906000526020600020905b81548152906001019060200180831161043057829003601f168201915b505050918352505060038201805460408051602060026001851615610100026000190190941693909304601f81018490048402820184019092528181529382019392918301828280156104e15780601f106104b6576101008083540402835291602001916104e1565b820191906000526020600020905b8154815290600101906020018083116104c457829003601f168201915b505050918352505060048201805460408051602060026001851615610100026000190190941693909304601f81018490048402820184019092528181529382019392918301828280156105755780601f1061054a57610100808354040283529160200191610575565b820191906000526020600020905b81548152906001019060200180831161055857829003601f168201915b50505091835250506040805160058401805460606020601f60026000196101006001871615020190941693909304928301819004810285018201865294840182815294909501949293919284929184918401828280156106165780601f106105eb57610100808354040283529160200191610616565b820191906000526020600020905b8154815290600101906020018083116105f957829003601f168201915b50505050508152602001600182018054600181600116156101000203166002900480601f0160208091040260200160405190810160405280929190818152602001828054600181600116156101000203166002900480156106b85780601f1061068d576101008083540402835291602001916106b8565b820191906000526020600020905b81548152906001019060200180831161069b57829003601f168201915b5050509190925250505090525081526009919091015460ff16151560209182015290825260019290920191016100f5565b50505050905090565b6000600182600001516040518082805190602001908083835b6020831061072a5780518252601f19909201916020918201910161070b565b51815160209384036101000a60001901801990921691161790529201948552506040519384900381019093208551805191955061076c94869450019150610a81565b5060208083015180516107859260018501920190610a81565b50606082015160098201805460ff191691151591909117905560408201518051805160028401916107bb91839160200190610a81565b5060208281015180516107d49260018501920190610aff565b50604082015180516107f0916002840191602090910190610a81565b506060820151805161080c916003840191602090910190610a81565b5060808201518051610828916004840191602090910190610a81565b5060a082015180518051600584019161084691839160200190610a81565b50602082810151805161085f9260018501920190610a81565b50600093505050505b826040015160200151518110156108cd5760408301516020015180516003840191908390811061089457fe5b602090810290910181015182546001810180855560009485529383902082516108c39491909201920190610a81565b5050600101610868565b5060008054600181810180845592805283548492600a027f290decd9548b62a8d60345a988386fc84ba6bc95484008f6362f93160ef3e5630191610927918391859160026101009282161592909202600019011604610b58565b506001820181600101908054600181600116156101000203166002900461094f929190610b58565b506002828101805490918381019161097b91839185916000196101006001841615020190911604610b58565b50600182810180546109909284019190610bcd565b50600282810180546109b5928481019291600019610100600183161502011604610b58565b50600382018160030190805460018160011615610100020316600290046109dd929190610b58565b5060048201816004019080546001816001161561010002031660029004610a05929190610b58565b50600582810180549091830190610a32908290849060026000196101006001841615020190911604610b58565b5060018201816001019080546001816001161561010002031660029004610a5a929190610b58565b5050505060099283015491909201805460ff191660ff909216151591909117905550505050565b828054600181600116156101000203166002900490600052602060002090601f016020900481019282601f10610ac257805160ff1916838001178555610aef565b82800160010185558215610aef579182015b82811115610aef578251825591602001919060010190610ad4565b50610afb929150610c2b565b5090565b828054828255906000526020600020908101928215610b4c579160200282015b82811115610b4c5782518051610b3c918491602090910190610a81565b5091602001919060010190610b1f565b50610afb929150610c45565b828054600181600116156101000203166002900490600052602060002090601f016020900481019282601f10610b915780548555610aef565b82800160010185558215610aef57600052602060002091601f016020900482015b82811115610aef578254825591600101919060010190610bb2565b828054828255906000526020600020908101928215610b4c5760005260206000209182015b82811115610b4c5782829080546001816001161561010002031660029004610c1b929190610b58565b5091600101919060010190610bf2565b6100ce91905b80821115610afb5760008155600101610c31565b6100ce91905b80821115610afb576000610c5f8282610c68565b50600101610c4b565b50805460018160011615610100020316600290046000825580601f10610c8e5750610cac565b601f016020900490600052602060002090810190610cac9190610c2b565b50565b6000601f82018313610cc057600080fd5b8135610cd3610cce826112a5565b61127e565b81815260209384019390925082018360005b83811015610d115781358601610cfb8882610d2e565b8452506020928301929190910190600101610ce5565b5050505092915050565b6000610d2782356112f8565b9392505050565b6000601f82018313610d3f57600080fd5b8135610d4d610cce826112c6565b91508082526020830160208301858383011115610d6957600080fd5b610d748382846112fd565b50505092915050565b600060408284031215610d8f57600080fd5b610d99604061127e565b9050813567ffffffffffffffff811115610db257600080fd5b610dbe84828501610d2e565b825250602082013567ffffffffffffffff811115610ddb57600080fd5b610de784828501610d2e565b60208301525092915050565b600060c08284031215610e0557600080fd5b610e0f60c061127e565b9050813567ffffffffffffffff811115610e2857600080fd5b610e3484828501610d2e565b825250602082013567ffffffffffffffff811115610e5157600080fd5b610e5d84828501610caf565b602083015250604082013567ffffffffffffffff811115610e7d57600080fd5b610e8984828501610d2e565b604083015250606082013567ffffffffffffffff811115610ea957600080fd5b610eb584828501610d2e565b606083015250608082013567ffffffffffffffff811115610ed557600080fd5b610ee184828501610d2e565b60808301525060a082013567ffffffffffffffff811115610f0157600080fd5b610f0d84828501610d7d565b60a08301525092915050565b600060808284031215610f2b57600080fd5b610f35608061127e565b9050813567ffffffffffffffff811115610f4e57600080fd5b610f5a84828501610d2e565b825250602082013567ffffffffffffffff811115610f7757600080fd5b610f8384828501610d2e565b602083015250604082013567ffffffffffffffff811115610fa357600080fd5b610faf84828501610df3565b6040830152506060610fc384828501610d1b565b60608301525092915050565b600060208284031215610fe157600080fd5b813567ffffffffffffffff811115610ff857600080fd5b61100484828501610f19565b949350505050565b6000611017826112f4565b80845260208401935083602082028501611030856112ee565b60005b8481101561106757838303885261104b8383516110dd565b9250611056826112ee565b602098909801979150600101611033565b50909695505050505050565b600061107e826112f4565b80845260208401935083602082028501611097856112ee565b60005b848110156110675783830388526110b28383516111e7565b92506110bd826112ee565b60209890980197915060010161109a565b6110d7816112f8565b82525050565b60006110e8826112f4565b8084526110fc816020860160208601611309565b61110581611339565b9093016020019392505050565b805160408084526000919084019061112a82826110dd565b9150506020830151848203602086015261114482826110dd565b95945050505050565b805160c08084526000919084019061116582826110dd565b9150506020830151848203602086015261117f828261100c565b9150506040830151848203604086015261119982826110dd565b915050606083015184820360608601526111b382826110dd565b915050608083015184820360808601526111cd82826110dd565b91505060a083015184820360a08601526111448282611112565b80516080808452600091908401906111ff82826110dd565b9150506020830151848203602086015261121982826110dd565b91505060408301518482036040860152611233828261114d565b915050606083015161124860608601826110ce565b509392505050565b6110d7816100ce565b60208082528101610d278184611073565b602081016112788284611250565b92915050565b60405181810167ffffffffffffffff8111828210171561129d57600080fd5b604052919050565b600067ffffffffffffffff8211156112bc57600080fd5b5060209081020190565b600067ffffffffffffffff8211156112dd57600080fd5b506020601f91909101601f19160190565b60200190565b5190565b151590565b82818337506000910152565b60005b8381101561132457818101518382015260200161130c565b83811115611333576000848401525b50505050565b601f01601f19169056fea265627a7a72305820267ab962a218965dc8a5ce6811a2f87642e3618d7c6e8a4c69caae872117881f6c6578706572696d656e74616cf50037",
  "source": "// SPDX-License-Identifier: MIT\r\npragma solidity >=0.4.22 <0.9.0;\r\npragma experimental ABIEncoderV2;\r\n\r\ncontract TestContract {\r\n    struct TestStruct {\r\n        string token;\r\n        string name;\r\n        TestStructArgument Argument;\r\n        bool isBlocked;\r\n    }\r\n\r\n    struct TestStructArgument {\r\n        string token;\r\n        string[] arrayElements;\r\n        string field1;\r\n        string field2;\r\n        string field3;\r\n        Array array;\r\n    }\r\n\r\n    struct Array {\r\n        string token;\r\n        string comment;\r\n    }\r\n\r\n    //[\"0xA27eEfe6b5180F085CE6Aa5D6DaA81d1c35153C0\", \"Test\", [\"0xA27eEfe6b5180F085CE6Aa5D6DaA81d1c35153C0\",[\"Array element 1\", \"array element 2\"], \"Field1\",\"Field2\",\"Field3\",[\"0xA27eEfe6b5180F085CE6Aa5D6DaA81d1c35153C0\", \"Comment\"]], true]\r\n    TestStruct[] testStructs;\r\n    mapping(string => TestStruct) internal mapTestStruct;\r\n\r\n    function addTestStruct(TestStruct memory testStructToAdd) public {\r\n        TestStruct storage testStruct = mapTestStruct[testStructToAdd.token];\r\n\r\n        testStruct.token = testStructToAdd.token;\r\n        testStruct.name = testStructToAdd.name;\r\n        testStruct.isBlocked = testStructToAdd.isBlocked;\r\n        testStruct.Argument = testStructToAdd.Argument;\r\n        for (\r\n            uint256 i = 0;\r\n            i < testStructToAdd.Argument.arrayElements.length;\r\n            i++\r\n        ) {\r\n            testStruct.Argument.arrayElements.push(\r\n                testStructToAdd.Argument.arrayElements[i]\r\n            );\r\n        }\r\n\r\n        testStructs.push(testStruct);\r\n    }\r\n\r\n    function getTestStructs() public view returns (TestStruct[] memory) {\r\n        return testStructs;\r\n    }\r\n\r\n    function getTestStructLength() public view returns (uint256) {\r\n        return testStructs.length;\r\n    }\r\n}\r\n\r\ncontract HandleFloatContract {\r\n    struct TestStruct {\r\n        string token;\r\n        uint256 number;\r\n    }\r\n\r\n    TestStruct[] testStructs;\r\n    mapping(string => TestStruct) internal mapTestStruct;\r\n    uint256 constant tenTh = 10**10;\r\n\r\n    function handleFloat(TestStruct memory testStructToAdd)\r\n        public\r\n        returns (bool)\r\n    {\r\n        TestStruct storage testStruct = mapTestStruct[testStructToAdd.token];\r\n\r\n        testStruct.token = testStructToAdd.token;\r\n        testStruct.number = tenTh * testStructToAdd.number;\r\n        testStructs.push(testStruct);\r\n\r\n        return true;\r\n    }\r\n\r\n    function getTestStructs() public view returns (TestStruct[] memory) {\r\n        return testStructs;\r\n    }\r\n\r\n    function powNumber(uint256 number) public pure returns (uint256) {\r\n        return number**10;\r\n    }\r\n\r\n    function divideByTen(uint256 number) public pure returns (uint256) {\r\n        return number / tenTh;\r\n    }\r\n}\r\n",
  "sourcePath": "C:/Users/skott/Desktop/Projects/_Blockchain/Projects/MoviesFE/contracts/Test.sol",
  "compiler": {
    "name": "solc",
    "version": "0.5.0+commit.1d4f565a.Emscripten.clang"
  },
  "schemaVersion": "3.0.1",
  "updatedAt": "2022-03-18T05:46:11.441Z",
  "devdoc": {
    "methods": {}
  },
  "userdoc": {
    "methods": {}
  }
}