{
  "contractName": "Test",
  "abi": [
    {
      "constant": false,
      "inputs": [
        {
          "components": [
            {
              "name": "token",
              "type": "string"
            },
            {
              "name": "name",
              "type": "string"
            },
            {
              "components": [
                {
                  "name": "token",
                  "type": "string"
                },
                {
                  "name": "arrayElements",
                  "type": "string[]"
                },
                {
                  "name": "field1",
                  "type": "string"
                },
                {
                  "name": "field2",
                  "type": "string"
                },
                {
                  "name": "field3",
                  "type": "string"
                },
                {
                  "components": [
                    {
                      "name": "token",
                      "type": "string"
                    },
                    {
                      "name": "comment",
                      "type": "string"
                    }
                  ],
                  "name": "array",
                  "type": "tuple"
                }
              ],
              "name": "Argument",
              "type": "tuple"
            },
            {
              "name": "isBlocked",
              "type": "bool"
            }
          ],
          "name": "testStructToAdd",
          "type": "tuple"
        }
      ],
      "name": "addTestStruct",
      "outputs": [],
      "payable": false,
      "stateMutability": "nonpayable",
      "type": "function"
    },
    {
      "constant": true,
      "inputs": [],
      "name": "getTestStructs",
      "outputs": [
        {
          "components": [
            {
              "name": "token",
              "type": "string"
            },
            {
              "name": "name",
              "type": "string"
            },
            {
              "components": [
                {
                  "name": "token",
                  "type": "string"
                },
                {
                  "name": "arrayElements",
                  "type": "string[]"
                },
                {
                  "name": "field1",
                  "type": "string"
                },
                {
                  "name": "field2",
                  "type": "string"
                },
                {
                  "name": "field3",
                  "type": "string"
                },
                {
                  "components": [
                    {
                      "name": "token",
                      "type": "string"
                    },
                    {
                      "name": "comment",
                      "type": "string"
                    }
                  ],
                  "name": "array",
                  "type": "tuple"
                }
              ],
              "name": "Argument",
              "type": "tuple"
            },
            {
              "name": "isBlocked",
              "type": "bool"
            }
          ],
          "name": "",
          "type": "tuple[]"
        }
      ],
      "payable": false,
      "stateMutability": "view",
      "type": "function"
    },
    {
      "constant": true,
      "inputs": [],
      "name": "getTestStructLength",
      "outputs": [
        {
          "name": "",
          "type": "uint256"
        }
      ],
      "payable": false,
      "stateMutability": "view",
      "type": "function"
    },
    {
      "constant": true,
      "inputs": [
        {
          "name": "token",
          "type": "string"
        }
      ],
      "name": "getTestStructByToken",
      "outputs": [
        {
          "components": [
            {
              "name": "token",
              "type": "string"
            },
            {
              "name": "name",
              "type": "string"
            },
            {
              "components": [
                {
                  "name": "token",
                  "type": "string"
                },
                {
                  "name": "arrayElements",
                  "type": "string[]"
                },
                {
                  "name": "field1",
                  "type": "string"
                },
                {
                  "name": "field2",
                  "type": "string"
                },
                {
                  "name": "field3",
                  "type": "string"
                },
                {
                  "components": [
                    {
                      "name": "token",
                      "type": "string"
                    },
                    {
                      "name": "comment",
                      "type": "string"
                    }
                  ],
                  "name": "array",
                  "type": "tuple"
                }
              ],
              "name": "Argument",
              "type": "tuple"
            },
            {
              "name": "isBlocked",
              "type": "bool"
            }
          ],
          "name": "",
          "type": "tuple"
        }
      ],
      "payable": false,
      "stateMutability": "view",
      "type": "function"
    }
  ],
  "bytecode": "0x608060405234801561001057600080fd5b50611ac0806100206000396000f3fe6080604052600436106100615763ffffffff7c01000000000000000000000000000000000000000000000000000000006000350416631069437a81146100665780637ba642331461009c578063da48369a146100be578063f44b3df3146100e0575b600080fd5b34801561007257600080fd5b506100866100813660046116cc565b610102565b604051610093919061199c565b60405180910390f35b3480156100a857600080fd5b506100b1610744565b60405161009391906119ad565b3480156100ca57600080fd5b506100d361074b565b604051610093919061198b565b3480156100ec57600080fd5b506101006100fb366004611709565b610d6c565b005b61010a6110fb565b60006001836040518082805190602001908083835b6020831061013e5780518252601f19909201916020918201910161011f565b518151600019602094850361010090810a82019283169219939093169190911790925294909201968752604080519788900382018820805460a0601f600260018416159099029096019091169690960493840183900490920288018501905260808701828152909750879550869450928592508401828280156102025780601f106101d757610100808354040283529160200191610202565b820191906000526020600020905b8154815290600101906020018083116101e557829003601f168201915b50505050508152602001600182018054600181600116156101000203166002900480601f0160208091040260200160405190810160405280929190818152602001828054600181600116156101000203166002900480156102a45780601f10610279576101008083540402835291602001916102a4565b820191906000526020600020905b81548152906001019060200180831161028757829003601f168201915b5050509183525050604080516002848101805460e06020601f600019610100600186161502019093169490940491820184900484028501810190955260c084018181529290950194929390928492918491908401828280156103475780601f1061031c57610100808354040283529160200191610347565b820191906000526020600020905b81548152906001019060200180831161032a57829003601f168201915b5050505050815260200160018201805480602002602001604051908101604052809291908181526020016000905b828210156104205760008481526020908190208301805460408051601f600260001961010060018716150201909416939093049283018590048502810185019091528181529283018282801561040c5780601f106103e15761010080835404028352916020019161040c565b820191906000526020600020905b8154815290600101906020018083116103ef57829003601f168201915b505050505081526020019060010190610375565b50505090825250600282810180546040805160206001841615610100026000190190931694909404601f810183900483028501830190915280845293810193908301828280156104b15780601f10610486576101008083540402835291602001916104b1565b820191906000526020600020905b81548152906001019060200180831161049457829003601f168201915b505050918352505060038201805460408051602060026001851615610100026000190190941693909304601f81018490048402820184019092528181529382019392918301828280156105455780601f1061051a57610100808354040283529160200191610545565b820191906000526020600020905b81548152906001019060200180831161052857829003601f168201915b505050918352505060048201805460408051602060026001851615610100026000190190941693909304601f81018490048402820184019092528181529382019392918301828280156105d95780601f106105ae576101008083540402835291602001916105d9565b820191906000526020600020905b8154815290600101906020018083116105bc57829003601f168201915b50505091835250506040805160058401805460606020601f600260001961010060018716150201909416939093049283018190048102850182018652948401828152949095019492939192849291849184018282801561067a5780601f1061064f5761010080835404028352916020019161067a565b820191906000526020600020905b81548152906001019060200180831161065d57829003601f168201915b50505050508152602001600182018054600181600116156101000203166002900480601f01602080910402602001604051908101604052809291908181526020018280546001816001161561010002031660029004801561071c5780601f106106f15761010080835404028352916020019161071c565b820191906000526020600020905b8154815290600101906020018083116106ff57829003601f168201915b5050509190925250505090525081526009919091015460ff1615156020909101529392505050565b6000545b90565b60606000805480602002602001604051908101604052809291908181526020016000905b82821015610d6357600084815260209081902060408051600a8602909201805460026001821615610100026000190190911604601f8101859004909402830160a090810190925260808301848152929390928492909184918401828280156108185780601f106107ed57610100808354040283529160200191610818565b820191906000526020600020905b8154815290600101906020018083116107fb57829003601f168201915b50505050508152602001600182018054600181600116156101000203166002900480601f0160208091040260200160405190810160405280929190818152602001828054600181600116156101000203166002900480156108ba5780601f1061088f576101008083540402835291602001916108ba565b820191906000526020600020905b81548152906001019060200180831161089d57829003601f168201915b5050509183525050604080516002848101805460e06020601f600019610100600186161502019093169490940491820184900484028501810190955260c0840181815292909501949293909284929184919084018282801561095d5780601f106109325761010080835404028352916020019161095d565b820191906000526020600020905b81548152906001019060200180831161094057829003601f168201915b5050505050815260200160018201805480602002602001604051908101604052809291908181526020016000905b82821015610a365760008481526020908190208301805460408051601f6002600019610100600187161502019094169390930492830185900485028101850190915281815292830182828015610a225780601f106109f757610100808354040283529160200191610a22565b820191906000526020600020905b815481529060010190602001808311610a0557829003601f168201915b50505050508152602001906001019061098b565b50505090825250600282810180546040805160206001841615610100026000190190931694909404601f81018390048302850183019091528084529381019390830182828015610ac75780601f10610a9c57610100808354040283529160200191610ac7565b820191906000526020600020905b815481529060010190602001808311610aaa57829003601f168201915b505050918352505060038201805460408051602060026001851615610100026000190190941693909304601f8101849004840282018401909252818152938201939291830182828015610b5b5780601f10610b3057610100808354040283529160200191610b5b565b820191906000526020600020905b815481529060010190602001808311610b3e57829003601f168201915b505050918352505060048201805460408051602060026001851615610100026000190190941693909304601f8101849004840282018401909252818152938201939291830182828015610bef5780601f10610bc457610100808354040283529160200191610bef565b820191906000526020600020905b815481529060010190602001808311610bd257829003601f168201915b50505091835250506040805160058401805460606020601f6002600019610100600187161502019094169390930492830181900481028501820186529484018281529490950194929391928492918491840182828015610c905780601f10610c6557610100808354040283529160200191610c90565b820191906000526020600020905b815481529060010190602001808311610c7357829003601f168201915b50505050508152602001600182018054600181600116156101000203166002900480601f016020809104026020016040519081016040528092919081815260200182805460018160011615610100020316600290048015610d325780601f10610d0757610100808354040283529160200191610d32565b820191906000526020600020905b815481529060010190602001808311610d1557829003601f168201915b5050509190925250505090525081526009919091015460ff161515602091820152908252600192909201910161076f565b50505050905090565b6000600182600001516040518082805190602001908083835b60208310610da45780518252601f199092019160209182019101610d85565b51815160209384036101000a600019018019909216911617905292019485525060405193849003810190932085518051919550610de69486945001915061112b565b506020808301518051610dff926001850192019061112b565b50606082015160098201805460ff19169115159190911790556040820151805180516002840191610e359183916020019061112b565b506020828101518051610e4e92600185019201906111a9565b5060408201518051610e6a91600284019160209091019061112b565b5060608201518051610e8691600384019160209091019061112b565b5060808201518051610ea291600484019160209091019061112b565b5060a0820151805180516005840191610ec09183916020019061112b565b506020828101518051610ed9926001850192019061112b565b50600093505050505b82604001516020015151811015610f4757604083015160200151805160038401919083908110610f0e57fe5b60209081029091018101518254600181018085556000948552938390208251610f3d949190920192019061112b565b5050600101610ee2565b5060008054600181810180845592805283548492600a027f290decd9548b62a8d60345a988386fc84ba6bc95484008f6362f93160ef3e5630191610fa1918391859160026101009282161592909202600019011604611202565b5060018201816001019080546001816001161561010002031660029004610fc9929190611202565b5060028281018054909183810191610ff591839185916000196101006001841615020190911604611202565b506001828101805461100a9284019190611277565b506002828101805461102f928481019291600019610100600183161502011604611202565b5060038201816003019080546001816001161561010002031660029004611057929190611202565b506004820181600401908054600181600116156101000203166002900461107f929190611202565b506005828101805490918301906110ac908290849060026000196101006001841615020190911604611202565b50600182018160010190805460018160011615610100020316600290046110d4929190611202565b5050505060099283015491909201805460ff191660ff909216151591909117905550505050565b61014060405190810160405280606081526020016060815260200161111e6112d5565b8152600060209091015290565b828054600181600116156101000203166002900490600052602060002090601f016020900481019282601f1061116c57805160ff1916838001178555611199565b82800160010185558215611199579182015b8281111561119957825182559160200191906001019061117e565b506111a5929150611311565b5090565b8280548282559060005260206000209081019282156111f6579160200282015b828111156111f657825180516111e691849160209091019061112b565b50916020019190600101906111c9565b506111a592915061132b565b828054600181600116156101000203166002900490600052602060002090601f016020900481019282601f1061123b5780548555611199565b8280016001018555821561119957600052602060002091601f016020900482015b8281111561119957825482559160010191906001019061125c565b8280548282559060005260206000209081019282156111f65760005260206000209182015b828111156111f657828290805460018160011615610100020316600290046112c5929190611202565b509160010191906001019061129c565b60e060405190810160405280606081526020016060815260200160608152602001606081526020016060815260200161130c61134e565b905290565b61074891905b808211156111a55760008155600101611317565b61074891905b808211156111a55760006113458282611365565b50600101611331565b604080518082019091526060808252602082015290565b50805460018160011615610100020316600290046000825580601f1061138b57506113a9565b601f0160209004906000526020600020908101906113a99190611311565b50565b6000601f820183136113bd57600080fd5b81356113d06113cb826119e8565b6119c1565b81815260209384019390925082018360005b8381101561140e57813586016113f8888261142b565b84525060209283019291909101906001016113e2565b5050505092915050565b60006114248235611a3b565b9392505050565b6000601f8201831361143c57600080fd5b813561144a6113cb82611a09565b9150808252602083016020830185838301111561146657600080fd5b611471838284611a40565b50505092915050565b60006040828403121561148c57600080fd5b61149660406119c1565b9050813567ffffffffffffffff8111156114af57600080fd5b6114bb8482850161142b565b825250602082013567ffffffffffffffff8111156114d857600080fd5b6114e48482850161142b565b60208301525092915050565b600060c0828403121561150257600080fd5b61150c60c06119c1565b9050813567ffffffffffffffff81111561152557600080fd5b6115318482850161142b565b825250602082013567ffffffffffffffff81111561154e57600080fd5b61155a848285016113ac565b602083015250604082013567ffffffffffffffff81111561157a57600080fd5b6115868482850161142b565b604083015250606082013567ffffffffffffffff8111156115a657600080fd5b6115b28482850161142b565b606083015250608082013567ffffffffffffffff8111156115d257600080fd5b6115de8482850161142b565b60808301525060a082013567ffffffffffffffff8111156115fe57600080fd5b61160a8482850161147a565b60a08301525092915050565b60006080828403121561162857600080fd5b61163260806119c1565b9050813567ffffffffffffffff81111561164b57600080fd5b6116578482850161142b565b825250602082013567ffffffffffffffff81111561167457600080fd5b6116808482850161142b565b602083015250604082013567ffffffffffffffff8111156116a057600080fd5b6116ac848285016114f0565b60408301525060606116c084828501611418565b60608301525092915050565b6000602082840312156116de57600080fd5b813567ffffffffffffffff8111156116f557600080fd5b6117018482850161142b565b949350505050565b60006020828403121561171b57600080fd5b813567ffffffffffffffff81111561173257600080fd5b61170184828501611616565b600061174982611a37565b8084526020840193508360208202850161176285611a31565b60005b8481101561179957838303885261177d83835161180f565b925061178882611a31565b602098909801979150600101611765565b50909695505050505050565b60006117b082611a37565b808452602084019350836020820285016117c985611a31565b60005b848110156117995783830388526117e4838351611919565b92506117ef82611a31565b6020989098019791506001016117cc565b61180981611a3b565b82525050565b600061181a82611a37565b80845261182e816020860160208601611a4c565b61183781611a7c565b9093016020019392505050565b805160408084526000919084019061185c828261180f565b91505060208301518482036020860152611876828261180f565b95945050505050565b805160c080845260009190840190611897828261180f565b915050602083015184820360208601526118b1828261173e565b915050604083015184820360408601526118cb828261180f565b915050606083015184820360608601526118e5828261180f565b915050608083015184820360808601526118ff828261180f565b91505060a083015184820360a08601526118768282611844565b8051608080845260009190840190611931828261180f565b9150506020830151848203602086015261194b828261180f565b91505060408301518482036040860152611965828261187f565b915050606083015161197a6060860182611800565b509392505050565b61180981610748565b6020808252810161142481846117a5565b602080825281016114248184611919565b602081016119bb8284611982565b92915050565b60405181810167ffffffffffffffff811182821017156119e057600080fd5b604052919050565b600067ffffffffffffffff8211156119ff57600080fd5b5060209081020190565b600067ffffffffffffffff821115611a2057600080fd5b506020601f91909101601f19160190565b60200190565b5190565b151590565b82818337506000910152565b60005b83811015611a67578181015183820152602001611a4f565b83811115611a76576000848401525b50505050565b601f01601f19169056fea265627a7a7230582084d99d69502f8cce6c29de54c1dff2bf61072173a9245ca6ac12d73f3eb6d60d6c6578706572696d656e74616cf50037",
  "source": "// SPDX-License-Identifier: MIT\r\npragma solidity >=0.4.22 <0.9.0;\r\npragma experimental ABIEncoderV2;\r\n\r\ncontract Test {\r\n    struct TestStruct {\r\n        string token;\r\n        string name;\r\n        TestStructArgument Argument;\r\n        bool isBlocked;\r\n    }\r\n\r\n    struct TestStructArgument {\r\n        string token;\r\n        string[] arrayElements;\r\n        string field1;\r\n        string field2;\r\n        string field3;\r\n        Array array;\r\n    }\r\n\r\n    struct Array {\r\n        string token;\r\n        string comment;\r\n    }\r\n\r\n    //[\"0xA27eEfe6b5180F085CE6Aa5D6DaA81d1c35153C0\", \"Test\", [\"0xA27eEfe6b5180F085CE6Aa5D6DaA81d1c35153C0\",[\"Array element 1\", \"array element 2\"], \"Field1\",\"Field2\",\"Field3\",[\"0xA27eEfe6b5180F085CE6Aa5D6DaA81d1c35153C0\", \"Comment\"]], true]\r\n    TestStruct[] testStructs;\r\n    mapping(string => TestStruct) internal mapTestStruct;\r\n\r\n    function addTestStruct(TestStruct memory testStructToAdd) public {\r\n        TestStruct storage testStruct = mapTestStruct[testStructToAdd.token];\r\n\r\n        testStruct.token = testStructToAdd.token;\r\n        testStruct.name = testStructToAdd.name;\r\n        testStruct.isBlocked = testStructToAdd.isBlocked;\r\n        testStruct.Argument = testStructToAdd.Argument;\r\n        for (\r\n            uint256 i = 0;\r\n            i < testStructToAdd.Argument.arrayElements.length;\r\n            i++\r\n        ) {\r\n            testStruct.Argument.arrayElements.push(\r\n                testStructToAdd.Argument.arrayElements[i]\r\n            );\r\n        }\r\n\r\n        testStructs.push(testStruct);\r\n    }\r\n\r\n    function getTestStructs() public view returns (TestStruct[] memory) {\r\n        return testStructs;\r\n    }\r\n\r\n    function getTestStructLength() public view returns (uint256) {\r\n        return testStructs.length;\r\n    }\r\n\r\n    function testStructExists(string memory token) private view returns (bool) {\r\n        TestStruct memory testStruct = getTestStructByToken(token);\r\n\r\n        return\r\n            keccak256(abi.encodePacked(testStruct.token)) ==\r\n            keccak256(abi.encodePacked(token));\r\n    }\r\n\r\n    function getTestStructByToken(string memory token)\r\n        public\r\n        view\r\n        returns (TestStruct memory)\r\n    {\r\n        TestStruct storage testStruct = mapTestStruct[token];\r\n        return testStruct;\r\n    }\r\n}\r\n",
  "sourcePath": "C:\\Users\\skott\\Desktop\\Projects\\_Blockchain\\Projects\\MoviesFE\\contracts\\Test.sol",
  "compiler": {
    "name": "solc",
    "version": "0.5.0+commit.1d4f565a.Emscripten.clang"
  },
  "schemaVersion": "3.0.1",
  "updatedAt": "2022-03-21T18:53:29.543Z",
  "devdoc": {
    "methods": {}
  },
  "userdoc": {
    "methods": {}
  }
}