{
  "contractName": "Test",
  "abi": [
    {
      "constant": true,
      "inputs": [],
      "name": "getTestStructs",
      "outputs": [
        {
          "components": [
            {
              "name": "token",
              "type": "string"
            },
            {
              "name": "name",
              "type": "string"
            },
            {
              "components": [
                {
                  "name": "token",
                  "type": "string"
                },
                {
                  "name": "name",
                  "type": "string"
                }
              ],
              "name": "linkedStruct",
              "type": "tuple"
            }
          ],
          "name": "",
          "type": "tuple[]"
        }
      ],
      "payable": false,
      "stateMutability": "view",
      "type": "function"
    },
    {
      "constant": true,
      "inputs": [
        {
          "name": "token",
          "type": "string"
        }
      ],
      "name": "getTestStructByToken",
      "outputs": [
        {
          "components": [
            {
              "name": "token",
              "type": "string"
            },
            {
              "name": "name",
              "type": "string"
            },
            {
              "components": [
                {
                  "name": "token",
                  "type": "string"
                },
                {
                  "name": "name",
                  "type": "string"
                }
              ],
              "name": "linkedStruct",
              "type": "tuple"
            }
          ],
          "name": "",
          "type": "tuple"
        }
      ],
      "payable": false,
      "stateMutability": "view",
      "type": "function"
    },
    {
      "constant": false,
      "inputs": [
        {
          "components": [
            {
              "name": "token",
              "type": "string"
            },
            {
              "name": "name",
              "type": "string"
            },
            {
              "components": [
                {
                  "name": "token",
                  "type": "string"
                },
                {
                  "name": "name",
                  "type": "string"
                }
              ],
              "name": "linkedStruct",
              "type": "tuple"
            }
          ],
          "name": "testStructToAdd",
          "type": "tuple"
        }
      ],
      "name": "addTestStruct",
      "outputs": [
        {
          "name": "",
          "type": "bool"
        }
      ],
      "payable": false,
      "stateMutability": "nonpayable",
      "type": "function"
    }
  ],
  "bytecode": "0x608060405234801561001057600080fd5b50611142806100206000396000f3fe608060405260043610610057576000357c0100000000000000000000000000000000000000000000000000000000900463ffffffff1680631069437a1461005c57806339b09c6814610099578063da48369a146100d6575b600080fd5b34801561006857600080fd5b50610083600480360361007e9190810190610d60565b610101565b6040516100909190610fd2565b60405180910390f35b3480156100a557600080fd5b506100c060048036036100bb9190810190610da1565b610429565b6040516100cd9190610fb7565b60405180910390f35b3480156100e257600080fd5b506100eb61061c565b6040516100f89190610f95565b60405180910390f35b610109610a22565b60006001836040518082805190602001908083835b602083101515610143578051825260208201915060208101905060208303925061011e565b6001836020036101000a038019825116818451168082178552505050505050905001915050908152602001604051809103902090508060606040519081016040529081600082018054600181600116156101000203166002900480601f01602080910402602001604051908101604052809291908181526020018280546001816001161561010002031660029004801561021e5780601f106101f35761010080835404028352916020019161021e565b820191906000526020600020905b81548152906001019060200180831161020157829003601f168201915b50505050508152602001600182018054600181600116156101000203166002900480601f0160208091040260200160405190810160405280929190818152602001828054600181600116156101000203166002900480156102c05780601f10610295576101008083540402835291602001916102c0565b820191906000526020600020905b8154815290600101906020018083116102a357829003601f168201915b5050505050815260200160028201604080519081016040529081600082018054600181600116156101000203166002900480601f0160208091040260200160405190810160405280929190818152602001828054600181600116156101000203166002900480156103725780601f1061034757610100808354040283529160200191610372565b820191906000526020600020905b81548152906001019060200180831161035557829003601f168201915b50505050508152602001600182018054600181600116156101000203166002900480601f0160208091040260200160405190810160405280929190818152602001828054600181600116156101000203166002900480156104145780601f106103e957610100808354040283529160200191610414565b820191906000526020600020905b8154815290600101906020018083116103f757829003601f168201915b50505050508152505081525050915050919050565b60006104388260000151610918565b1561044257600080fd5b6000600183600001516040518082805190602001908083835b602083101515610480578051825260208201915060208101905060208303925061045b565b6001836020036101000a0380198251168184511680821785525050505050509050019150509081526020016040518091039020905082602001518160010190805190602001906104d1929190610a4a565b5082600001518160000190805190602001906104ee929190610a4a565b50826040015160200151816002016001019080519060200190610512929190610a4a565b50826040015160000151816002016000019080519060200190610536929190610a4a565b50600081908060018154018082558091505090600182039060005260206000209060040201600090919290919091506000820181600001908054600181600116156101000203166002900461058c929190610aca565b50600182018160010190805460018160011615610100020316600290046105b4929190610aca565b506002820181600201600082018160000190805460018160011615610100020316600290046105e4929190610aca565b506001820181600101908054600181600116156101000203166002900461060c929190610aca565b5050505050506001915050919050565b60606000805480602002602001604051908101604052809291908181526020016000905b8282101561090f578382906000526020600020906004020160606040519081016040529081600082018054600181600116156101000203166002900480601f0160208091040260200160405190810160405280929190818152602001828054600181600116156101000203166002900480156106fd5780601f106106d2576101008083540402835291602001916106fd565b820191906000526020600020905b8154815290600101906020018083116106e057829003601f168201915b50505050508152602001600182018054600181600116156101000203166002900480601f01602080910402602001604051908101604052809291908181526020018280546001816001161561010002031660029004801561079f5780601f106107745761010080835404028352916020019161079f565b820191906000526020600020905b81548152906001019060200180831161078257829003601f168201915b5050505050815260200160028201604080519081016040529081600082018054600181600116156101000203166002900480601f0160208091040260200160405190810160405280929190818152602001828054600181600116156101000203166002900480156108515780601f1061082657610100808354040283529160200191610851565b820191906000526020600020905b81548152906001019060200180831161083457829003601f168201915b50505050508152602001600182018054600181600116156101000203166002900480601f0160208091040260200160405190810160405280929190818152602001828054600181600116156101000203166002900480156108f35780601f106108c8576101008083540402835291602001916108f3565b820191906000526020600020905b8154815290600101906020018083116108d657829003601f168201915b5050505050815250508152505081526020019060010190610640565b50505050905090565b6000610922610a22565b61092b83610101565b9050826040516020018082805190602001908083835b6020831015156109665780518252602082019150602081019050602083039250610941565b6001836020036101000a0380198251168184511680821785525050505050509050019150506040516020818303038152906040528051906020012081600001516040516020018082805190602001908083835b6020831015156109de57805182526020820191506020810190506020830392506109b9565b6001836020036101000a0380198251168184511680821785525050505050509050019150506040516020818303038152906040528051906020012014915050919050565b6080604051908101604052806060815260200160608152602001610a44610b51565b81525090565b828054600181600116156101000203166002900490600052602060002090601f016020900481019282601f10610a8b57805160ff1916838001178555610ab9565b82800160010185558215610ab9579182015b82811115610ab8578251825591602001919060010190610a9d565b5b509050610ac69190610b6b565b5090565b828054600181600116156101000203166002900490600052602060002090601f016020900481019282601f10610b035780548555610b40565b82800160010185558215610b4057600052602060002091601f016020900482015b82811115610b3f578254825591600101919060010190610b24565b5b509050610b4d9190610b6b565b5090565b604080519081016040528060608152602001606081525090565b610b8d91905b80821115610b89576000816000905550600101610b71565b5090565b90565b600082601f8301121515610ba357600080fd5b8135610bb6610bb182611021565b610ff4565b91508082526020830160208301858383011115610bd257600080fd5b610bdd8382846110b5565b50505092915050565b600082601f8301121515610bf957600080fd5b8135610c0c610c078261104d565b610ff4565b91508082526020830160208301858383011115610c2857600080fd5b610c338382846110b5565b50505092915050565b600060408284031215610c4e57600080fd5b610c586040610ff4565b9050600082013567ffffffffffffffff811115610c7457600080fd5b610c8084828501610b90565b600083015250602082013567ffffffffffffffff811115610ca057600080fd5b610cac84828501610b90565b60208301525092915050565b600060608284031215610cca57600080fd5b610cd46060610ff4565b9050600082013567ffffffffffffffff811115610cf057600080fd5b610cfc84828501610b90565b600083015250602082013567ffffffffffffffff811115610d1c57600080fd5b610d2884828501610b90565b602083015250604082013567ffffffffffffffff811115610d4857600080fd5b610d5484828501610c3c565b60408301525092915050565b600060208284031215610d7257600080fd5b600082013567ffffffffffffffff811115610d8c57600080fd5b610d9884828501610be6565b91505092915050565b600060208284031215610db357600080fd5b600082013567ffffffffffffffff811115610dcd57600080fd5b610dd984828501610cb8565b91505092915050565b6000610ded82611086565b80845260208401935083602082028501610e0685611079565b60005b84811015610e3f578383038852610e21838351610f37565b9250610e2c8261109c565b9150602088019750600181019050610e09565b508196508694505050505092915050565b610e59816110a9565b82525050565b6000610e6a82611091565b808452610e7e8160208601602086016110c4565b610e87816110f7565b602085010191505092915050565b60006040830160008301518482036000860152610eb28282610e5f565b91505060208301518482036020860152610ecc8282610e5f565b9150508091505092915050565b60006060830160008301518482036000860152610ef68282610e5f565b91505060208301518482036020860152610f108282610e5f565b91505060408301518482036040860152610f2a8282610e95565b9150508091505092915050565b60006060830160008301518482036000860152610f548282610e5f565b91505060208301518482036020860152610f6e8282610e5f565b91505060408301518482036040860152610f888282610e95565b9150508091505092915050565b60006020820190508181036000830152610faf8184610de2565b905092915050565b6000602082019050610fcc6000830184610e50565b92915050565b60006020820190508181036000830152610fec8184610ed9565b905092915050565b6000604051905081810181811067ffffffffffffffff8211171561101757600080fd5b8060405250919050565b600067ffffffffffffffff82111561103857600080fd5b601f19601f8301169050602081019050919050565b600067ffffffffffffffff82111561106457600080fd5b601f19601f8301169050602081019050919050565b6000602082019050919050565b600081519050919050565b600081519050919050565b6000602082019050919050565b60008115159050919050565b82818337600083830152505050565b60005b838110156110e25780820151818401526020810190506110c7565b838111156110f1576000848401525b50505050565b6000601f19601f830116905091905056fea265627a7a72305820fd3bc4248852b5c9f6b93b13c5042fad63e92cf53f725680b23b714c668089646c6578706572696d656e74616cf50037",
  "source": "// SPDX-License-Identifier: MIT\r\npragma solidity >=0.4.22 <0.9.0;\r\npragma experimental ABIEncoderV2;\r\n\r\ncontract Test {\r\n    //[\"0xA27eEfe6b5180F085CE6Aa5D6DaA81d1c35153C0\", \"Company 1\", [\"0xA27eEfe6b5180F085CE6Aa5D6DaA81d1c35153C0\",\"name 1\"]]\r\n\r\n    struct TestStruct {\r\n        string token;\r\n        string name;\r\n        TestStructLinkStruct linkedStruct;\r\n    }\r\n\r\n    struct TestStructLinkStruct {\r\n        string token;\r\n        string name;\r\n    }\r\n\r\n    TestStruct[] TestStructs;\r\n    mapping(string => TestStruct) internal mapTestStruct;\r\n\r\n    function getTestStructs() public view returns (TestStruct[] memory) {\r\n        return TestStructs;\r\n    }\r\n\r\n    function getTestStructByToken(string memory token)\r\n        public\r\n        view\r\n        returns (TestStruct memory)\r\n    {\r\n        TestStruct storage testStruct = mapTestStruct[token];\r\n        return testStruct;\r\n    }\r\n\r\n    function addTestStruct(TestStruct memory testStructToAdd)\r\n        public\r\n        returns (bool)\r\n    {\r\n        if (structExists(testStructToAdd.token)) {\r\n            revert();\r\n        }\r\n\r\n        TestStruct storage testStruct = mapTestStruct[testStructToAdd.token];\r\n        testStruct.name = testStructToAdd.name;\r\n        testStruct.token = testStructToAdd.token;\r\n\r\n        testStruct.linkedStruct.name = testStructToAdd.linkedStruct.name;\r\n        testStruct.linkedStruct.token = testStructToAdd.linkedStruct.token;\r\n\r\n        TestStructs.push(testStruct);\r\n\r\n        return true;\r\n    }\r\n\r\n    function structExists(string memory token) private view returns (bool) {\r\n        TestStruct memory testStruct = getTestStructByToken(token);\r\n\r\n        return\r\n            keccak256(abi.encodePacked(testStruct.token)) ==\r\n            keccak256(abi.encodePacked(token));\r\n    }\r\n}\r\n",
  "sourcePath": "C:/Users/skott/Desktop/Projects/_Blockchain/Projects/MoviesFE/contracts/Test.sol",
  "compiler": {
    "name": "solc",
    "version": "0.5.0+commit.1d4f565a.Emscripten.clang"
  },
  "schemaVersion": "3.0.1",
  "updatedAt": "2022-03-14T04:20:19.964Z",
  "devdoc": {
    "methods": {}
  },
  "userdoc": {
    "methods": {}
  }
}