{
  "contractName": "Tickets",
  "abi": [
    {
      "constant": false,
      "inputs": [
        {
          "name": "token",
          "type": "address"
        },
        {
          "name": "dateOfPurchase",
          "type": "uint256"
        },
        {
          "name": "name",
          "type": "string"
        }
      ],
      "name": "AddTicket",
      "outputs": [],
      "payable": false,
      "stateMutability": "nonpayable",
      "type": "function",
      "signature": "0x9efa2e9e"
    },
    {
      "constant": false,
      "inputs": [
        {
          "components": [
            {
              "name": "token",
              "type": "address"
            },
            {
              "name": "dateOfPurchase",
              "type": "uint256"
            }
          ],
          "name": "ticketToAdd",
          "type": "tuple"
        }
      ],
      "name": "AddTicketWithStruct",
      "outputs": [],
      "payable": false,
      "stateMutability": "nonpayable",
      "type": "function",
      "signature": "0x4e6a83d5"
    },
    {
      "constant": true,
      "inputs": [
        {
          "name": "token",
          "type": "address"
        }
      ],
      "name": "GetCustomerTickets",
      "outputs": [
        {
          "components": [
            {
              "name": "token",
              "type": "address"
            },
            {
              "name": "dateOfPurchase",
              "type": "uint256"
            }
          ],
          "name": "tickets",
          "type": "tuple[]"
        }
      ],
      "payable": false,
      "stateMutability": "view",
      "type": "function",
      "signature": "0x25071612"
    }
  ],
  "bytecode": "0x608060405234801561001057600080fd5b50610909806100206000396000f3fe608060405260043610610057576000357c0100000000000000000000000000000000000000000000000000000000900463ffffffff168063250716121461005c5780634e6a83d5146100995780639efa2e9e146100c2575b600080fd5b34801561006857600080fd5b50610083600480360361007e9190810190610667565b6100eb565b60405161009091906107c8565b60405180910390f35b3480156100a557600080fd5b506100c060048036036100bb91908101906106f7565b6101f1565b005b3480156100ce57600080fd5b506100e960048036036100e49190810190610690565b610332565b005b606060008060008473ffffffffffffffffffffffffffffffffffffffff1673ffffffffffffffffffffffffffffffffffffffff168152602001908152602001600020905080600201805480602002602001604051908101604052809291908181526020016000905b828210156101e557838290600052602060002090600202016040805190810160405290816000820160009054906101000a900473ffffffffffffffffffffffffffffffffffffffff1673ffffffffffffffffffffffffffffffffffffffff1673ffffffffffffffffffffffffffffffffffffffff16815260200160018201548152505081526020019060010190610153565b50505050915050919050565b600060016000836000015173ffffffffffffffffffffffffffffffffffffffff1673ffffffffffffffffffffffffffffffffffffffff16815260200190815260200160002090508160200151816001018190555081600001518160000160006101000a81548173ffffffffffffffffffffffffffffffffffffffff021916908373ffffffffffffffffffffffffffffffffffffffff160217905550600281908060018154018082558091505090600182039060005260206000209060020201600090919290919091506000820160009054906101000a900473ffffffffffffffffffffffffffffffffffffffff168160000160006101000a81548173ffffffffffffffffffffffffffffffffffffffff021916908373ffffffffffffffffffffffffffffffffffffffff160217905550600182015481600101555050505050565b826000808573ffffffffffffffffffffffffffffffffffffffff1673ffffffffffffffffffffffffffffffffffffffff16815260200190815260200160002060000160006101000a81548173ffffffffffffffffffffffffffffffffffffffff021916908373ffffffffffffffffffffffffffffffffffffffff160217905550806000808573ffffffffffffffffffffffffffffffffffffffff1673ffffffffffffffffffffffffffffffffffffffff16815260200190815260200160002060010190805190602001906104079291906104f8565b506000808473ffffffffffffffffffffffffffffffffffffffff1673ffffffffffffffffffffffffffffffffffffffff16815260200190815260200160002060020160408051908101604052808573ffffffffffffffffffffffffffffffffffffffff168152602001848152509080600181540180825580915050906001820390600052602060002090600202016000909192909190915060008201518160000160006101000a81548173ffffffffffffffffffffffffffffffffffffffff021916908373ffffffffffffffffffffffffffffffffffffffff16021790555060208201518160010155505050505050565b828054600181600116156101000203166002900490600052602060002090601f016020900481019282601f1061053957805160ff1916838001178555610567565b82800160010185558215610567579182015b8281111561056657825182559160200191906001019061054b565b5b5090506105749190610578565b5090565b61059a91905b8082111561059657600081600090555060010161057e565b5090565b90565b60006105a982356108a4565b905092915050565b600082601f83011215156105c457600080fd5b81356105d76105d282610817565b6107ea565b915080825260208301602083018583830111156105f357600080fd5b6105fe8382846108c0565b50505092915050565b60006040828403121561061957600080fd5b61062360406107ea565b905060006106338482850161059d565b600083015250602061064784828501610653565b60208301525092915050565b600061065f82356108b6565b905092915050565b60006020828403121561067957600080fd5b60006106878482850161059d565b91505092915050565b6000806000606084860312156106a557600080fd5b60006106b38682870161059d565b93505060206106c486828701610653565b925050604084013567ffffffffffffffff8111156106e157600080fd5b6106ed868287016105b1565b9150509250925092565b60006040828403121561070957600080fd5b600061071784828501610607565b91505092915050565b61072981610868565b82525050565b600061073a82610850565b80845260208401935061074c83610843565b60005b8281101561077e5761076286835161078a565b61076b8261085b565b915060408601955060018101905061074f565b50849250505092915050565b6040820160008201516107a06000850182610720565b5060208201516107b360208501826107b9565b50505050565b6107c28161089a565b82525050565b600060208201905081810360008301526107e2818461072f565b905092915050565b6000604051905081810181811067ffffffffffffffff8211171561080d57600080fd5b8060405250919050565b600067ffffffffffffffff82111561082e57600080fd5b601f19601f8301169050602081019050919050565b6000602082019050919050565b600081519050919050565b6000602082019050919050565b60006108738261087a565b9050919050565b600073ffffffffffffffffffffffffffffffffffffffff82169050919050565b6000819050919050565b60006108af8261087a565b9050919050565b6000819050919050565b8281833760008383015250505056fea265627a7a723058209f9da97947afa1557bf0941b2e5a4900a15770b69caa73c9060eb12b5ec17e8e6c6578706572696d656e74616cf50037",
  "source": "// SPDX-License-Identifier: MIT\r\npragma solidity >=0.4.22 <0.9.0;\r\npragma experimental ABIEncoderV2;\r\n\r\ncontract Tickets {\r\n    struct TicketStruct {\r\n        address token;\r\n        uint256 dateOfPurchase;\r\n    }\r\n\r\n    struct CustomerStruct {\r\n        address token;\r\n        string name;\r\n        TicketStruct[] tickets;\r\n    }\r\n\r\n    mapping(address => CustomerStruct) internal customerStructs;\r\n    mapping(address => TicketStruct) internal ticketStructs;\r\n\r\n    TicketStruct[] TicketsArray;\r\n\r\n    function AddTicket(\r\n        address token,\r\n        uint256 dateOfPurchase,\r\n        string memory name\r\n    ) public {\r\n        // if (TicketExists(token)) {\r\n        //     revert();\r\n        // }\r\n        customerStructs[token].token = token;\r\n        customerStructs[token].name = name;\r\n        customerStructs[token].tickets.push(\r\n            TicketStruct(token, dateOfPurchase)\r\n        );\r\n    }\r\n\r\n    function AddTicketWithStruct(TicketStruct memory ticketToAdd) public {\r\n        TicketStruct storage ticket = ticketStructs[ticketToAdd.token];\r\n\r\n        ticket.dateOfPurchase = ticketToAdd.dateOfPurchase;\r\n        ticket.token = ticketToAdd.token;\r\n\r\n        TicketsArray.push(ticket);\r\n    }\r\n\r\n    function GetCustomerTickets(address token)\r\n        public\r\n        view\r\n        returns (TicketStruct[] memory tickets)\r\n    {\r\n        CustomerStruct storage customer = customerStructs[token];\r\n        return customer.tickets;\r\n    }\r\n\r\n    function TicketExists(address token) private view returns (bool) {\r\n        return (customerStructs[token].token == token);\r\n    }\r\n}\r\n",
  "sourcePath": "C:/Users/skott/Desktop/Projects/_Blockchain/Projects/MoviesFE/contracts/Tickets.sol",
  "compiler": {
    "name": "solc",
    "version": "0.5.0+commit.1d4f565a.Emscripten.clang"
  },
  "schemaVersion": "3.0.1",
  "updatedAt": "2022-03-11T03:36:42.345Z",
  "devdoc": {
    "methods": {}
  },
  "userdoc": {
    "methods": {}
  }
}