{
  "contractName": "Tickets",
  "abi": [
    {
      "anonymous": false,
      "inputs": [
        {
          "indexed": false,
          "name": "token",
          "type": "address"
        },
        {
          "indexed": false,
          "name": "dateOfPurchase",
          "type": "uint256"
        }
      ],
      "name": "LogNewTicket",
      "type": "event"
    },
    {
      "anonymous": false,
      "inputs": [
        {
          "indexed": false,
          "name": "token",
          "type": "address"
        },
        {
          "indexed": false,
          "name": "name",
          "type": "string"
        },
        {
          "components": [
            {
              "name": "token",
              "type": "address"
            },
            {
              "name": "dateOfPurchase",
              "type": "uint256"
            }
          ],
          "indexed": false,
          "name": "tickets",
          "type": "tuple[]"
        }
      ],
      "name": "LogNewCustomer",
      "type": "event"
    },
    {
      "constant": false,
      "inputs": [
        {
          "name": "token",
          "type": "address"
        },
        {
          "name": "dateOfPurchase",
          "type": "uint256"
        },
        {
          "name": "name",
          "type": "string"
        }
      ],
      "name": "AddTicket",
      "outputs": [],
      "payable": false,
      "stateMutability": "nonpayable",
      "type": "function"
    },
    {
      "constant": false,
      "inputs": [
        {
          "components": [
            {
              "name": "token",
              "type": "address"
            },
            {
              "name": "dateOfPurchase",
              "type": "uint256"
            }
          ],
          "name": "ticketToAdd",
          "type": "tuple"
        }
      ],
      "name": "AddTicketWithStruct",
      "outputs": [
        {
          "name": "",
          "type": "bool"
        }
      ],
      "payable": false,
      "stateMutability": "nonpayable",
      "type": "function"
    },
    {
      "constant": false,
      "inputs": [
        {
          "components": [
            {
              "name": "token",
              "type": "address"
            },
            {
              "name": "name",
              "type": "string"
            },
            {
              "components": [
                {
                  "name": "token",
                  "type": "address"
                },
                {
                  "name": "dateOfPurchase",
                  "type": "uint256"
                }
              ],
              "name": "tickets",
              "type": "tuple[]"
            }
          ],
          "name": "customerToAdd",
          "type": "tuple"
        }
      ],
      "name": "AddCustomerWithStruct",
      "outputs": [
        {
          "name": "",
          "type": "bool"
        }
      ],
      "payable": false,
      "stateMutability": "nonpayable",
      "type": "function"
    },
    {
      "constant": true,
      "inputs": [
        {
          "name": "token",
          "type": "address"
        }
      ],
      "name": "GetCustomerTickets",
      "outputs": [
        {
          "components": [
            {
              "name": "token",
              "type": "address"
            },
            {
              "name": "dateOfPurchase",
              "type": "uint256"
            }
          ],
          "name": "tickets",
          "type": "tuple[]"
        }
      ],
      "payable": false,
      "stateMutability": "view",
      "type": "function"
    },
    {
      "constant": true,
      "inputs": [],
      "name": "GetTicketsArray",
      "outputs": [
        {
          "components": [
            {
              "name": "token",
              "type": "address"
            },
            {
              "name": "dateOfPurchase",
              "type": "uint256"
            }
          ],
          "name": "",
          "type": "tuple[]"
        }
      ],
      "payable": false,
      "stateMutability": "view",
      "type": "function"
    }
  ],
  "bytecode": "0x608060405234801561001057600080fd5b50610edf806100206000396000f3fe60806040526004361061006c5763ffffffff7c01000000000000000000000000000000000000000000000000000000006000350416632507161281146100715780634e6a83d5146100a75780637b620a20146100d4578063911d3088146100f45780639efa2e9e14610109575b600080fd5b34801561007d57600080fd5b5061009161008c366004610ab8565b61012b565b60405161009e9190610d91565b60405180910390f35b3480156100b357600080fd5b506100c76100c2366004610b78565b6101b9565b60405161009e9190610da2565b3480156100e057600080fd5b506100c76100ef366004610b43565b6102aa565b34801561010057600080fd5b50610091610491565b34801561011557600080fd5b50610129610124366004610ade565b610507565b005b600160a060020a03811660009081526020818152604080832060028101805483518186028101860190945280845260609592949192909184015b828210156101ad57600084815260209081902060408051808201909152600285029091018054600160a060020a03168252600190810154828401529083529092019101610165565b50505050915050919050565b8051600160a060020a0390811660009081526001602081815260408084209186015182840190815586518354908716600160a060020a0319918216178455600280549586018155808752845495027f405787fa12a823e0f2b7631cc41b3ba8828b3321ca811111fa75cd3aa3bb5ace81018054909216958816959095179055547f405787fa12a823e0f2b7631cc41b3ba8828b3321ca811111fa75cd3aa3bb5acf90930183905581549051939491937f6fd6e170816233f3df8672d1a3e7e84a06d9444b954b79de534a2b42491065599361029993929092169190610d76565b60405180910390a150600192915050565b8051600160a060020a0316600090815260208181526040822081840151805191926102dd9260018501929091019061074b565b5082518154600160a060020a031916600160a060020a0390911617815560005b836040015151811015610394578160020160408051908101604052808660000151600160a060020a0316815260200186604001518481518110151561033e57fe5b60209081029190910181015181015190915282546001808201855560009485529382902083516002909202018054600160a060020a031916600160a060020a0390921691909117815591015190820155016102fd565b5060038054600181810180845560008490528454929093027fc2575a0e9e593c00f959f8c92f12db2869c3395a3b0502d05e2516446f71f85b81018054600160a060020a031916600160a060020a039094169390931783558185018054869493610431937fc2575a0e9e593c00f959f8c92f12db2869c3395a3b0502d05e2516446f71f85c019291600291811615610100026000190116046107c9565b5060028281018054610446928401919061083e565b5050825460408087015190517f30833956aec85271aa378accde1497ce03ea2249ffe5b27c61d6cd054eaaef3294506102999350600160a060020a0390921691600186019190610d39565b60606002805480602002602001604051908101604052809291908181526020016000905b828210156104fd57600084815260209081902060408051808201909152600285029091018054600160a060020a031682526001908101548284015290835290920191016104b5565b5050505090505b90565b6105108361066e565b156105ca57606061058b6040805190810160405280601881526020017f5469636b65742077697468207468697320746f6b656e3a2000000000000000008152506040805190810160405280600e81526020017f20616c726561647920657869737400000000000000000000000000000000000081525061068f565b9050806040517f08c379a00000000000000000000000000000000000000000000000000000000081526004016105c19190610db0565b60405180910390fd5b600160a060020a0383166000818152602081815260409091208054600160a060020a03191690921782558251610606926001019184019061074b565b5050600160a060020a0391821660008181526020818152604080832081518083019092529381528082019485526002938401805460018082018355918552929093209051919093029092018054600160a060020a031916929094169190911783559051910155565b600160a060020a039081166000818152602081905260409020549091161490565b606082826040516020018083805190602001908083835b602083106106c55780518252601f1990920191602091820191016106a6565b51815160209384036101000a600019018019909216911617905285519190930192850191508083835b6020831061070d5780518252601f1990920191602091820191016106ee565b6001836020036101000a0380198251168184511680821785525050505050509050019250505060405160208183030381529060405290505b92915050565b828054600181600116156101000203166002900490600052602060002090601f016020900481019282601f1061078c57805160ff19168380011785556107b9565b828001600101855582156107b9579182015b828111156107b957825182559160200191906001019061079e565b506107c59291506108b2565b5090565b828054600181600116156101000203166002900490600052602060002090601f016020900481019282601f1061080257805485556107b9565b828001600101855582156107b957600052602060002091601f016020900482015b828111156107b9578254825591600101919060010190610823565b8280548282559060005260206000209060020281019282156108a65760005260206000209160020282015b828111156108a65782548254600160a060020a031916600160a060020a039091161782556001808401549083015560029283019290910190610869565b506107c59291506108cc565b61050491905b808211156107c557600081556001016108b8565b61050491905b808211156107c5578054600160a060020a0319168155600060018201556002016108d2565b60006109038235610e47565b9392505050565b6000601f8201831361091b57600080fd5b813561092e61092982610de8565b610dc1565b9150818183526020840193506020810190508385604084028201111561095357600080fd5b60005b8381101561098157816109698882610a65565b84525060209092019160409190910190600101610956565b5050505092915050565b6000601f8201831361099c57600080fd5b81356109aa61092982610e09565b915080825260208301602083018583830111156109c657600080fd5b6109d1838284610e63565b50505092915050565b6000606082840312156109ec57600080fd5b6109f66060610dc1565b90506000610a0484846108f7565b825250602082013567ffffffffffffffff811115610a2157600080fd5b610a2d8482850161098b565b602083015250604082013567ffffffffffffffff811115610a4d57600080fd5b610a598482850161090a565b60408301525092915050565b600060408284031215610a7757600080fd5b610a816040610dc1565b90506000610a8f84846108f7565b8252506020610aa084848301610aac565b60208301525092915050565b60006109038235610504565b600060208284031215610aca57600080fd5b6000610ad684846108f7565b949350505050565b600080600060608486031215610af357600080fd5b6000610aff86866108f7565b9350506020610b1086828701610aac565b925050604084013567ffffffffffffffff811115610b2d57600080fd5b610b398682870161098b565b9150509250925092565b600060208284031215610b5557600080fd5b813567ffffffffffffffff811115610b6c57600080fd5b610ad6848285016109da565b600060408284031215610b8a57600080fd5b6000610ad68484610a65565b610b9f81610e47565b82525050565b6000610bb082610e43565b808452602084019350610bc283610e31565b60005b82811015610bf257610bd8868351610d06565b610be182610e31565b604096909601959150600101610bc5565b5093949350505050565b6000610c0782610e43565b808452602084019350610c1983610e31565b60005b82811015610bf257610c2f868351610d06565b610c3882610e31565b604096909601959150600101610c1c565b610b9f81610e52565b6000610c5d82610e43565b808452610c71816020860160208601610e6f565b610c7a81610e9b565b9093016020019392505050565b600081546001811660008114610ca45760018114610cc257610cfe565b60028204607f16855260ff1982166020860152604085019250610cfe565b60028204808652602086019550610cd885610e37565b60005b82811015610cf757815488820152600190910190602001610cdb565b8701945050505b505092915050565b80516040830190610d178482610b96565b506020820151610d2a6020850182610d30565b50505050565b610b9f81610504565b60608101610d478286610b96565b8181036020830152610d598185610c87565b90508181036040830152610d6d8184610bfc565b95945050505050565b60408101610d848285610b96565b6109036020830184610d30565b602080825281016109038184610ba5565b602081016107458284610c49565b602080825281016109038184610c52565b60405181810167ffffffffffffffff81118282101715610de057600080fd5b604052919050565b600067ffffffffffffffff821115610dff57600080fd5b5060209081020190565b600067ffffffffffffffff821115610e2057600080fd5b506020601f91909101601f19160190565b60200190565b60009081526020902090565b5190565b600061074582610e57565b151590565b600160a060020a031690565b82818337506000910152565b60005b83811015610e8a578181015183820152602001610e72565b83811115610d2a5750506000910152565b601f01601f19169056fea265627a7a7230582047ccdf91ab7a1f3e43c6ca13b844d47497ae2d86e791e418f62b41fe2e8195c66c6578706572696d656e74616cf50037",
  "source": "// SPDX-License-Identifier: MIT\r\npragma solidity >=0.4.22 <0.9.0;\r\npragma experimental ABIEncoderV2;\r\n\r\ncontract Tickets {\r\n    struct TicketStruct {\r\n        address token;\r\n        uint256 dateOfPurchase;\r\n    }\r\n\r\n    struct CustomerStruct {\r\n        address token;\r\n        string name;\r\n        TicketStruct[] tickets;\r\n    }\r\n\r\n    mapping(address => CustomerStruct) internal customerStructs;\r\n    mapping(address => TicketStruct) internal ticketStructs;\r\n\r\n    TicketStruct[] TicketsArray;\r\n    CustomerStruct[] CustomersArray;\r\n\r\n    event LogNewTicket(address token, uint256 dateOfPurchase);\r\n    event LogNewCustomer(address token, string name, TicketStruct[] tickets);\r\n\r\n    function AddTicket(\r\n        address token,\r\n        uint256 dateOfPurchase,\r\n        string memory name\r\n    ) public {\r\n        if (TicketExists(token)) {\r\n            string memory message = append(\r\n                \"Ticket with this token: \",\r\n                \" already exist\"\r\n            );\r\n            revert(message);\r\n        }\r\n        customerStructs[token].token = token;\r\n        customerStructs[token].name = name;\r\n        customerStructs[token].tickets.push(\r\n            TicketStruct(token, dateOfPurchase)\r\n        );\r\n    }\r\n\r\n    function append(string memory a, string memory b)\r\n        internal\r\n        pure\r\n        returns (string memory)\r\n    {\r\n        return string(abi.encodePacked(a, b));\r\n    }\r\n\r\n    function AddTicketWithStruct(TicketStruct memory ticketToAdd)\r\n        public\r\n        returns (bool)\r\n    {\r\n        TicketStruct storage ticket = ticketStructs[ticketToAdd.token];\r\n\r\n        ticket.dateOfPurchase = ticketToAdd.dateOfPurchase;\r\n        ticket.token = ticketToAdd.token;\r\n\r\n        TicketsArray.push(ticket);\r\n\r\n        emit LogNewTicket(ticket.token, ticket.dateOfPurchase);\r\n\r\n        return true;\r\n    }\r\n\r\n    function AddCustomerWithStruct(CustomerStruct memory customerToAdd)\r\n        public\r\n        returns (bool)\r\n    {\r\n        CustomerStruct storage customer = customerStructs[customerToAdd.token];\r\n\r\n        customer.name = customerToAdd.name;\r\n        customer.token = customerToAdd.token;\r\n\r\n        for (uint256 i = 0; i < customerToAdd.tickets.length; i++) {\r\n            customer.tickets.push(\r\n                TicketStruct(\r\n                    customerToAdd.token,\r\n                    customerToAdd.tickets[i].dateOfPurchase\r\n                )\r\n            );\r\n        }\r\n\r\n        CustomersArray.push(customer);\r\n\r\n        emit LogNewCustomer(\r\n            customer.token,\r\n            customer.name,\r\n            customerToAdd.tickets\r\n        );\r\n\r\n        return true;\r\n        //[\"0x8B8F4122f920F03d76Ea36a85FE6e53099f84124\", \"Test customer\", [[\"0x8B8F4122f920F03d76Ea36a85FE6e53099f84124\",1646803656]]]\r\n    }\r\n\r\n    function GetCustomerTickets(address token)\r\n        public\r\n        view\r\n        returns (TicketStruct[] memory tickets)\r\n    {\r\n        CustomerStruct storage customer = customerStructs[token];\r\n        return customer.tickets;\r\n    }\r\n\r\n    function TicketExists(address token) private view returns (bool) {\r\n        return (customerStructs[token].token == token);\r\n    }\r\n\r\n    function GetTicketsArray() public view returns (TicketStruct[] memory) {\r\n        return TicketsArray;\r\n    }\r\n}\r\n",
  "sourcePath": "C:/Users/skott/Desktop/Projects/_Blockchain/Projects/MoviesFE/contracts/Tickets.sol",
  "compiler": {
    "name": "solc",
    "version": "0.5.0+commit.1d4f565a.Emscripten.clang"
  },
  "schemaVersion": "3.0.1",
  "updatedAt": "2022-03-18T03:42:43.873Z",
  "devdoc": {
    "methods": {}
  },
  "userdoc": {
    "methods": {}
  }
}