{
  "contractName": "ToStringContract",
  "abi": [
    {
      "constant": true,
      "inputs": [
        {
          "name": "_i",
          "type": "uint256"
        }
      ],
      "name": "uint2str",
      "outputs": [
        {
          "name": "str",
          "type": "string"
        }
      ],
      "payable": false,
      "stateMutability": "pure",
      "type": "function"
    }
  ],
  "bytecode": "0x608060405234801561001057600080fd5b5061022a806100206000396000f3fe6080604052600436106100405763ffffffff7c0100000000000000000000000000000000000000000000000000000000600035041663f76f950e8114610045575b600080fd5b34801561005157600080fd5b5061006f6004803603602081101561006857600080fd5b50356100e4565b6040805160208082528351818301528351919283929083019185019080838360005b838110156100a9578181015183820152602001610091565b50505050905090810190601f1680156100d65780820380516001836020036101000a031916815260200191505b509250505060405180910390f35b6060811515610127575060408051808201909152600181527f300000000000000000000000000000000000000000000000000000000000000060208201526101f9565b8160005b811561013f57600101600a8204915061012b565b6060816040519080825280601f01601f19166020018201604052801561016c576020820181803883390190505b508593509050815b83156101f357600a84066030017f0100000000000000000000000000000000000000000000000000000000000000028282600190039250828151811015156101b857fe5b9060200101907effffffffffffffffffffffffffffffffffffffffffffffffffffffffffffff1916908160001a905350600a84049350610174565b50925050505b91905056fea165627a7a72305820bf3626c30b782a3502669a7bebee0f9817cc6c4a0c40d2de14b3b3c58e2d15a50029",
  "source": "// SPDX-License-Identifier: MIT\r\npragma solidity >=0.4.22 <0.9.0;\r\n\r\ncontract ToStringContract {\r\n    function uint2str(uint256 _i) public pure returns (string memory str) {\r\n        if (_i == 0) {\r\n            return \"0\";\r\n        }\r\n        uint256 j = _i;\r\n        uint256 length;\r\n        while (j != 0) {\r\n            length++;\r\n            j /= 10;\r\n        }\r\n        bytes memory bstr = new bytes(length);\r\n        uint256 k = length;\r\n        j = _i;\r\n        while (j != 0) {\r\n            bstr[--k] = bytes1(uint8(48 + (j % 10)));\r\n            j /= 10;\r\n        }\r\n        str = string(bstr);\r\n    }\r\n}\r\n",
  "sourcePath": "C:/Users/skott/Desktop/Projects/_Blockchain/Projects/MoviesFE/contracts/ToString.sol",
  "compiler": {
    "name": "solc",
    "version": "0.5.0+commit.1d4f565a.Emscripten.clang"
  },
  "schemaVersion": "3.0.1",
  "updatedAt": "2022-03-21T18:50:35.294Z",
  "devdoc": {
    "methods": {}
  },
  "userdoc": {
    "methods": {}
  }
}