{
	"data": {
		"bytecode": {
			"linkReferences": {},
			"object": "608060405234801561001057600080fd5b50611759806100206000396000f3fe608060405234801561001057600080fd5b50600436106100415760003560e01c80637ba6423314610046578063da48369a14610064578063f44b3df314610082575b600080fd5b61004e61009e565b60405161005b91906113e2565b60405180910390f35b61006c6100aa565b60405161007991906113c0565b60405180910390f35b61009c60048036038101906100979190611065565b6106b5565b005b60008080549050905090565b60606000805480602002602001604051908101604052809291908181526020016000905b828210156106ac57838290600052602060002090600a020160405180608001604052908160008201805461010190611570565b80601f016020809104026020016040519081016040528092919081815260200182805461012d90611570565b801561017a5780601f1061014f5761010080835404028352916020019161017a565b820191906000526020600020905b81548152906001019060200180831161015d57829003601f168201915b5050505050815260200160018201805461019390611570565b80601f01602080910402602001604051908101604052809291908181526020018280546101bf90611570565b801561020c5780601f106101e15761010080835404028352916020019161020c565b820191906000526020600020905b8154815290600101906020018083116101ef57829003601f168201915b50505050508152602001600282016040518060c001604052908160008201805461023590611570565b80601f016020809104026020016040519081016040528092919081815260200182805461026190611570565b80156102ae5780601f10610283576101008083540402835291602001916102ae565b820191906000526020600020905b81548152906001019060200180831161029157829003601f168201915b5050505050815260200160018201805480602002602001604051908101604052809291908181526020016000905b828210156103885783829060005260206000200180546102fb90611570565b80601f016020809104026020016040519081016040528092919081815260200182805461032790611570565b80156103745780601f1061034957610100808354040283529160200191610374565b820191906000526020600020905b81548152906001019060200180831161035757829003601f168201915b5050505050815260200190600101906102dc565b5050505081526020016002820180546103a090611570565b80601f01602080910402602001604051908101604052809291908181526020018280546103cc90611570565b80156104195780601f106103ee57610100808354040283529160200191610419565b820191906000526020600020905b8154815290600101906020018083116103fc57829003601f168201915b5050505050815260200160038201805461043290611570565b80601f016020809104026020016040519081016040528092919081815260200182805461045e90611570565b80156104ab5780601f10610480576101008083540402835291602001916104ab565b820191906000526020600020905b81548152906001019060200180831161048e57829003601f168201915b505050505081526020016004820180546104c490611570565b80601f01602080910402602001604051908101604052809291908181526020018280546104f090611570565b801561053d5780601f106105125761010080835404028352916020019161053d565b820191906000526020600020905b81548152906001019060200180831161052057829003601f168201915b505050505081526020016005820160405180604001604052908160008201805461056690611570565b80601f016020809104026020016040519081016040528092919081815260200182805461059290611570565b80156105df5780601f106105b4576101008083540402835291602001916105df565b820191906000526020600020905b8154815290600101906020018083116105c257829003601f168201915b505050505081526020016001820180546105f890611570565b80601f016020809104026020016040519081016040528092919081815260200182805461062490611570565b80156106715780601f1061064657610100808354040283529160200191610671565b820191906000526020600020905b81548152906001019060200180831161065457829003601f168201915b5050505050815250508152505081526020016009820160009054906101000a900460ff161515151581525050815260200190600101906100ce565b50505050905090565b6000600182600001516040516106cb91906113a9565b9081526020016040518091039020905081600001518160000190805190602001906106f7929190610a2c565b508160200151816001019080519060200190610714929190610a2c565b5081606001518160090160006101000a81548160ff021916908315150217905550816040015181600201600082015181600001908051906020019061075a929190610a2c565b506020820151816001019080519060200190610777929190610ab2565b506040820151816002019080519060200190610794929190610a2c565b5060608201518160030190805190602001906107b1929190610a2c565b5060808201518160040190805190602001906107ce929190610a2c565b5060a08201518160050160008201518160000190805190602001906107f4929190610a2c565b506020820151816001019080519060200190610811929190610a2c565b50505090505060005b826040015160200151518110156108a15781600201600101836040015160200151828151811061084d5761084c61167a565b5b602002602001015190806001815401808255809150506001900390600052602060002001600090919091909150908051906020019061088d929190610a2c565b508080610899906115d3565b91505061081a565b5060008190806001815401808255809150506001900390600052602060002090600a020160009091909190915060008201816000019080546108e290611570565b6108ed929190610b12565b50600182018160010190805461090290611570565b61090d929190610b12565b506002820181600201600082018160000190805461092a90611570565b610935929190610b12565b50600182018160010190805461094c929190610b9f565b50600282018160020190805461096190611570565b61096c929190610b12565b50600382018160030190805461098190611570565b61098c929190610b12565b5060048201816004019080546109a190611570565b6109ac929190610b12565b50600582018160050160008201816000019080546109c990611570565b6109d4929190610b12565b5060018201816001019080546109e990611570565b6109f4929190610b12565b50505050506009820160009054906101000a900460ff168160090160006101000a81548160ff02191690831515021790555050505050565b828054610a3890611570565b90600052602060002090601f016020900481019282610a5a5760008555610aa1565b82601f10610a7357805160ff1916838001178555610aa1565b82800160010185558215610aa1579182015b82811115610aa0578251825591602001919060010190610a85565b5b509050610aae9190610c07565b5090565b828054828255906000526020600020908101928215610b01579160200282015b82811115610b00578251829080519060200190610af0929190610a2c565b5091602001919060010190610ad2565b5b509050610b0e9190610c24565b5090565b828054610b1e90611570565b90600052602060002090601f016020900481019282610b405760008555610b8e565b82601f10610b515780548555610b8e565b82800160010185558215610b8e57600052602060002091601f016020900482015b82811115610b8d578254825591600101919060010190610b72565b5b509050610b9b9190610c07565b5090565b828054828255906000526020600020908101928215610bf65760005260206000209182015b82811115610bf5578282908054610bda90611570565b610be5929190610b12565b5091600101919060010190610bc4565b5b509050610c039190610c24565b5090565b5b80821115610c20576000816000905550600101610c08565b5090565b5b80821115610c445760008181610c3b9190610c48565b50600101610c25565b5090565b508054610c5490611570565b6000825580601f10610c665750610c85565b601f016020900490600052602060002090810190610c849190610c07565b5b50565b6000610c9b610c9684611422565b6113fd565b90508083825260208201905082856020860282011115610cbe57610cbd6116e7565b5b60005b85811015610d0c57813567ffffffffffffffff811115610ce457610ce36116d8565b5b808601610cf18982610d9b565b85526020850194506020840193505050600181019050610cc1565b5050509392505050565b6000610d29610d248461144e565b6113fd565b905082815260208101848484011115610d4557610d446116ec565b5b610d5084828561152e565b509392505050565b600082601f830112610d6d57610d6c6116d8565b5b8135610d7d848260208601610c88565b91505092915050565b600081359050610d958161170c565b92915050565b600082601f830112610db057610daf6116d8565b5b8135610dc0848260208601610d16565b91505092915050565b600060408284031215610ddf57610dde6116dd565b5b610de960406113fd565b9050600082013567ffffffffffffffff811115610e0957610e086116e2565b5b610e1584828501610d9b565b600083015250602082013567ffffffffffffffff811115610e3957610e386116e2565b5b610e4584828501610d9b565b60208301525092915050565b600060c08284031215610e6757610e666116dd565b5b610e7160c06113fd565b9050600082013567ffffffffffffffff811115610e9157610e906116e2565b5b610e9d84828501610d9b565b600083015250602082013567ffffffffffffffff811115610ec157610ec06116e2565b5b610ecd84828501610d58565b602083015250604082013567ffffffffffffffff811115610ef157610ef06116e2565b5b610efd84828501610d9b565b604083015250606082013567ffffffffffffffff811115610f2157610f206116e2565b5b610f2d84828501610d9b565b606083015250608082013567ffffffffffffffff811115610f5157610f506116e2565b5b610f5d84828501610d9b565b60808301525060a082013567ffffffffffffffff811115610f8157610f806116e2565b5b610f8d84828501610dc9565b60a08301525092915050565b600060808284031215610faf57610fae6116dd565b5b610fb960806113fd565b9050600082013567ffffffffffffffff811115610fd957610fd86116e2565b5b610fe584828501610d9b565b600083015250602082013567ffffffffffffffff811115611009576110086116e2565b5b61101584828501610d9b565b602083015250604082013567ffffffffffffffff811115611039576110386116e2565b5b61104584828501610e51565b604083015250606061105984828501610d86565b60608301525092915050565b60006020828403121561107b5761107a6116f6565b5b600082013567ffffffffffffffff811115611099576110986116f1565b5b6110a584828501610f99565b91505092915050565b60006110ba83836111cf565b905092915050565b60006110ce8383611329565b905092915050565b60006110e18261149f565b6110eb81856114da565b9350836020820285016110fd8561147f565b8060005b85811015611139578484038952815161111a85826110ae565b9450611125836114c0565b925060208a01995050600181019050611101565b50829750879550505050505092915050565b6000611156826114aa565b61116081856114eb565b9350836020820285016111728561148f565b8060005b858110156111ae578484038952815161118f85826110c2565b945061119a836114cd565b925060208a01995050600181019050611176565b50829750879550505050505092915050565b6111c981611518565b82525050565b60006111da826114b5565b6111e481856114fc565b93506111f481856020860161153d565b6111fd816116fb565b840191505092915050565b6000611213826114b5565b61121d818561150d565b935061122d81856020860161153d565b80840191505092915050565b6000604083016000830151848203600086015261125682826111cf565b9150506020830151848203602086015261127082826111cf565b9150508091505092915050565b600060c083016000830151848203600086015261129a82826111cf565b915050602083015184820360208601526112b482826110d6565b915050604083015184820360408601526112ce82826111cf565b915050606083015184820360608601526112e882826111cf565b9150506080830151848203608086015261130282826111cf565b91505060a083015184820360a086015261131c8282611239565b9150508091505092915050565b6000608083016000830151848203600086015261134682826111cf565b9150506020830151848203602086015261136082826111cf565b9150506040830151848203604086015261137a828261127d565b915050606083015161138f60608601826111c0565b508091505092915050565b6113a381611524565b82525050565b60006113b58284611208565b915081905092915050565b600060208201905081810360008301526113da818461114b565b905092915050565b60006020820190506113f7600083018461139a565b92915050565b6000611407611418565b905061141382826115a2565b919050565b6000604051905090565b600067ffffffffffffffff82111561143d5761143c6116a9565b5b602082029050602081019050919050565b600067ffffffffffffffff821115611469576114686116a9565b5b611472826116fb565b9050602081019050919050565b6000819050602082019050919050565b6000819050602082019050919050565b600081519050919050565b600081519050919050565b600081519050919050565b6000602082019050919050565b6000602082019050919050565b600082825260208201905092915050565b600082825260208201905092915050565b600082825260208201905092915050565b600081905092915050565b60008115159050919050565b6000819050919050565b82818337600083830152505050565b60005b8381101561155b578082015181840152602081019050611540565b8381111561156a576000848401525b50505050565b6000600282049050600182168061158857607f821691505b6020821081141561159c5761159b61164b565b5b50919050565b6115ab826116fb565b810181811067ffffffffffffffff821117156115ca576115c96116a9565b5b80604052505050565b60006115de82611524565b91507fffffffffffffffffffffffffffffffffffffffffffffffffffffffffffffffff8214156116115761161061161c565b5b600182019050919050565b7f4e487b7100000000000000000000000000000000000000000000000000000000600052601160045260246000fd5b7f4e487b7100000000000000000000000000000000000000000000000000000000600052602260045260246000fd5b7f4e487b7100000000000000000000000000000000000000000000000000000000600052603260045260246000fd5b7f4e487b7100000000000000000000000000000000000000000000000000000000600052604160045260246000fd5b600080fd5b600080fd5b600080fd5b600080fd5b600080fd5b600080fd5b600080fd5b6000601f19601f8301169050919050565b61171581611518565b811461172057600080fd5b5056fea2646970667358221220c0c317bd65a0cedbe2b17dfed0201dc9d621e79933fd1fab258457db70215bfa64736f6c63430008060033",
			"opcodes": "PUSH1 0x80 PUSH1 0x40 MSTORE CALLVALUE DUP1 ISZERO PUSH2 0x10 JUMPI PUSH1 0x0 DUP1 REVERT JUMPDEST POP PUSH2 0x1759 DUP1 PUSH2 0x20 PUSH1 0x0 CODECOPY PUSH1 0x0 RETURN INVALID PUSH1 0x80 PUSH1 0x40 MSTORE CALLVALUE DUP1 ISZERO PUSH2 0x10 JUMPI PUSH1 0x0 DUP1 REVERT JUMPDEST POP PUSH1 0x4 CALLDATASIZE LT PUSH2 0x41 JUMPI PUSH1 0x0 CALLDATALOAD PUSH1 0xE0 SHR DUP1 PUSH4 0x7BA64233 EQ PUSH2 0x46 JUMPI DUP1 PUSH4 0xDA48369A EQ PUSH2 0x64 JUMPI DUP1 PUSH4 0xF44B3DF3 EQ PUSH2 0x82 JUMPI JUMPDEST PUSH1 0x0 DUP1 REVERT JUMPDEST PUSH2 0x4E PUSH2 0x9E JUMP JUMPDEST PUSH1 0x40 MLOAD PUSH2 0x5B SWAP2 SWAP1 PUSH2 0x13E2 JUMP JUMPDEST PUSH1 0x40 MLOAD DUP1 SWAP2 SUB SWAP1 RETURN JUMPDEST PUSH2 0x6C PUSH2 0xAA JUMP JUMPDEST PUSH1 0x40 MLOAD PUSH2 0x79 SWAP2 SWAP1 PUSH2 0x13C0 JUMP JUMPDEST PUSH1 0x40 MLOAD DUP1 SWAP2 SUB SWAP1 RETURN JUMPDEST PUSH2 0x9C PUSH1 0x4 DUP1 CALLDATASIZE SUB DUP2 ADD SWAP1 PUSH2 0x97 SWAP2 SWAP1 PUSH2 0x1065 JUMP JUMPDEST PUSH2 0x6B5 JUMP JUMPDEST STOP JUMPDEST PUSH1 0x0 DUP1 DUP1 SLOAD SWAP1 POP SWAP1 POP SWAP1 JUMP JUMPDEST PUSH1 0x60 PUSH1 0x0 DUP1 SLOAD DUP1 PUSH1 0x20 MUL PUSH1 0x20 ADD PUSH1 0x40 MLOAD SWAP1 DUP2 ADD PUSH1 0x40 MSTORE DUP1 SWAP3 SWAP2 SWAP1 DUP2 DUP2 MSTORE PUSH1 0x20 ADD PUSH1 0x0 SWAP1 JUMPDEST DUP3 DUP3 LT ISZERO PUSH2 0x6AC JUMPI DUP4 DUP3 SWAP1 PUSH1 0x0 MSTORE PUSH1 0x20 PUSH1 0x0 KECCAK256 SWAP1 PUSH1 0xA MUL ADD PUSH1 0x40 MLOAD DUP1 PUSH1 0x80 ADD PUSH1 0x40 MSTORE SWAP1 DUP2 PUSH1 0x0 DUP3 ADD DUP1 SLOAD PUSH2 0x101 SWAP1 PUSH2 0x1570 JUMP JUMPDEST DUP1 PUSH1 0x1F ADD PUSH1 0x20 DUP1 SWAP2 DIV MUL PUSH1 0x20 ADD PUSH1 0x40 MLOAD SWAP1 DUP2 ADD PUSH1 0x40 MSTORE DUP1 SWAP3 SWAP2 SWAP1 DUP2 DUP2 MSTORE PUSH1 0x20 ADD DUP3 DUP1 SLOAD PUSH2 0x12D SWAP1 PUSH2 0x1570 JUMP JUMPDEST DUP1 ISZERO PUSH2 0x17A JUMPI DUP1 PUSH1 0x1F LT PUSH2 0x14F JUMPI PUSH2 0x100 DUP1 DUP4 SLOAD DIV MUL DUP4 MSTORE SWAP2 PUSH1 0x20 ADD SWAP2 PUSH2 0x17A JUMP JUMPDEST DUP3 ADD SWAP2 SWAP1 PUSH1 0x0 MSTORE PUSH1 0x20 PUSH1 0x0 KECCAK256 SWAP1 JUMPDEST DUP2 SLOAD DUP2 MSTORE SWAP1 PUSH1 0x1 ADD SWAP1 PUSH1 0x20 ADD DUP1 DUP4 GT PUSH2 0x15D JUMPI DUP3 SWAP1 SUB PUSH1 0x1F AND DUP3 ADD SWAP2 JUMPDEST POP POP POP POP POP DUP2 MSTORE PUSH1 0x20 ADD PUSH1 0x1 DUP3 ADD DUP1 SLOAD PUSH2 0x193 SWAP1 PUSH2 0x1570 JUMP JUMPDEST DUP1 PUSH1 0x1F ADD PUSH1 0x20 DUP1 SWAP2 DIV MUL PUSH1 0x20 ADD PUSH1 0x40 MLOAD SWAP1 DUP2 ADD PUSH1 0x40 MSTORE DUP1 SWAP3 SWAP2 SWAP1 DUP2 DUP2 MSTORE PUSH1 0x20 ADD DUP3 DUP1 SLOAD PUSH2 0x1BF SWAP1 PUSH2 0x1570 JUMP JUMPDEST DUP1 ISZERO PUSH2 0x20C JUMPI DUP1 PUSH1 0x1F LT PUSH2 0x1E1 JUMPI PUSH2 0x100 DUP1 DUP4 SLOAD DIV MUL DUP4 MSTORE SWAP2 PUSH1 0x20 ADD SWAP2 PUSH2 0x20C JUMP JUMPDEST DUP3 ADD SWAP2 SWAP1 PUSH1 0x0 MSTORE PUSH1 0x20 PUSH1 0x0 KECCAK256 SWAP1 JUMPDEST DUP2 SLOAD DUP2 MSTORE SWAP1 PUSH1 0x1 ADD SWAP1 PUSH1 0x20 ADD DUP1 DUP4 GT PUSH2 0x1EF JUMPI DUP3 SWAP1 SUB PUSH1 0x1F AND DUP3 ADD SWAP2 JUMPDEST POP POP POP POP POP DUP2 MSTORE PUSH1 0x20 ADD PUSH1 0x2 DUP3 ADD PUSH1 0x40 MLOAD DUP1 PUSH1 0xC0 ADD PUSH1 0x40 MSTORE SWAP1 DUP2 PUSH1 0x0 DUP3 ADD DUP1 SLOAD PUSH2 0x235 SWAP1 PUSH2 0x1570 JUMP JUMPDEST DUP1 PUSH1 0x1F ADD PUSH1 0x20 DUP1 SWAP2 DIV MUL PUSH1 0x20 ADD PUSH1 0x40 MLOAD SWAP1 DUP2 ADD PUSH1 0x40 MSTORE DUP1 SWAP3 SWAP2 SWAP1 DUP2 DUP2 MSTORE PUSH1 0x20 ADD DUP3 DUP1 SLOAD PUSH2 0x261 SWAP1 PUSH2 0x1570 JUMP JUMPDEST DUP1 ISZERO PUSH2 0x2AE JUMPI DUP1 PUSH1 0x1F LT PUSH2 0x283 JUMPI PUSH2 0x100 DUP1 DUP4 SLOAD DIV MUL DUP4 MSTORE SWAP2 PUSH1 0x20 ADD SWAP2 PUSH2 0x2AE JUMP JUMPDEST DUP3 ADD SWAP2 SWAP1 PUSH1 0x0 MSTORE PUSH1 0x20 PUSH1 0x0 KECCAK256 SWAP1 JUMPDEST DUP2 SLOAD DUP2 MSTORE SWAP1 PUSH1 0x1 ADD SWAP1 PUSH1 0x20 ADD DUP1 DUP4 GT PUSH2 0x291 JUMPI DUP3 SWAP1 SUB PUSH1 0x1F AND DUP3 ADD SWAP2 JUMPDEST POP POP POP POP POP DUP2 MSTORE PUSH1 0x20 ADD PUSH1 0x1 DUP3 ADD DUP1 SLOAD DUP1 PUSH1 0x20 MUL PUSH1 0x20 ADD PUSH1 0x40 MLOAD SWAP1 DUP2 ADD PUSH1 0x40 MSTORE DUP1 SWAP3 SWAP2 SWAP1 DUP2 DUP2 MSTORE PUSH1 0x20 ADD PUSH1 0x0 SWAP1 JUMPDEST DUP3 DUP3 LT ISZERO PUSH2 0x388 JUMPI DUP4 DUP3 SWAP1 PUSH1 0x0 MSTORE PUSH1 0x20 PUSH1 0x0 KECCAK256 ADD DUP1 SLOAD PUSH2 0x2FB SWAP1 PUSH2 0x1570 JUMP JUMPDEST DUP1 PUSH1 0x1F ADD PUSH1 0x20 DUP1 SWAP2 DIV MUL PUSH1 0x20 ADD PUSH1 0x40 MLOAD SWAP1 DUP2 ADD PUSH1 0x40 MSTORE DUP1 SWAP3 SWAP2 SWAP1 DUP2 DUP2 MSTORE PUSH1 0x20 ADD DUP3 DUP1 SLOAD PUSH2 0x327 SWAP1 PUSH2 0x1570 JUMP JUMPDEST DUP1 ISZERO PUSH2 0x374 JUMPI DUP1 PUSH1 0x1F LT PUSH2 0x349 JUMPI PUSH2 0x100 DUP1 DUP4 SLOAD DIV MUL DUP4 MSTORE SWAP2 PUSH1 0x20 ADD SWAP2 PUSH2 0x374 JUMP JUMPDEST DUP3 ADD SWAP2 SWAP1 PUSH1 0x0 MSTORE PUSH1 0x20 PUSH1 0x0 KECCAK256 SWAP1 JUMPDEST DUP2 SLOAD DUP2 MSTORE SWAP1 PUSH1 0x1 ADD SWAP1 PUSH1 0x20 ADD DUP1 DUP4 GT PUSH2 0x357 JUMPI DUP3 SWAP1 SUB PUSH1 0x1F AND DUP3 ADD SWAP2 JUMPDEST POP POP POP POP POP DUP2 MSTORE PUSH1 0x20 ADD SWAP1 PUSH1 0x1 ADD SWAP1 PUSH2 0x2DC JUMP JUMPDEST POP POP POP POP DUP2 MSTORE PUSH1 0x20 ADD PUSH1 0x2 DUP3 ADD DUP1 SLOAD PUSH2 0x3A0 SWAP1 PUSH2 0x1570 JUMP JUMPDEST DUP1 PUSH1 0x1F ADD PUSH1 0x20 DUP1 SWAP2 DIV MUL PUSH1 0x20 ADD PUSH1 0x40 MLOAD SWAP1 DUP2 ADD PUSH1 0x40 MSTORE DUP1 SWAP3 SWAP2 SWAP1 DUP2 DUP2 MSTORE PUSH1 0x20 ADD DUP3 DUP1 SLOAD PUSH2 0x3CC SWAP1 PUSH2 0x1570 JUMP JUMPDEST DUP1 ISZERO PUSH2 0x419 JUMPI DUP1 PUSH1 0x1F LT PUSH2 0x3EE JUMPI PUSH2 0x100 DUP1 DUP4 SLOAD DIV MUL DUP4 MSTORE SWAP2 PUSH1 0x20 ADD SWAP2 PUSH2 0x419 JUMP JUMPDEST DUP3 ADD SWAP2 SWAP1 PUSH1 0x0 MSTORE PUSH1 0x20 PUSH1 0x0 KECCAK256 SWAP1 JUMPDEST DUP2 SLOAD DUP2 MSTORE SWAP1 PUSH1 0x1 ADD SWAP1 PUSH1 0x20 ADD DUP1 DUP4 GT PUSH2 0x3FC JUMPI DUP3 SWAP1 SUB PUSH1 0x1F AND DUP3 ADD SWAP2 JUMPDEST POP POP POP POP POP DUP2 MSTORE PUSH1 0x20 ADD PUSH1 0x3 DUP3 ADD DUP1 SLOAD PUSH2 0x432 SWAP1 PUSH2 0x1570 JUMP JUMPDEST DUP1 PUSH1 0x1F ADD PUSH1 0x20 DUP1 SWAP2 DIV MUL PUSH1 0x20 ADD PUSH1 0x40 MLOAD SWAP1 DUP2 ADD PUSH1 0x40 MSTORE DUP1 SWAP3 SWAP2 SWAP1 DUP2 DUP2 MSTORE PUSH1 0x20 ADD DUP3 DUP1 SLOAD PUSH2 0x45E SWAP1 PUSH2 0x1570 JUMP JUMPDEST DUP1 ISZERO PUSH2 0x4AB JUMPI DUP1 PUSH1 0x1F LT PUSH2 0x480 JUMPI PUSH2 0x100 DUP1 DUP4 SLOAD DIV MUL DUP4 MSTORE SWAP2 PUSH1 0x20 ADD SWAP2 PUSH2 0x4AB JUMP JUMPDEST DUP3 ADD SWAP2 SWAP1 PUSH1 0x0 MSTORE PUSH1 0x20 PUSH1 0x0 KECCAK256 SWAP1 JUMPDEST DUP2 SLOAD DUP2 MSTORE SWAP1 PUSH1 0x1 ADD SWAP1 PUSH1 0x20 ADD DUP1 DUP4 GT PUSH2 0x48E JUMPI DUP3 SWAP1 SUB PUSH1 0x1F AND DUP3 ADD SWAP2 JUMPDEST POP POP POP POP POP DUP2 MSTORE PUSH1 0x20 ADD PUSH1 0x4 DUP3 ADD DUP1 SLOAD PUSH2 0x4C4 SWAP1 PUSH2 0x1570 JUMP JUMPDEST DUP1 PUSH1 0x1F ADD PUSH1 0x20 DUP1 SWAP2 DIV MUL PUSH1 0x20 ADD PUSH1 0x40 MLOAD SWAP1 DUP2 ADD PUSH1 0x40 MSTORE DUP1 SWAP3 SWAP2 SWAP1 DUP2 DUP2 MSTORE PUSH1 0x20 ADD DUP3 DUP1 SLOAD PUSH2 0x4F0 SWAP1 PUSH2 0x1570 JUMP JUMPDEST DUP1 ISZERO PUSH2 0x53D JUMPI DUP1 PUSH1 0x1F LT PUSH2 0x512 JUMPI PUSH2 0x100 DUP1 DUP4 SLOAD DIV MUL DUP4 MSTORE SWAP2 PUSH1 0x20 ADD SWAP2 PUSH2 0x53D JUMP JUMPDEST DUP3 ADD SWAP2 SWAP1 PUSH1 0x0 MSTORE PUSH1 0x20 PUSH1 0x0 KECCAK256 SWAP1 JUMPDEST DUP2 SLOAD DUP2 MSTORE SWAP1 PUSH1 0x1 ADD SWAP1 PUSH1 0x20 ADD DUP1 DUP4 GT PUSH2 0x520 JUMPI DUP3 SWAP1 SUB PUSH1 0x1F AND DUP3 ADD SWAP2 JUMPDEST POP POP POP POP POP DUP2 MSTORE PUSH1 0x20 ADD PUSH1 0x5 DUP3 ADD PUSH1 0x40 MLOAD DUP1 PUSH1 0x40 ADD PUSH1 0x40 MSTORE SWAP1 DUP2 PUSH1 0x0 DUP3 ADD DUP1 SLOAD PUSH2 0x566 SWAP1 PUSH2 0x1570 JUMP JUMPDEST DUP1 PUSH1 0x1F ADD PUSH1 0x20 DUP1 SWAP2 DIV MUL PUSH1 0x20 ADD PUSH1 0x40 MLOAD SWAP1 DUP2 ADD PUSH1 0x40 MSTORE DUP1 SWAP3 SWAP2 SWAP1 DUP2 DUP2 MSTORE PUSH1 0x20 ADD DUP3 DUP1 SLOAD PUSH2 0x592 SWAP1 PUSH2 0x1570 JUMP JUMPDEST DUP1 ISZERO PUSH2 0x5DF JUMPI DUP1 PUSH1 0x1F LT PUSH2 0x5B4 JUMPI PUSH2 0x100 DUP1 DUP4 SLOAD DIV MUL DUP4 MSTORE SWAP2 PUSH1 0x20 ADD SWAP2 PUSH2 0x5DF JUMP JUMPDEST DUP3 ADD SWAP2 SWAP1 PUSH1 0x0 MSTORE PUSH1 0x20 PUSH1 0x0 KECCAK256 SWAP1 JUMPDEST DUP2 SLOAD DUP2 MSTORE SWAP1 PUSH1 0x1 ADD SWAP1 PUSH1 0x20 ADD DUP1 DUP4 GT PUSH2 0x5C2 JUMPI DUP3 SWAP1 SUB PUSH1 0x1F AND DUP3 ADD SWAP2 JUMPDEST POP POP POP POP POP DUP2 MSTORE PUSH1 0x20 ADD PUSH1 0x1 DUP3 ADD DUP1 SLOAD PUSH2 0x5F8 SWAP1 PUSH2 0x1570 JUMP JUMPDEST DUP1 PUSH1 0x1F ADD PUSH1 0x20 DUP1 SWAP2 DIV MUL PUSH1 0x20 ADD PUSH1 0x40 MLOAD SWAP1 DUP2 ADD PUSH1 0x40 MSTORE DUP1 SWAP3 SWAP2 SWAP1 DUP2 DUP2 MSTORE PUSH1 0x20 ADD DUP3 DUP1 SLOAD PUSH2 0x624 SWAP1 PUSH2 0x1570 JUMP JUMPDEST DUP1 ISZERO PUSH2 0x671 JUMPI DUP1 PUSH1 0x1F LT PUSH2 0x646 JUMPI PUSH2 0x100 DUP1 DUP4 SLOAD DIV MUL DUP4 MSTORE SWAP2 PUSH1 0x20 ADD SWAP2 PUSH2 0x671 JUMP JUMPDEST DUP3 ADD SWAP2 SWAP1 PUSH1 0x0 MSTORE PUSH1 0x20 PUSH1 0x0 KECCAK256 SWAP1 JUMPDEST DUP2 SLOAD DUP2 MSTORE SWAP1 PUSH1 0x1 ADD SWAP1 PUSH1 0x20 ADD DUP1 DUP4 GT PUSH2 0x654 JUMPI DUP3 SWAP1 SUB PUSH1 0x1F AND DUP3 ADD SWAP2 JUMPDEST POP POP POP POP POP DUP2 MSTORE POP POP DUP2 MSTORE POP POP DUP2 MSTORE PUSH1 0x20 ADD PUSH1 0x9 DUP3 ADD PUSH1 0x0 SWAP1 SLOAD SWAP1 PUSH2 0x100 EXP SWAP1 DIV PUSH1 0xFF AND ISZERO ISZERO ISZERO ISZERO DUP2 MSTORE POP POP DUP2 MSTORE PUSH1 0x20 ADD SWAP1 PUSH1 0x1 ADD SWAP1 PUSH2 0xCE JUMP JUMPDEST POP POP POP POP SWAP1 POP SWAP1 JUMP JUMPDEST PUSH1 0x0 PUSH1 0x1 DUP3 PUSH1 0x0 ADD MLOAD PUSH1 0x40 MLOAD PUSH2 0x6CB SWAP2 SWAP1 PUSH2 0x13A9 JUMP JUMPDEST SWAP1 DUP2 MSTORE PUSH1 0x20 ADD PUSH1 0x40 MLOAD DUP1 SWAP2 SUB SWAP1 KECCAK256 SWAP1 POP DUP2 PUSH1 0x0 ADD MLOAD DUP2 PUSH1 0x0 ADD SWAP1 DUP1 MLOAD SWAP1 PUSH1 0x20 ADD SWAP1 PUSH2 0x6F7 SWAP3 SWAP2 SWAP1 PUSH2 0xA2C JUMP JUMPDEST POP DUP2 PUSH1 0x20 ADD MLOAD DUP2 PUSH1 0x1 ADD SWAP1 DUP1 MLOAD SWAP1 PUSH1 0x20 ADD SWAP1 PUSH2 0x714 SWAP3 SWAP2 SWAP1 PUSH2 0xA2C JUMP JUMPDEST POP DUP2 PUSH1 0x60 ADD MLOAD DUP2 PUSH1 0x9 ADD PUSH1 0x0 PUSH2 0x100 EXP DUP2 SLOAD DUP2 PUSH1 0xFF MUL NOT AND SWAP1 DUP4 ISZERO ISZERO MUL OR SWAP1 SSTORE POP DUP2 PUSH1 0x40 ADD MLOAD DUP2 PUSH1 0x2 ADD PUSH1 0x0 DUP3 ADD MLOAD DUP2 PUSH1 0x0 ADD SWAP1 DUP1 MLOAD SWAP1 PUSH1 0x20 ADD SWAP1 PUSH2 0x75A SWAP3 SWAP2 SWAP1 PUSH2 0xA2C JUMP JUMPDEST POP PUSH1 0x20 DUP3 ADD MLOAD DUP2 PUSH1 0x1 ADD SWAP1 DUP1 MLOAD SWAP1 PUSH1 0x20 ADD SWAP1 PUSH2 0x777 SWAP3 SWAP2 SWAP1 PUSH2 0xAB2 JUMP JUMPDEST POP PUSH1 0x40 DUP3 ADD MLOAD DUP2 PUSH1 0x2 ADD SWAP1 DUP1 MLOAD SWAP1 PUSH1 0x20 ADD SWAP1 PUSH2 0x794 SWAP3 SWAP2 SWAP1 PUSH2 0xA2C JUMP JUMPDEST POP PUSH1 0x60 DUP3 ADD MLOAD DUP2 PUSH1 0x3 ADD SWAP1 DUP1 MLOAD SWAP1 PUSH1 0x20 ADD SWAP1 PUSH2 0x7B1 SWAP3 SWAP2 SWAP1 PUSH2 0xA2C JUMP JUMPDEST POP PUSH1 0x80 DUP3 ADD MLOAD DUP2 PUSH1 0x4 ADD SWAP1 DUP1 MLOAD SWAP1 PUSH1 0x20 ADD SWAP1 PUSH2 0x7CE SWAP3 SWAP2 SWAP1 PUSH2 0xA2C JUMP JUMPDEST POP PUSH1 0xA0 DUP3 ADD MLOAD DUP2 PUSH1 0x5 ADD PUSH1 0x0 DUP3 ADD MLOAD DUP2 PUSH1 0x0 ADD SWAP1 DUP1 MLOAD SWAP1 PUSH1 0x20 ADD SWAP1 PUSH2 0x7F4 SWAP3 SWAP2 SWAP1 PUSH2 0xA2C JUMP JUMPDEST POP PUSH1 0x20 DUP3 ADD MLOAD DUP2 PUSH1 0x1 ADD SWAP1 DUP1 MLOAD SWAP1 PUSH1 0x20 ADD SWAP1 PUSH2 0x811 SWAP3 SWAP2 SWAP1 PUSH2 0xA2C JUMP JUMPDEST POP POP POP SWAP1 POP POP PUSH1 0x0 JUMPDEST DUP3 PUSH1 0x40 ADD MLOAD PUSH1 0x20 ADD MLOAD MLOAD DUP2 LT ISZERO PUSH2 0x8A1 JUMPI DUP2 PUSH1 0x2 ADD PUSH1 0x1 ADD DUP4 PUSH1 0x40 ADD MLOAD PUSH1 0x20 ADD MLOAD DUP3 DUP2 MLOAD DUP2 LT PUSH2 0x84D JUMPI PUSH2 0x84C PUSH2 0x167A JUMP JUMPDEST JUMPDEST PUSH1 0x20 MUL PUSH1 0x20 ADD ADD MLOAD SWAP1 DUP1 PUSH1 0x1 DUP2 SLOAD ADD DUP1 DUP3 SSTORE DUP1 SWAP2 POP POP PUSH1 0x1 SWAP1 SUB SWAP1 PUSH1 0x0 MSTORE PUSH1 0x20 PUSH1 0x0 KECCAK256 ADD PUSH1 0x0 SWAP1 SWAP2 SWAP1 SWAP2 SWAP1 SWAP2 POP SWAP1 DUP1 MLOAD SWAP1 PUSH1 0x20 ADD SWAP1 PUSH2 0x88D SWAP3 SWAP2 SWAP1 PUSH2 0xA2C JUMP JUMPDEST POP DUP1 DUP1 PUSH2 0x899 SWAP1 PUSH2 0x15D3 JUMP JUMPDEST SWAP2 POP POP PUSH2 0x81A JUMP JUMPDEST POP PUSH1 0x0 DUP2 SWAP1 DUP1 PUSH1 0x1 DUP2 SLOAD ADD DUP1 DUP3 SSTORE DUP1 SWAP2 POP POP PUSH1 0x1 SWAP1 SUB SWAP1 PUSH1 0x0 MSTORE PUSH1 0x20 PUSH1 0x0 KECCAK256 SWAP1 PUSH1 0xA MUL ADD PUSH1 0x0 SWAP1 SWAP2 SWAP1 SWAP2 SWAP1 SWAP2 POP PUSH1 0x0 DUP3 ADD DUP2 PUSH1 0x0 ADD SWAP1 DUP1 SLOAD PUSH2 0x8E2 SWAP1 PUSH2 0x1570 JUMP JUMPDEST PUSH2 0x8ED SWAP3 SWAP2 SWAP1 PUSH2 0xB12 JUMP JUMPDEST POP PUSH1 0x1 DUP3 ADD DUP2 PUSH1 0x1 ADD SWAP1 DUP1 SLOAD PUSH2 0x902 SWAP1 PUSH2 0x1570 JUMP JUMPDEST PUSH2 0x90D SWAP3 SWAP2 SWAP1 PUSH2 0xB12 JUMP JUMPDEST POP PUSH1 0x2 DUP3 ADD DUP2 PUSH1 0x2 ADD PUSH1 0x0 DUP3 ADD DUP2 PUSH1 0x0 ADD SWAP1 DUP1 SLOAD PUSH2 0x92A SWAP1 PUSH2 0x1570 JUMP JUMPDEST PUSH2 0x935 SWAP3 SWAP2 SWAP1 PUSH2 0xB12 JUMP JUMPDEST POP PUSH1 0x1 DUP3 ADD DUP2 PUSH1 0x1 ADD SWAP1 DUP1 SLOAD PUSH2 0x94C SWAP3 SWAP2 SWAP1 PUSH2 0xB9F JUMP JUMPDEST POP PUSH1 0x2 DUP3 ADD DUP2 PUSH1 0x2 ADD SWAP1 DUP1 SLOAD PUSH2 0x961 SWAP1 PUSH2 0x1570 JUMP JUMPDEST PUSH2 0x96C SWAP3 SWAP2 SWAP1 PUSH2 0xB12 JUMP JUMPDEST POP PUSH1 0x3 DUP3 ADD DUP2 PUSH1 0x3 ADD SWAP1 DUP1 SLOAD PUSH2 0x981 SWAP1 PUSH2 0x1570 JUMP JUMPDEST PUSH2 0x98C SWAP3 SWAP2 SWAP1 PUSH2 0xB12 JUMP JUMPDEST POP PUSH1 0x4 DUP3 ADD DUP2 PUSH1 0x4 ADD SWAP1 DUP1 SLOAD PUSH2 0x9A1 SWAP1 PUSH2 0x1570 JUMP JUMPDEST PUSH2 0x9AC SWAP3 SWAP2 SWAP1 PUSH2 0xB12 JUMP JUMPDEST POP PUSH1 0x5 DUP3 ADD DUP2 PUSH1 0x5 ADD PUSH1 0x0 DUP3 ADD DUP2 PUSH1 0x0 ADD SWAP1 DUP1 SLOAD PUSH2 0x9C9 SWAP1 PUSH2 0x1570 JUMP JUMPDEST PUSH2 0x9D4 SWAP3 SWAP2 SWAP1 PUSH2 0xB12 JUMP JUMPDEST POP PUSH1 0x1 DUP3 ADD DUP2 PUSH1 0x1 ADD SWAP1 DUP1 SLOAD PUSH2 0x9E9 SWAP1 PUSH2 0x1570 JUMP JUMPDEST PUSH2 0x9F4 SWAP3 SWAP2 SWAP1 PUSH2 0xB12 JUMP JUMPDEST POP POP POP POP POP PUSH1 0x9 DUP3 ADD PUSH1 0x0 SWAP1 SLOAD SWAP1 PUSH2 0x100 EXP SWAP1 DIV PUSH1 0xFF AND DUP2 PUSH1 0x9 ADD PUSH1 0x0 PUSH2 0x100 EXP DUP2 SLOAD DUP2 PUSH1 0xFF MUL NOT AND SWAP1 DUP4 ISZERO ISZERO MUL OR SWAP1 SSTORE POP POP POP POP POP JUMP JUMPDEST DUP3 DUP1 SLOAD PUSH2 0xA38 SWAP1 PUSH2 0x1570 JUMP JUMPDEST SWAP1 PUSH1 0x0 MSTORE PUSH1 0x20 PUSH1 0x0 KECCAK256 SWAP1 PUSH1 0x1F ADD PUSH1 0x20 SWAP1 DIV DUP2 ADD SWAP3 DUP3 PUSH2 0xA5A JUMPI PUSH1 0x0 DUP6 SSTORE PUSH2 0xAA1 JUMP JUMPDEST DUP3 PUSH1 0x1F LT PUSH2 0xA73 JUMPI DUP1 MLOAD PUSH1 0xFF NOT AND DUP4 DUP1 ADD OR DUP6 SSTORE PUSH2 0xAA1 JUMP JUMPDEST DUP3 DUP1 ADD PUSH1 0x1 ADD DUP6 SSTORE DUP3 ISZERO PUSH2 0xAA1 JUMPI SWAP2 DUP3 ADD JUMPDEST DUP3 DUP2 GT ISZERO PUSH2 0xAA0 JUMPI DUP3 MLOAD DUP3 SSTORE SWAP2 PUSH1 0x20 ADD SWAP2 SWAP1 PUSH1 0x1 ADD SWAP1 PUSH2 0xA85 JUMP JUMPDEST JUMPDEST POP SWAP1 POP PUSH2 0xAAE SWAP2 SWAP1 PUSH2 0xC07 JUMP JUMPDEST POP SWAP1 JUMP JUMPDEST DUP3 DUP1 SLOAD DUP3 DUP3 SSTORE SWAP1 PUSH1 0x0 MSTORE PUSH1 0x20 PUSH1 0x0 KECCAK256 SWAP1 DUP2 ADD SWAP3 DUP3 ISZERO PUSH2 0xB01 JUMPI SWAP2 PUSH1 0x20 MUL DUP3 ADD JUMPDEST DUP3 DUP2 GT ISZERO PUSH2 0xB00 JUMPI DUP3 MLOAD DUP3 SWAP1 DUP1 MLOAD SWAP1 PUSH1 0x20 ADD SWAP1 PUSH2 0xAF0 SWAP3 SWAP2 SWAP1 PUSH2 0xA2C JUMP JUMPDEST POP SWAP2 PUSH1 0x20 ADD SWAP2 SWAP1 PUSH1 0x1 ADD SWAP1 PUSH2 0xAD2 JUMP JUMPDEST JUMPDEST POP SWAP1 POP PUSH2 0xB0E SWAP2 SWAP1 PUSH2 0xC24 JUMP JUMPDEST POP SWAP1 JUMP JUMPDEST DUP3 DUP1 SLOAD PUSH2 0xB1E SWAP1 PUSH2 0x1570 JUMP JUMPDEST SWAP1 PUSH1 0x0 MSTORE PUSH1 0x20 PUSH1 0x0 KECCAK256 SWAP1 PUSH1 0x1F ADD PUSH1 0x20 SWAP1 DIV DUP2 ADD SWAP3 DUP3 PUSH2 0xB40 JUMPI PUSH1 0x0 DUP6 SSTORE PUSH2 0xB8E JUMP JUMPDEST DUP3 PUSH1 0x1F LT PUSH2 0xB51 JUMPI DUP1 SLOAD DUP6 SSTORE PUSH2 0xB8E JUMP JUMPDEST DUP3 DUP1 ADD PUSH1 0x1 ADD DUP6 SSTORE DUP3 ISZERO PUSH2 0xB8E JUMPI PUSH1 0x0 MSTORE PUSH1 0x20 PUSH1 0x0 KECCAK256 SWAP2 PUSH1 0x1F ADD PUSH1 0x20 SWAP1 DIV DUP3 ADD JUMPDEST DUP3 DUP2 GT ISZERO PUSH2 0xB8D JUMPI DUP3 SLOAD DUP3 SSTORE SWAP2 PUSH1 0x1 ADD SWAP2 SWAP1 PUSH1 0x1 ADD SWAP1 PUSH2 0xB72 JUMP JUMPDEST JUMPDEST POP SWAP1 POP PUSH2 0xB9B SWAP2 SWAP1 PUSH2 0xC07 JUMP JUMPDEST POP SWAP1 JUMP JUMPDEST DUP3 DUP1 SLOAD DUP3 DUP3 SSTORE SWAP1 PUSH1 0x0 MSTORE PUSH1 0x20 PUSH1 0x0 KECCAK256 SWAP1 DUP2 ADD SWAP3 DUP3 ISZERO PUSH2 0xBF6 JUMPI PUSH1 0x0 MSTORE PUSH1 0x20 PUSH1 0x0 KECCAK256 SWAP2 DUP3 ADD JUMPDEST DUP3 DUP2 GT ISZERO PUSH2 0xBF5 JUMPI DUP3 DUP3 SWAP1 DUP1 SLOAD PUSH2 0xBDA SWAP1 PUSH2 0x1570 JUMP JUMPDEST PUSH2 0xBE5 SWAP3 SWAP2 SWAP1 PUSH2 0xB12 JUMP JUMPDEST POP SWAP2 PUSH1 0x1 ADD SWAP2 SWAP1 PUSH1 0x1 ADD SWAP1 PUSH2 0xBC4 JUMP JUMPDEST JUMPDEST POP SWAP1 POP PUSH2 0xC03 SWAP2 SWAP1 PUSH2 0xC24 JUMP JUMPDEST POP SWAP1 JUMP JUMPDEST JUMPDEST DUP1 DUP3 GT ISZERO PUSH2 0xC20 JUMPI PUSH1 0x0 DUP2 PUSH1 0x0 SWAP1 SSTORE POP PUSH1 0x1 ADD PUSH2 0xC08 JUMP JUMPDEST POP SWAP1 JUMP JUMPDEST JUMPDEST DUP1 DUP3 GT ISZERO PUSH2 0xC44 JUMPI PUSH1 0x0 DUP2 DUP2 PUSH2 0xC3B SWAP2 SWAP1 PUSH2 0xC48 JUMP JUMPDEST POP PUSH1 0x1 ADD PUSH2 0xC25 JUMP JUMPDEST POP SWAP1 JUMP JUMPDEST POP DUP1 SLOAD PUSH2 0xC54 SWAP1 PUSH2 0x1570 JUMP JUMPDEST PUSH1 0x0 DUP3 SSTORE DUP1 PUSH1 0x1F LT PUSH2 0xC66 JUMPI POP PUSH2 0xC85 JUMP JUMPDEST PUSH1 0x1F ADD PUSH1 0x20 SWAP1 DIV SWAP1 PUSH1 0x0 MSTORE PUSH1 0x20 PUSH1 0x0 KECCAK256 SWAP1 DUP2 ADD SWAP1 PUSH2 0xC84 SWAP2 SWAP1 PUSH2 0xC07 JUMP JUMPDEST JUMPDEST POP JUMP JUMPDEST PUSH1 0x0 PUSH2 0xC9B PUSH2 0xC96 DUP5 PUSH2 0x1422 JUMP JUMPDEST PUSH2 0x13FD JUMP JUMPDEST SWAP1 POP DUP1 DUP4 DUP3 MSTORE PUSH1 0x20 DUP3 ADD SWAP1 POP DUP3 DUP6 PUSH1 0x20 DUP7 MUL DUP3 ADD GT ISZERO PUSH2 0xCBE JUMPI PUSH2 0xCBD PUSH2 0x16E7 JUMP JUMPDEST JUMPDEST PUSH1 0x0 JUMPDEST DUP6 DUP2 LT ISZERO PUSH2 0xD0C JUMPI DUP2 CALLDATALOAD PUSH8 0xFFFFFFFFFFFFFFFF DUP2 GT ISZERO PUSH2 0xCE4 JUMPI PUSH2 0xCE3 PUSH2 0x16D8 JUMP JUMPDEST JUMPDEST DUP1 DUP7 ADD PUSH2 0xCF1 DUP10 DUP3 PUSH2 0xD9B JUMP JUMPDEST DUP6 MSTORE PUSH1 0x20 DUP6 ADD SWAP5 POP PUSH1 0x20 DUP5 ADD SWAP4 POP POP POP PUSH1 0x1 DUP2 ADD SWAP1 POP PUSH2 0xCC1 JUMP JUMPDEST POP POP POP SWAP4 SWAP3 POP POP POP JUMP JUMPDEST PUSH1 0x0 PUSH2 0xD29 PUSH2 0xD24 DUP5 PUSH2 0x144E JUMP JUMPDEST PUSH2 0x13FD JUMP JUMPDEST SWAP1 POP DUP3 DUP2 MSTORE PUSH1 0x20 DUP2 ADD DUP5 DUP5 DUP5 ADD GT ISZERO PUSH2 0xD45 JUMPI PUSH2 0xD44 PUSH2 0x16EC JUMP JUMPDEST JUMPDEST PUSH2 0xD50 DUP5 DUP3 DUP6 PUSH2 0x152E JUMP JUMPDEST POP SWAP4 SWAP3 POP POP POP JUMP JUMPDEST PUSH1 0x0 DUP3 PUSH1 0x1F DUP4 ADD SLT PUSH2 0xD6D JUMPI PUSH2 0xD6C PUSH2 0x16D8 JUMP JUMPDEST JUMPDEST DUP2 CALLDATALOAD PUSH2 0xD7D DUP5 DUP3 PUSH1 0x20 DUP7 ADD PUSH2 0xC88 JUMP JUMPDEST SWAP2 POP POP SWAP3 SWAP2 POP POP JUMP JUMPDEST PUSH1 0x0 DUP2 CALLDATALOAD SWAP1 POP PUSH2 0xD95 DUP2 PUSH2 0x170C JUMP JUMPDEST SWAP3 SWAP2 POP POP JUMP JUMPDEST PUSH1 0x0 DUP3 PUSH1 0x1F DUP4 ADD SLT PUSH2 0xDB0 JUMPI PUSH2 0xDAF PUSH2 0x16D8 JUMP JUMPDEST JUMPDEST DUP2 CALLDATALOAD PUSH2 0xDC0 DUP5 DUP3 PUSH1 0x20 DUP7 ADD PUSH2 0xD16 JUMP JUMPDEST SWAP2 POP POP SWAP3 SWAP2 POP POP JUMP JUMPDEST PUSH1 0x0 PUSH1 0x40 DUP3 DUP5 SUB SLT ISZERO PUSH2 0xDDF JUMPI PUSH2 0xDDE PUSH2 0x16DD JUMP JUMPDEST JUMPDEST PUSH2 0xDE9 PUSH1 0x40 PUSH2 0x13FD JUMP JUMPDEST SWAP1 POP PUSH1 0x0 DUP3 ADD CALLDATALOAD PUSH8 0xFFFFFFFFFFFFFFFF DUP2 GT ISZERO PUSH2 0xE09 JUMPI PUSH2 0xE08 PUSH2 0x16E2 JUMP JUMPDEST JUMPDEST PUSH2 0xE15 DUP5 DUP3 DUP6 ADD PUSH2 0xD9B JUMP JUMPDEST PUSH1 0x0 DUP4 ADD MSTORE POP PUSH1 0x20 DUP3 ADD CALLDATALOAD PUSH8 0xFFFFFFFFFFFFFFFF DUP2 GT ISZERO PUSH2 0xE39 JUMPI PUSH2 0xE38 PUSH2 0x16E2 JUMP JUMPDEST JUMPDEST PUSH2 0xE45 DUP5 DUP3 DUP6 ADD PUSH2 0xD9B JUMP JUMPDEST PUSH1 0x20 DUP4 ADD MSTORE POP SWAP3 SWAP2 POP POP JUMP JUMPDEST PUSH1 0x0 PUSH1 0xC0 DUP3 DUP5 SUB SLT ISZERO PUSH2 0xE67 JUMPI PUSH2 0xE66 PUSH2 0x16DD JUMP JUMPDEST JUMPDEST PUSH2 0xE71 PUSH1 0xC0 PUSH2 0x13FD JUMP JUMPDEST SWAP1 POP PUSH1 0x0 DUP3 ADD CALLDATALOAD PUSH8 0xFFFFFFFFFFFFFFFF DUP2 GT ISZERO PUSH2 0xE91 JUMPI PUSH2 0xE90 PUSH2 0x16E2 JUMP JUMPDEST JUMPDEST PUSH2 0xE9D DUP5 DUP3 DUP6 ADD PUSH2 0xD9B JUMP JUMPDEST PUSH1 0x0 DUP4 ADD MSTORE POP PUSH1 0x20 DUP3 ADD CALLDATALOAD PUSH8 0xFFFFFFFFFFFFFFFF DUP2 GT ISZERO PUSH2 0xEC1 JUMPI PUSH2 0xEC0 PUSH2 0x16E2 JUMP JUMPDEST JUMPDEST PUSH2 0xECD DUP5 DUP3 DUP6 ADD PUSH2 0xD58 JUMP JUMPDEST PUSH1 0x20 DUP4 ADD MSTORE POP PUSH1 0x40 DUP3 ADD CALLDATALOAD PUSH8 0xFFFFFFFFFFFFFFFF DUP2 GT ISZERO PUSH2 0xEF1 JUMPI PUSH2 0xEF0 PUSH2 0x16E2 JUMP JUMPDEST JUMPDEST PUSH2 0xEFD DUP5 DUP3 DUP6 ADD PUSH2 0xD9B JUMP JUMPDEST PUSH1 0x40 DUP4 ADD MSTORE POP PUSH1 0x60 DUP3 ADD CALLDATALOAD PUSH8 0xFFFFFFFFFFFFFFFF DUP2 GT ISZERO PUSH2 0xF21 JUMPI PUSH2 0xF20 PUSH2 0x16E2 JUMP JUMPDEST JUMPDEST PUSH2 0xF2D DUP5 DUP3 DUP6 ADD PUSH2 0xD9B JUMP JUMPDEST PUSH1 0x60 DUP4 ADD MSTORE POP PUSH1 0x80 DUP3 ADD CALLDATALOAD PUSH8 0xFFFFFFFFFFFFFFFF DUP2 GT ISZERO PUSH2 0xF51 JUMPI PUSH2 0xF50 PUSH2 0x16E2 JUMP JUMPDEST JUMPDEST PUSH2 0xF5D DUP5 DUP3 DUP6 ADD PUSH2 0xD9B JUMP JUMPDEST PUSH1 0x80 DUP4 ADD MSTORE POP PUSH1 0xA0 DUP3 ADD CALLDATALOAD PUSH8 0xFFFFFFFFFFFFFFFF DUP2 GT ISZERO PUSH2 0xF81 JUMPI PUSH2 0xF80 PUSH2 0x16E2 JUMP JUMPDEST JUMPDEST PUSH2 0xF8D DUP5 DUP3 DUP6 ADD PUSH2 0xDC9 JUMP JUMPDEST PUSH1 0xA0 DUP4 ADD MSTORE POP SWAP3 SWAP2 POP POP JUMP JUMPDEST PUSH1 0x0 PUSH1 0x80 DUP3 DUP5 SUB SLT ISZERO PUSH2 0xFAF JUMPI PUSH2 0xFAE PUSH2 0x16DD JUMP JUMPDEST JUMPDEST PUSH2 0xFB9 PUSH1 0x80 PUSH2 0x13FD JUMP JUMPDEST SWAP1 POP PUSH1 0x0 DUP3 ADD CALLDATALOAD PUSH8 0xFFFFFFFFFFFFFFFF DUP2 GT ISZERO PUSH2 0xFD9 JUMPI PUSH2 0xFD8 PUSH2 0x16E2 JUMP JUMPDEST JUMPDEST PUSH2 0xFE5 DUP5 DUP3 DUP6 ADD PUSH2 0xD9B JUMP JUMPDEST PUSH1 0x0 DUP4 ADD MSTORE POP PUSH1 0x20 DUP3 ADD CALLDATALOAD PUSH8 0xFFFFFFFFFFFFFFFF DUP2 GT ISZERO PUSH2 0x1009 JUMPI PUSH2 0x1008 PUSH2 0x16E2 JUMP JUMPDEST JUMPDEST PUSH2 0x1015 DUP5 DUP3 DUP6 ADD PUSH2 0xD9B JUMP JUMPDEST PUSH1 0x20 DUP4 ADD MSTORE POP PUSH1 0x40 DUP3 ADD CALLDATALOAD PUSH8 0xFFFFFFFFFFFFFFFF DUP2 GT ISZERO PUSH2 0x1039 JUMPI PUSH2 0x1038 PUSH2 0x16E2 JUMP JUMPDEST JUMPDEST PUSH2 0x1045 DUP5 DUP3 DUP6 ADD PUSH2 0xE51 JUMP JUMPDEST PUSH1 0x40 DUP4 ADD MSTORE POP PUSH1 0x60 PUSH2 0x1059 DUP5 DUP3 DUP6 ADD PUSH2 0xD86 JUMP JUMPDEST PUSH1 0x60 DUP4 ADD MSTORE POP SWAP3 SWAP2 POP POP JUMP JUMPDEST PUSH1 0x0 PUSH1 0x20 DUP3 DUP5 SUB SLT ISZERO PUSH2 0x107B JUMPI PUSH2 0x107A PUSH2 0x16F6 JUMP JUMPDEST JUMPDEST PUSH1 0x0 DUP3 ADD CALLDATALOAD PUSH8 0xFFFFFFFFFFFFFFFF DUP2 GT ISZERO PUSH2 0x1099 JUMPI PUSH2 0x1098 PUSH2 0x16F1 JUMP JUMPDEST JUMPDEST PUSH2 0x10A5 DUP5 DUP3 DUP6 ADD PUSH2 0xF99 JUMP JUMPDEST SWAP2 POP POP SWAP3 SWAP2 POP POP JUMP JUMPDEST PUSH1 0x0 PUSH2 0x10BA DUP4 DUP4 PUSH2 0x11CF JUMP JUMPDEST SWAP1 POP SWAP3 SWAP2 POP POP JUMP JUMPDEST PUSH1 0x0 PUSH2 0x10CE DUP4 DUP4 PUSH2 0x1329 JUMP JUMPDEST SWAP1 POP SWAP3 SWAP2 POP POP JUMP JUMPDEST PUSH1 0x0 PUSH2 0x10E1 DUP3 PUSH2 0x149F JUMP JUMPDEST PUSH2 0x10EB DUP2 DUP6 PUSH2 0x14DA JUMP JUMPDEST SWAP4 POP DUP4 PUSH1 0x20 DUP3 MUL DUP6 ADD PUSH2 0x10FD DUP6 PUSH2 0x147F JUMP JUMPDEST DUP1 PUSH1 0x0 JUMPDEST DUP6 DUP2 LT ISZERO PUSH2 0x1139 JUMPI DUP5 DUP5 SUB DUP10 MSTORE DUP2 MLOAD PUSH2 0x111A DUP6 DUP3 PUSH2 0x10AE JUMP JUMPDEST SWAP5 POP PUSH2 0x1125 DUP4 PUSH2 0x14C0 JUMP JUMPDEST SWAP3 POP PUSH1 0x20 DUP11 ADD SWAP10 POP POP PUSH1 0x1 DUP2 ADD SWAP1 POP PUSH2 0x1101 JUMP JUMPDEST POP DUP3 SWAP8 POP DUP8 SWAP6 POP POP POP POP POP POP SWAP3 SWAP2 POP POP JUMP JUMPDEST PUSH1 0x0 PUSH2 0x1156 DUP3 PUSH2 0x14AA JUMP JUMPDEST PUSH2 0x1160 DUP2 DUP6 PUSH2 0x14EB JUMP JUMPDEST SWAP4 POP DUP4 PUSH1 0x20 DUP3 MUL DUP6 ADD PUSH2 0x1172 DUP6 PUSH2 0x148F JUMP JUMPDEST DUP1 PUSH1 0x0 JUMPDEST DUP6 DUP2 LT ISZERO PUSH2 0x11AE JUMPI DUP5 DUP5 SUB DUP10 MSTORE DUP2 MLOAD PUSH2 0x118F DUP6 DUP3 PUSH2 0x10C2 JUMP JUMPDEST SWAP5 POP PUSH2 0x119A DUP4 PUSH2 0x14CD JUMP JUMPDEST SWAP3 POP PUSH1 0x20 DUP11 ADD SWAP10 POP POP PUSH1 0x1 DUP2 ADD SWAP1 POP PUSH2 0x1176 JUMP JUMPDEST POP DUP3 SWAP8 POP DUP8 SWAP6 POP POP POP POP POP POP SWAP3 SWAP2 POP POP JUMP JUMPDEST PUSH2 0x11C9 DUP2 PUSH2 0x1518 JUMP JUMPDEST DUP3 MSTORE POP POP JUMP JUMPDEST PUSH1 0x0 PUSH2 0x11DA DUP3 PUSH2 0x14B5 JUMP JUMPDEST PUSH2 0x11E4 DUP2 DUP6 PUSH2 0x14FC JUMP JUMPDEST SWAP4 POP PUSH2 0x11F4 DUP2 DUP6 PUSH1 0x20 DUP7 ADD PUSH2 0x153D JUMP JUMPDEST PUSH2 0x11FD DUP2 PUSH2 0x16FB JUMP JUMPDEST DUP5 ADD SWAP2 POP POP SWAP3 SWAP2 POP POP JUMP JUMPDEST PUSH1 0x0 PUSH2 0x1213 DUP3 PUSH2 0x14B5 JUMP JUMPDEST PUSH2 0x121D DUP2 DUP6 PUSH2 0x150D JUMP JUMPDEST SWAP4 POP PUSH2 0x122D DUP2 DUP6 PUSH1 0x20 DUP7 ADD PUSH2 0x153D JUMP JUMPDEST DUP1 DUP5 ADD SWAP2 POP POP SWAP3 SWAP2 POP POP JUMP JUMPDEST PUSH1 0x0 PUSH1 0x40 DUP4 ADD PUSH1 0x0 DUP4 ADD MLOAD DUP5 DUP3 SUB PUSH1 0x0 DUP7 ADD MSTORE PUSH2 0x1256 DUP3 DUP3 PUSH2 0x11CF JUMP JUMPDEST SWAP2 POP POP PUSH1 0x20 DUP4 ADD MLOAD DUP5 DUP3 SUB PUSH1 0x20 DUP7 ADD MSTORE PUSH2 0x1270 DUP3 DUP3 PUSH2 0x11CF JUMP JUMPDEST SWAP2 POP POP DUP1 SWAP2 POP POP SWAP3 SWAP2 POP POP JUMP JUMPDEST PUSH1 0x0 PUSH1 0xC0 DUP4 ADD PUSH1 0x0 DUP4 ADD MLOAD DUP5 DUP3 SUB PUSH1 0x0 DUP7 ADD MSTORE PUSH2 0x129A DUP3 DUP3 PUSH2 0x11CF JUMP JUMPDEST SWAP2 POP POP PUSH1 0x20 DUP4 ADD MLOAD DUP5 DUP3 SUB PUSH1 0x20 DUP7 ADD MSTORE PUSH2 0x12B4 DUP3 DUP3 PUSH2 0x10D6 JUMP JUMPDEST SWAP2 POP POP PUSH1 0x40 DUP4 ADD MLOAD DUP5 DUP3 SUB PUSH1 0x40 DUP7 ADD MSTORE PUSH2 0x12CE DUP3 DUP3 PUSH2 0x11CF JUMP JUMPDEST SWAP2 POP POP PUSH1 0x60 DUP4 ADD MLOAD DUP5 DUP3 SUB PUSH1 0x60 DUP7 ADD MSTORE PUSH2 0x12E8 DUP3 DUP3 PUSH2 0x11CF JUMP JUMPDEST SWAP2 POP POP PUSH1 0x80 DUP4 ADD MLOAD DUP5 DUP3 SUB PUSH1 0x80 DUP7 ADD MSTORE PUSH2 0x1302 DUP3 DUP3 PUSH2 0x11CF JUMP JUMPDEST SWAP2 POP POP PUSH1 0xA0 DUP4 ADD MLOAD DUP5 DUP3 SUB PUSH1 0xA0 DUP7 ADD MSTORE PUSH2 0x131C DUP3 DUP3 PUSH2 0x1239 JUMP JUMPDEST SWAP2 POP POP DUP1 SWAP2 POP POP SWAP3 SWAP2 POP POP JUMP JUMPDEST PUSH1 0x0 PUSH1 0x80 DUP4 ADD PUSH1 0x0 DUP4 ADD MLOAD DUP5 DUP3 SUB PUSH1 0x0 DUP7 ADD MSTORE PUSH2 0x1346 DUP3 DUP3 PUSH2 0x11CF JUMP JUMPDEST SWAP2 POP POP PUSH1 0x20 DUP4 ADD MLOAD DUP5 DUP3 SUB PUSH1 0x20 DUP7 ADD MSTORE PUSH2 0x1360 DUP3 DUP3 PUSH2 0x11CF JUMP JUMPDEST SWAP2 POP POP PUSH1 0x40 DUP4 ADD MLOAD DUP5 DUP3 SUB PUSH1 0x40 DUP7 ADD MSTORE PUSH2 0x137A DUP3 DUP3 PUSH2 0x127D JUMP JUMPDEST SWAP2 POP POP PUSH1 0x60 DUP4 ADD MLOAD PUSH2 0x138F PUSH1 0x60 DUP7 ADD DUP3 PUSH2 0x11C0 JUMP JUMPDEST POP DUP1 SWAP2 POP POP SWAP3 SWAP2 POP POP JUMP JUMPDEST PUSH2 0x13A3 DUP2 PUSH2 0x1524 JUMP JUMPDEST DUP3 MSTORE POP POP JUMP JUMPDEST PUSH1 0x0 PUSH2 0x13B5 DUP3 DUP5 PUSH2 0x1208 JUMP JUMPDEST SWAP2 POP DUP2 SWAP1 POP SWAP3 SWAP2 POP POP JUMP JUMPDEST PUSH1 0x0 PUSH1 0x20 DUP3 ADD SWAP1 POP DUP2 DUP2 SUB PUSH1 0x0 DUP4 ADD MSTORE PUSH2 0x13DA DUP2 DUP5 PUSH2 0x114B JUMP JUMPDEST SWAP1 POP SWAP3 SWAP2 POP POP JUMP JUMPDEST PUSH1 0x0 PUSH1 0x20 DUP3 ADD SWAP1 POP PUSH2 0x13F7 PUSH1 0x0 DUP4 ADD DUP5 PUSH2 0x139A JUMP JUMPDEST SWAP3 SWAP2 POP POP JUMP JUMPDEST PUSH1 0x0 PUSH2 0x1407 PUSH2 0x1418 JUMP JUMPDEST SWAP1 POP PUSH2 0x1413 DUP3 DUP3 PUSH2 0x15A2 JUMP JUMPDEST SWAP2 SWAP1 POP JUMP JUMPDEST PUSH1 0x0 PUSH1 0x40 MLOAD SWAP1 POP SWAP1 JUMP JUMPDEST PUSH1 0x0 PUSH8 0xFFFFFFFFFFFFFFFF DUP3 GT ISZERO PUSH2 0x143D JUMPI PUSH2 0x143C PUSH2 0x16A9 JUMP JUMPDEST JUMPDEST PUSH1 0x20 DUP3 MUL SWAP1 POP PUSH1 0x20 DUP2 ADD SWAP1 POP SWAP2 SWAP1 POP JUMP JUMPDEST PUSH1 0x0 PUSH8 0xFFFFFFFFFFFFFFFF DUP3 GT ISZERO PUSH2 0x1469 JUMPI PUSH2 0x1468 PUSH2 0x16A9 JUMP JUMPDEST JUMPDEST PUSH2 0x1472 DUP3 PUSH2 0x16FB JUMP JUMPDEST SWAP1 POP PUSH1 0x20 DUP2 ADD SWAP1 POP SWAP2 SWAP1 POP JUMP JUMPDEST PUSH1 0x0 DUP2 SWAP1 POP PUSH1 0x20 DUP3 ADD SWAP1 POP SWAP2 SWAP1 POP JUMP JUMPDEST PUSH1 0x0 DUP2 SWAP1 POP PUSH1 0x20 DUP3 ADD SWAP1 POP SWAP2 SWAP1 POP JUMP JUMPDEST PUSH1 0x0 DUP2 MLOAD SWAP1 POP SWAP2 SWAP1 POP JUMP JUMPDEST PUSH1 0x0 DUP2 MLOAD SWAP1 POP SWAP2 SWAP1 POP JUMP JUMPDEST PUSH1 0x0 DUP2 MLOAD SWAP1 POP SWAP2 SWAP1 POP JUMP JUMPDEST PUSH1 0x0 PUSH1 0x20 DUP3 ADD SWAP1 POP SWAP2 SWAP1 POP JUMP JUMPDEST PUSH1 0x0 PUSH1 0x20 DUP3 ADD SWAP1 POP SWAP2 SWAP1 POP JUMP JUMPDEST PUSH1 0x0 DUP3 DUP3 MSTORE PUSH1 0x20 DUP3 ADD SWAP1 POP SWAP3 SWAP2 POP POP JUMP JUMPDEST PUSH1 0x0 DUP3 DUP3 MSTORE PUSH1 0x20 DUP3 ADD SWAP1 POP SWAP3 SWAP2 POP POP JUMP JUMPDEST PUSH1 0x0 DUP3 DUP3 MSTORE PUSH1 0x20 DUP3 ADD SWAP1 POP SWAP3 SWAP2 POP POP JUMP JUMPDEST PUSH1 0x0 DUP2 SWAP1 POP SWAP3 SWAP2 POP POP JUMP JUMPDEST PUSH1 0x0 DUP2 ISZERO ISZERO SWAP1 POP SWAP2 SWAP1 POP JUMP JUMPDEST PUSH1 0x0 DUP2 SWAP1 POP SWAP2 SWAP1 POP JUMP JUMPDEST DUP3 DUP2 DUP4 CALLDATACOPY PUSH1 0x0 DUP4 DUP4 ADD MSTORE POP POP POP JUMP JUMPDEST PUSH1 0x0 JUMPDEST DUP4 DUP2 LT ISZERO PUSH2 0x155B JUMPI DUP1 DUP3 ADD MLOAD DUP2 DUP5 ADD MSTORE PUSH1 0x20 DUP2 ADD SWAP1 POP PUSH2 0x1540 JUMP JUMPDEST DUP4 DUP2 GT ISZERO PUSH2 0x156A JUMPI PUSH1 0x0 DUP5 DUP5 ADD MSTORE JUMPDEST POP POP POP POP JUMP JUMPDEST PUSH1 0x0 PUSH1 0x2 DUP3 DIV SWAP1 POP PUSH1 0x1 DUP3 AND DUP1 PUSH2 0x1588 JUMPI PUSH1 0x7F DUP3 AND SWAP2 POP JUMPDEST PUSH1 0x20 DUP3 LT DUP2 EQ ISZERO PUSH2 0x159C JUMPI PUSH2 0x159B PUSH2 0x164B JUMP JUMPDEST JUMPDEST POP SWAP2 SWAP1 POP JUMP JUMPDEST PUSH2 0x15AB DUP3 PUSH2 0x16FB JUMP JUMPDEST DUP2 ADD DUP2 DUP2 LT PUSH8 0xFFFFFFFFFFFFFFFF DUP3 GT OR ISZERO PUSH2 0x15CA JUMPI PUSH2 0x15C9 PUSH2 0x16A9 JUMP JUMPDEST JUMPDEST DUP1 PUSH1 0x40 MSTORE POP POP POP JUMP JUMPDEST PUSH1 0x0 PUSH2 0x15DE DUP3 PUSH2 0x1524 JUMP JUMPDEST SWAP2 POP PUSH32 0xFFFFFFFFFFFFFFFFFFFFFFFFFFFFFFFFFFFFFFFFFFFFFFFFFFFFFFFFFFFFFFFF DUP3 EQ ISZERO PUSH2 0x1611 JUMPI PUSH2 0x1610 PUSH2 0x161C JUMP JUMPDEST JUMPDEST PUSH1 0x1 DUP3 ADD SWAP1 POP SWAP2 SWAP1 POP JUMP JUMPDEST PUSH32 0x4E487B7100000000000000000000000000000000000000000000000000000000 PUSH1 0x0 MSTORE PUSH1 0x11 PUSH1 0x4 MSTORE PUSH1 0x24 PUSH1 0x0 REVERT JUMPDEST PUSH32 0x4E487B7100000000000000000000000000000000000000000000000000000000 PUSH1 0x0 MSTORE PUSH1 0x22 PUSH1 0x4 MSTORE PUSH1 0x24 PUSH1 0x0 REVERT JUMPDEST PUSH32 0x4E487B7100000000000000000000000000000000000000000000000000000000 PUSH1 0x0 MSTORE PUSH1 0x32 PUSH1 0x4 MSTORE PUSH1 0x24 PUSH1 0x0 REVERT JUMPDEST PUSH32 0x4E487B7100000000000000000000000000000000000000000000000000000000 PUSH1 0x0 MSTORE PUSH1 0x41 PUSH1 0x4 MSTORE PUSH1 0x24 PUSH1 0x0 REVERT JUMPDEST PUSH1 0x0 DUP1 REVERT JUMPDEST PUSH1 0x0 DUP1 REVERT JUMPDEST PUSH1 0x0 DUP1 REVERT JUMPDEST PUSH1 0x0 DUP1 REVERT JUMPDEST PUSH1 0x0 DUP1 REVERT JUMPDEST PUSH1 0x0 DUP1 REVERT JUMPDEST PUSH1 0x0 DUP1 REVERT JUMPDEST PUSH1 0x0 PUSH1 0x1F NOT PUSH1 0x1F DUP4 ADD AND SWAP1 POP SWAP2 SWAP1 POP JUMP JUMPDEST PUSH2 0x1715 DUP2 PUSH2 0x1518 JUMP JUMPDEST DUP2 EQ PUSH2 0x1720 JUMPI PUSH1 0x0 DUP1 REVERT JUMPDEST POP JUMP INVALID LOG2 PUSH5 0x6970667358 0x22 SLT KECCAK256 0xC0 0xC3 OR 0xBD PUSH6 0xA0CEDBE2B17D INVALID 0xD0 KECCAK256 SAR 0xC9 0xD6 0x21 0xE7 SWAP10 CALLER REVERT 0x1F 0xAB 0x25 DUP5 JUMPI 0xDB PUSH17 0x215BFA64736F6C63430008060033000000 "
		},
		"gasEstimates": {
			"creation": {
				"codeDepositCost": "1195400",
				"executionCost": "1241",
				"totalCost": "1196641"
			},
			"external": {
				"addTestStruct((string,string,(string,string[],string,string,string,(string,string)),bool))": "infinite",
				"getTestStructLength()": "2423",
				"getTestStructs()": "infinite"
			}
		},
		"methodIdentifiers": {
			"addTestStruct((string,string,(string,string[],string,string,string,(string,string)),bool))": "f44b3df3",
			"getTestStructLength()": "7ba64233",
			"getTestStructs()": "da48369a"
		}
	},
	"abi": [
		{
			"inputs": [
				{
					"components": [
						{
							"internalType": "string",
							"name": "token",
							"type": "string"
						},
						{
							"internalType": "string",
							"name": "name",
							"type": "string"
						},
						{
							"components": [
								{
									"internalType": "string",
									"name": "token",
									"type": "string"
								},
								{
									"internalType": "string[]",
									"name": "arrayElements",
									"type": "string[]"
								},
								{
									"internalType": "string",
									"name": "field1",
									"type": "string"
								},
								{
									"internalType": "string",
									"name": "field2",
									"type": "string"
								},
								{
									"internalType": "string",
									"name": "field3",
									"type": "string"
								},
								{
									"components": [
										{
											"internalType": "string",
											"name": "token",
											"type": "string"
										},
										{
											"internalType": "string",
											"name": "comment",
											"type": "string"
										}
									],
									"internalType": "struct TestContract.Array",
									"name": "array",
									"type": "tuple"
								}
							],
							"internalType": "struct TestContract.TestStructArgument",
							"name": "Argument",
							"type": "tuple"
						},
						{
							"internalType": "bool",
							"name": "isBlocked",
							"type": "bool"
						}
					],
					"internalType": "struct TestContract.TestStruct",
					"name": "testStructToAdd",
					"type": "tuple"
				}
			],
			"name": "addTestStruct",
			"outputs": [],
			"stateMutability": "nonpayable",
			"type": "function"
		},
		{
			"inputs": [],
			"name": "getTestStructLength",
			"outputs": [
				{
					"internalType": "uint256",
					"name": "",
					"type": "uint256"
				}
			],
			"stateMutability": "view",
			"type": "function"
		},
		{
			"inputs": [],
			"name": "getTestStructs",
			"outputs": [
				{
					"components": [
						{
							"internalType": "string",
							"name": "token",
							"type": "string"
						},
						{
							"internalType": "string",
							"name": "name",
							"type": "string"
						},
						{
							"components": [
								{
									"internalType": "string",
									"name": "token",
									"type": "string"
								},
								{
									"internalType": "string[]",
									"name": "arrayElements",
									"type": "string[]"
								},
								{
									"internalType": "string",
									"name": "field1",
									"type": "string"
								},
								{
									"internalType": "string",
									"name": "field2",
									"type": "string"
								},
								{
									"internalType": "string",
									"name": "field3",
									"type": "string"
								},
								{
									"components": [
										{
											"internalType": "string",
											"name": "token",
											"type": "string"
										},
										{
											"internalType": "string",
											"name": "comment",
											"type": "string"
										}
									],
									"internalType": "struct TestContract.Array",
									"name": "array",
									"type": "tuple"
								}
							],
							"internalType": "struct TestContract.TestStructArgument",
							"name": "Argument",
							"type": "tuple"
						},
						{
							"internalType": "bool",
							"name": "isBlocked",
							"type": "bool"
						}
					],
					"internalType": "struct TestContract.TestStruct[]",
					"name": "",
					"type": "tuple[]"
				}
			],
			"stateMutability": "view",
			"type": "function"
		}
	]
}